{
  "_format": "hh-sol-artifact-1",
  "contractName": "EcoClaim",
  "sourceName": "contracts/EcoClaim.sol",
  "abi": [
    {
      "inputs": [
        {
          "internalType": "contract IECO",
          "name": "eco",
          "type": "address"
        },
        {
          "internalType": "contract ERC20",
          "name": "ecoX",
          "type": "address"
        },
        {
          "internalType": "contract EcoNFT",
          "name": "nft",
          "type": "address"
        },
        {
          "internalType": "address",
          "name": "trustedVerifier",
          "type": "address"
        },
        {
          "internalType": "bytes32",
          "name": "merkelRoot",
          "type": "bytes32"
        }
      ],
      "stateMutability": "nonpayable",
      "type": "constructor"
    },
    {
      "anonymous": false,
      "inputs": [
        {
          "indexed": false,
          "internalType": "string",
          "name": "socialID",
          "type": "string"
        },
        {
          "indexed": true,
          "internalType": "address",
          "name": "addr",
          "type": "address"
        },
        {
          "indexed": false,
          "internalType": "uint256",
          "name": "eco",
          "type": "uint256"
        },
        {
          "indexed": false,
          "internalType": "uint256",
          "name": "ecox",
          "type": "uint256"
        }
      ],
      "name": "Claim",
      "type": "event"
    },
    {
      "anonymous": false,
      "inputs": [],
      "name": "InitializeEcoClaim",
      "type": "event"
    },
    {
      "anonymous": false,
      "inputs": [
        {
          "indexed": true,
          "internalType": "address",
          "name": "previousOwner",
          "type": "address"
        },
        {
          "indexed": true,
          "internalType": "address",
          "name": "newOwner",
          "type": "address"
        }
      ],
      "name": "OwnershipTransferred",
      "type": "event"
    },
    {
      "anonymous": false,
      "inputs": [
        {
          "indexed": true,
          "internalType": "address",
          "name": "addr",
          "type": "address"
        },
        {
          "indexed": true,
          "internalType": "address",
          "name": "gasPayer",
          "type": "address"
        },
        {
          "indexed": false,
          "internalType": "uint256",
          "name": "ecoBalance",
          "type": "uint256"
        },
        {
          "indexed": false,
          "internalType": "uint256",
          "name": "vestedEcoXBalance",
          "type": "uint256"
        },
        {
          "indexed": false,
          "internalType": "uint256",
          "name": "feeAmount",
          "type": "uint256"
        }
      ],
      "name": "ReleaseVesting",
      "type": "event"
    },
    {
      "inputs": [],
      "name": "CLAIMABLE_PERIOD",
      "outputs": [
        {
          "internalType": "uint256",
          "name": "",
          "type": "uint256"
        }
      ],
      "stateMutability": "view",
      "type": "function"
    },
    {
      "inputs": [],
      "name": "POINTS_TO_ECOX_RATIO",
      "outputs": [
        {
          "internalType": "uint256",
          "name": "",
          "type": "uint256"
        }
      ],
      "stateMutability": "view",
      "type": "function"
    },
    {
      "inputs": [],
      "name": "VESTING_PERIOD",
      "outputs": [
        {
          "internalType": "uint256",
          "name": "",
          "type": "uint256"
        }
      ],
      "stateMutability": "view",
      "type": "function"
    },
    {
      "inputs": [
        {
          "internalType": "address",
          "name": "",
          "type": "address"
        }
      ],
      "name": "_claimBalances",
      "outputs": [
        {
          "internalType": "uint256",
          "name": "points",
          "type": "uint256"
        },
        {
          "internalType": "uint256",
          "name": "claimTime",
          "type": "uint256"
        }
      ],
      "stateMutability": "view",
      "type": "function"
    },
    {
      "inputs": [],
      "name": "_claimableEndTime",
      "outputs": [
        {
          "internalType": "uint256",
          "name": "",
          "type": "uint256"
        }
      ],
      "stateMutability": "view",
      "type": "function"
    },
    {
      "inputs": [
        {
          "internalType": "string",
          "name": "",
          "type": "string"
        }
      ],
      "name": "_claimedBalances",
      "outputs": [
        {
          "internalType": "bool",
          "name": "",
          "type": "bool"
        }
      ],
      "stateMutability": "view",
      "type": "function"
    },
    {
      "inputs": [],
      "name": "_deployTimestamp",
      "outputs": [
        {
          "internalType": "uint256",
          "name": "",
          "type": "uint256"
        }
      ],
      "stateMutability": "view",
      "type": "function"
    },
    {
      "inputs": [],
      "name": "_eco",
      "outputs": [
        {
          "internalType": "contract IECO",
          "name": "",
          "type": "address"
        }
      ],
      "stateMutability": "view",
      "type": "function"
    },
    {
      "inputs": [],
      "name": "_ecoNft",
      "outputs": [
        {
          "internalType": "contract EcoNFT",
          "name": "",
          "type": "address"
        }
      ],
      "stateMutability": "view",
      "type": "function"
    },
    {
      "inputs": [],
      "name": "_ecoX",
      "outputs": [
        {
          "internalType": "contract ERC20",
          "name": "",
          "type": "address"
        }
      ],
      "stateMutability": "view",
      "type": "function"
    },
    {
      "inputs": [],
      "name": "_initialInflationMultiplier",
      "outputs": [
        {
          "internalType": "uint256",
          "name": "",
          "type": "uint256"
        }
      ],
      "stateMutability": "view",
      "type": "function"
    },
    {
      "inputs": [],
      "name": "_pointsMerkleRoot",
      "outputs": [
        {
          "internalType": "bytes32",
          "name": "",
          "type": "bytes32"
        }
      ],
      "stateMutability": "view",
      "type": "function"
    },
    {
      "inputs": [],
      "name": "_pointsMultiplier",
      "outputs": [
        {
          "internalType": "uint256",
          "name": "",
          "type": "uint256"
        }
      ],
      "stateMutability": "view",
      "type": "function"
    },
    {
      "inputs": [],
      "name": "_trustedVerifier",
      "outputs": [
        {
          "internalType": "address",
          "name": "",
          "type": "address"
        }
      ],
      "stateMutability": "view",
      "type": "function"
    },
    {
      "inputs": [
        {
          "internalType": "uint256",
          "name": "",
          "type": "uint256"
        }
      ],
      "name": "_vestedMultiples",
      "outputs": [
        {
          "internalType": "uint256",
          "name": "",
          "type": "uint256"
        }
      ],
      "stateMutability": "view",
      "type": "function"
    },
    {
      "inputs": [],
      "name": "_vestingDivider",
      "outputs": [
        {
          "internalType": "uint256",
          "name": "",
          "type": "uint256"
        }
      ],
      "stateMutability": "view",
      "type": "function"
    },
    {
      "inputs": [
        {
          "internalType": "bytes32[]",
          "name": "proof",
          "type": "bytes32[]"
        },
        {
          "internalType": "string",
          "name": "socialID",
          "type": "string"
        },
        {
          "internalType": "uint256",
          "name": "points",
          "type": "uint256"
        }
      ],
      "name": "claimTokens",
      "outputs": [],
      "stateMutability": "nonpayable",
      "type": "function"
    },
    {
      "inputs": [
        {
          "internalType": "bytes32[]",
          "name": "proof",
          "type": "bytes32[]"
        },
        {
          "internalType": "string",
          "name": "socialID",
          "type": "string"
        },
        {
          "internalType": "uint256",
          "name": "points",
          "type": "uint256"
        },
        {
          "internalType": "address",
          "name": "recipient",
          "type": "address"
        },
        {
          "internalType": "uint256",
          "name": "feeAmount",
          "type": "uint256"
        },
        {
          "internalType": "uint256",
          "name": "validTimestamp",
          "type": "uint256"
        },
        {
          "internalType": "bytes",
          "name": "recipientSig",
          "type": "bytes"
        }
      ],
      "name": "claimTokensOnBehalf",
      "outputs": [],
      "stateMutability": "nonpayable",
      "type": "function"
    },
    {
      "inputs": [],
      "name": "owner",
      "outputs": [
        {
          "internalType": "address",
          "name": "",
          "type": "address"
        }
      ],
      "stateMutability": "view",
      "type": "function"
    },
    {
      "inputs": [],
      "name": "releaseTokens",
      "outputs": [],
      "stateMutability": "nonpayable",
      "type": "function"
    },
    {
      "inputs": [
        {
          "internalType": "address",
          "name": "recipient",
          "type": "address"
        },
        {
          "internalType": "uint256",
          "name": "feeAmount",
          "type": "uint256"
        },
        {
          "internalType": "uint256",
          "name": "validTimestamp",
          "type": "uint256"
        },
        {
          "internalType": "bytes",
          "name": "recipientSig",
          "type": "bytes"
        }
      ],
      "name": "releaseTokensOnBehalf",
      "outputs": [],
      "stateMutability": "nonpayable",
      "type": "function"
    },
    {
      "inputs": [],
      "name": "renounceOwnership",
      "outputs": [],
      "stateMutability": "nonpayable",
      "type": "function"
    },
    {
      "inputs": [
        {
          "internalType": "address",
          "name": "newOwner",
          "type": "address"
        }
      ],
      "name": "transferOwnership",
      "outputs": [],
      "stateMutability": "nonpayable",
      "type": "function"
    }
  ],
  "bytecode": "0x6102006040526005610180908152600f6101a05260196101c05260236101e0526200002f90600390600462000197565b504261010081905262000048906301e1338090620001f6565b610120523480156200005957600080fd5b5060405162002197380380620021978339810160408190526200007c9162000237565b620000873362000147565b6001600160a01b0385811660a081905285821660c05284821660e05290831661014052608082905260405163fd11b4d360e01b815243600482015263fd11b4d390602401602060405180830381865afa158015620000e9573d6000803e3d6000fd5b505050506040513d601f19601f820116820180604052508101906200010f9190620002ab565b610160526040517fb8ed2afdffb5b047fb7bd6eb7477cf38018b19f1906209c146b31f63ed2eaba990600090a15050505050620002c5565b600080546001600160a01b038381166001600160a01b0319831681178455604051919092169283917f8be0079c531659141344cd1fd0a4f28419497f9722a3daafe3b4186f6b6457e09190a35050565b8260048101928215620001cd579160200282015b82811115620001cd578251829060ff16905591602001919060010190620001ab565b50620001db929150620001df565b5090565b5b80821115620001db5760008155600101620001e0565b808201808211156200021857634e487b7160e01b600052601160045260246000fd5b92915050565b6001600160a01b03811681146200023457600080fd5b50565b600080600080600060a086880312156200025057600080fd5b85516200025d816200021e565b602087015190955062000270816200021e565b604087015190945062000283816200021e565b606087015190935062000296816200021e565b80925050608086015190509295509295909350565b600060208284031215620002be57600080fd5b5051919050565b60805160a05160c05160e05161010051610120516101405161016051611e0362000394600039600081816101b501526110510152600081816102d20152610ea501526000818161025c0152610dda015260006101dc0152600081816103df0152610e7601526000818161038a0152818161098201526111780152600081816102930152818161085f015281816109fa01528181610aef01528181610b9a015281816111fe0152818161127b0152818161132d01526113dd0152600081816103480152610f700152611e036000f3fe608060405234801561001057600080fd5b506004361061018d5760003560e01c80637e3565f5116100e3578063a66318f41161008c578063b8a8545e11610066578063b8a8545e146103c7578063e58e5fe5146103da578063f2fde38b1461040157600080fd5b8063a66318f414610385578063a96f8668146103ac578063b2aec858146103b457600080fd5b8063a0b99867116100bd578063a0b9986714610343578063a45ac56b1461036a578063a4a5fb3d1461037d57600080fd5b80637e3565f5146102cd57806382c5c6dc146102f45780638da5cb5b1461033257600080fd5b806352bff4c0116101455780636b6adc4f1161011f5780636b6adc4f1461027e578063715018a6146102865780637236aa321461028e57600080fd5b806352bff4c0146101925780635e3cc2771461024257806369649d931461025757600080fd5b806347ba89cc1161017657806347ba89cc146101d757806351123dcb146101fe578063525b03371461020657600080fd5b80630197d97214610192578063043997f2146101b0575b600080fd5b61019d6301e1338081565b6040519081526020015b60405180910390f35b61019d7f000000000000000000000000000000000000000000000000000000000000000081565b61019d7f000000000000000000000000000000000000000000000000000000000000000081565b61019d600581565b61022d610214366004611856565b6002602052600090815260409020805460019091015482565b604080519283526020830191909152016101a7565b6102556102503660046118b3565b610414565b005b61019d7f000000000000000000000000000000000000000000000000000000000000000081565b61019d600281565b6102556104d2565b6102b57f000000000000000000000000000000000000000000000000000000000000000081565b6040516001600160a01b0390911681526020016101a7565b6102b57f000000000000000000000000000000000000000000000000000000000000000081565b6103226103023660046119d2565b805160208183018101805160018252928201919093012091525460ff1681565b60405190151581526020016101a7565b6000546001600160a01b03166102b5565b61019d7f000000000000000000000000000000000000000000000000000000000000000081565b610255610378366004611a8f565b6104e6565b61019d600a81565b6102b57f000000000000000000000000000000000000000000000000000000000000000081565b6102556104f9565b6102556103c2366004611afc565b610504565b61019d6103d5366004611bb8565b6105c3565b6102b57f000000000000000000000000000000000000000000000000000000000000000081565b61025561040f366004611856565b6105da565b4283116104685760405162461bcd60e51b815260206004820152601360248201527f72656c656173652073696720657870697265640000000000000000000000000060448201526064015b60405180910390fd5b610475858585858561066a565b6104c15760405162461bcd60e51b815260206004820152601960248201527f696e76616c69642072656c65617365207369676e617475726500000000000000604482015260640161045f565b6104cb858561076c565b5050505050565b6104da610ca4565b6104e46000610cfe565b565b6104f4838383336000610d66565b505050565b6104e433600061076c565b4283116105535760405162461bcd60e51b815260206004820152601160248201527f636c61696d207369672065787069726564000000000000000000000000000000604482015260640161045f565b610560858585858561066a565b6105ac5760405162461bcd60e51b815260206004820152601760248201527f696e76616c696420636c61696d207369676e6174757265000000000000000000604482015260640161045f565b6105b98888888888610d66565b5050505050505050565b600381600481106105d357600080fd5b0154905081565b6105e2610ca4565b6001600160a01b03811661065e5760405162461bcd60e51b815260206004820152602660248201527f4f776e61626c653a206e6577206f776e657220697320746865207a65726f206160448201527f6464726573730000000000000000000000000000000000000000000000000000606482015260840161045f565b61066781610cfe565b50565b6040516bffffffffffffffffffffffff19606087901b1660208201526034810185905260548101849052600090819061070990607401604051602081830303815290604052805190602001206040517f19457468657265756d205369676e6564204d6573736167653a0a3332000000006020820152603c8101829052600090605c01604051602081830303815290604052805190602001209050919050565b9050866001600160a01b031661075785858080601f01602080910402602001604051908101604052809392919081815260200183838082843760009201919091525086939250506110279050565b6001600160a01b031614979650505050505050565b6001600160a01b038216600090815260026020526040812080544292610793600583611be7565b9050600081116107e55760405162461bcd60e51b815260206004820152601560248201527f656d7074792076657374696e672062616c616e63650000000000000000000000604482015260640161045f565b6301e1338083600101546107f99190611c06565b84116108475760405162461bcd60e51b815260206004820152600d60248201527f636c696666206e6f74206d657400000000000000000000000000000000000000604482015260640161045f565b60405163fd11b4d360e01b81524360048201526000907f00000000000000000000000000000000000000000000000000000000000000006001600160a01b03169063fd11b4d390602401602060405180830381865afa1580156108ae573d6000803e3d6000fd5b505050506040513d601f19601f820116820180604052508101906108d29190611c19565b9050600060045b8015610951576108ed816301e13380611be7565b86600101546108fc9190611c06565b87111561093f57600a6003610912600184611c32565b6004811061092257610922611c45565b015461092e9087611be7565b6109389190611c5b565b9150610951565b8061094981611c7d565b9150506108d9565b506000808655600186015560405163a9059cbb60e01b81526001600160a01b038981166004830152602482018390527f0000000000000000000000000000000000000000000000000000000000000000169063a9059cbb906044016020604051808303816000875af11580156109cb573d6000803e3d6000fd5b505050506040513d601f19601f820116820180604052508101906109ef9190611c94565b5086600003610aa7577f00000000000000000000000000000000000000000000000000000000000000006001600160a01b031663a9059cbb89610a32868661104d565b6040516001600160e01b031960e085901b1681526001600160a01b03909216600483015260248201526044016020604051808303816000875af1158015610a7d573d6000803e3d6000fd5b505050506040513d601f19601f82011682018060405250810190610aa19190611c94565b50610c43565b86831015610ae55760405162461bcd60e51b815260206004820152600b60248201526a696e76616c69642066656560a81b604482015260640161045f565b6001600160a01b037f00000000000000000000000000000000000000000000000000000000000000001663a9059cbb89610b28610b228b88611c32565b8661104d565b6040516001600160e01b031960e085901b1681526001600160a01b03909216600483015260248201526044016020604051808303816000875af1158015610b73573d6000803e3d6000fd5b505050506040513d601f19601f82011682018060405250810190610b979190611c94565b507f00000000000000000000000000000000000000000000000000000000000000006001600160a01b031663a9059cbb33610bd28a8661104d565b6040516001600160e01b031960e085901b1681526001600160a01b03909216600483015260248201526044016020604051808303816000875af1158015610c1d573d6000803e3d6000fd5b505050506040513d601f19601f82011682018060405250810190610c419190611c94565b505b336001600160a01b0389167f564bcd5296c80f19443e574bc8f48ef8822058d603f797b6378b907b21403534610c7c610b228b88611c32565b604080519182526020820186905281018b905260600160405180910390a35050505050505050565b6000546001600160a01b031633146104e45760405162461bcd60e51b815260206004820181905260248201527f4f776e61626c653a2063616c6c6572206973206e6f7420746865206f776e6572604482015260640161045f565b600080546001600160a01b038381167fffffffffffffffffffffffff0000000000000000000000000000000000000000831681178455604051919092169283917f8be0079c531659141344cd1fd0a4f28419497f9722a3daafe3b4186f6b6457e09190a35050565b83600181604051610d779190611cda565b9081526040519081900360200190205460ff1615610dd75760405162461bcd60e51b815260206004820152601860248201527f746f6b656e732068617665206265656e20636c61696d65640000000000000000604482015260640161045f565b427f000000000000000000000000000000000000000000000000000000000000000011610e465760405162461bcd60e51b815260206004820152601660248201527f636c61696d20646561646c696e65206578706972656400000000000000000000604482015260640161045f565b6040517f7df590ac0000000000000000000000000000000000000000000000000000000081526001600160a01b037f00000000000000000000000000000000000000000000000000000000000000001690637df590ac90610ecf9086907f0000000000000000000000000000000000000000000000000000000000000000908a90600401611d22565b602060405180830381865afa158015610eec573d6000803e3d6000fd5b505050506040513d601f19601f82011682018060405250810190610f109190611c94565b610f5c5760405162461bcd60e51b815260206004820152601760248201527f6e6f207472757374656420766572696669636174696f6e000000000000000000604482015260640161045f565b6000610f68868661108b565b9050610f95877f0000000000000000000000000000000000000000000000000000000000000000836110be565b610fe15760405162461bcd60e51b815260206004820152600c60248201527f726f6f7420696e76616c69640000000000000000000000000000000000000000604482015260640161045f565b60018087604051610ff29190611cda565b908152604051908190036020019020805491151560ff1990921691909117905561101e848688866110d4565b50505050505050565b600080600061103685856114de565b9150915061104381611523565b5090505b92915050565b60007f000000000000000000000000000000000000000000000000000000000000000061107a8484611be7565b6110849190611c5b565b9392505050565b600082826040516020016110a0929190611d57565b60405160208183030381529060405280519060200120905092915050565b6000826110cb85846116d9565b14949350505050565b60006110e1600585611be7565b905060006110f0600286611c5b565b6001600160a01b0387166000908152600260205260409020868155426001820155909150838310156111525760405162461bcd60e51b815260206004820152600b60248201526a696e76616c69642066656560a81b604482015260640161045f565b60405163a9059cbb60e01b81526001600160a01b038881166004830152602482018490527f0000000000000000000000000000000000000000000000000000000000000000169063a9059cbb906044016020604051808303816000875af11580156111c1573d6000803e3d6000fd5b505050506040513d601f19601f820116820180604052508101906111e59190611c94565b5060405163fd11b4d360e01b81524360048201526000907f00000000000000000000000000000000000000000000000000000000000000006001600160a01b03169063fd11b4d390602401602060405180830381865afa15801561124d573d6000803e3d6000fd5b505050506040513d601f19601f820116820180604052508101906112719190611c19565b905084156113db577f00000000000000000000000000000000000000000000000000000000000000006001600160a01b031663a9059cbb336112b3888561104d565b6040516001600160e01b031960e085901b1681526001600160a01b03909216600483015260248201526044016020604051808303816000875af11580156112fe573d6000803e3d6000fd5b505050506040513d601f19601f820116820180604052508101906113229190611c94565b506001600160a01b037f00000000000000000000000000000000000000000000000000000000000000001663a9059cbb896113666113608989611c32565b8561104d565b6040516001600160e01b031960e085901b1681526001600160a01b03909216600483015260248201526044016020604051808303816000875af11580156113b1573d6000803e3d6000fd5b505050506040513d601f19601f820116820180604052508101906113d59190611c94565b50611486565b7f00000000000000000000000000000000000000000000000000000000000000006001600160a01b031663a9059cbb89611415878561104d565b6040516001600160e01b031960e085901b1681526001600160a01b03909216600483015260248201526044016020604051808303816000875af1158015611460573d6000803e3d6000fd5b505050506040513d601f19601f820116820180604052508101906114849190611c94565b505b876001600160a01b03167f88b8286268c2e65474c8b1182d7ed53744c14615eb940a3d830dc68187a87913876114bc878561104d565b866040516114cc93929190611d79565b60405180910390a25050505050505050565b60008082516041036115145760208301516040840151606085015160001a6115088782858561171e565b9450945050505061151c565b506000905060025b9250929050565b600081600481111561153757611537611d9e565b0361153f5750565b600181600481111561155357611553611d9e565b036115a05760405162461bcd60e51b815260206004820152601860248201527f45434453413a20696e76616c6964207369676e61747572650000000000000000604482015260640161045f565b60028160048111156115b4576115b4611d9e565b036116015760405162461bcd60e51b815260206004820152601f60248201527f45434453413a20696e76616c6964207369676e6174757265206c656e67746800604482015260640161045f565b600381600481111561161557611615611d9e565b0361166d5760405162461bcd60e51b815260206004820152602260248201527f45434453413a20696e76616c6964207369676e6174757265202773272076616c604482015261756560f01b606482015260840161045f565b600481600481111561168157611681611d9e565b036106675760405162461bcd60e51b815260206004820152602260248201527f45434453413a20696e76616c6964207369676e6174757265202776272076616c604482015261756560f01b606482015260840161045f565b600081815b84518110156110435761170a828683815181106116fd576116fd611c45565b602002602001015161180b565b91508061171681611db4565b9150506116de565b6000807f7fffffffffffffffffffffffffffffff5d576e7357a4501ddfe92f46681b20a08311156117555750600090506003611802565b8460ff16601b1415801561176d57508460ff16601c14155b1561177e5750600090506004611802565b6040805160008082526020820180845289905260ff881692820192909252606081018690526080810185905260019060a0016020604051602081039080840390855afa1580156117d2573d6000803e3d6000fd5b5050604051601f1901519150506001600160a01b0381166117fb57600060019250925050611802565b9150600090505b94509492505050565b6000818310611827576000828152602084905260409020611084565b6000838152602083905260409020611084565b80356001600160a01b038116811461185157600080fd5b919050565b60006020828403121561186857600080fd5b6110848261183a565b60008083601f84011261188357600080fd5b50813567ffffffffffffffff81111561189b57600080fd5b60208301915083602082850101111561151c57600080fd5b6000806000806000608086880312156118cb57600080fd5b6118d48661183a565b94506020860135935060408601359250606086013567ffffffffffffffff8111156118fe57600080fd5b61190a88828901611871565b969995985093965092949392505050565b634e487b7160e01b600052604160045260246000fd5b604051601f8201601f1916810167ffffffffffffffff8111828210171561195a5761195a61191b565b604052919050565b600082601f83011261197357600080fd5b813567ffffffffffffffff81111561198d5761198d61191b565b6119a0601f8201601f1916602001611931565b8181528460208386010111156119b557600080fd5b816020850160208301376000918101602001919091529392505050565b6000602082840312156119e457600080fd5b813567ffffffffffffffff8111156119fb57600080fd5b611a0784828501611962565b949350505050565b600082601f830112611a2057600080fd5b8135602067ffffffffffffffff821115611a3c57611a3c61191b565b8160051b611a4b828201611931565b9283528481018201928281019087851115611a6557600080fd5b83870192505b84831015611a8457823582529183019190830190611a6b565b979650505050505050565b600080600060608486031215611aa457600080fd5b833567ffffffffffffffff80821115611abc57600080fd5b611ac887838801611a0f565b94506020860135915080821115611ade57600080fd5b50611aeb86828701611962565b925050604084013590509250925092565b60008060008060008060008060e0898b031215611b1857600080fd5b883567ffffffffffffffff80821115611b3057600080fd5b611b3c8c838d01611a0f565b995060208b0135915080821115611b5257600080fd5b611b5e8c838d01611962565b985060408b01359750611b7360608c0161183a565b965060808b0135955060a08b0135945060c08b0135915080821115611b9757600080fd5b50611ba48b828c01611871565b999c989b5096995094979396929594505050565b600060208284031215611bca57600080fd5b5035919050565b634e487b7160e01b600052601160045260246000fd5b6000816000190483118215151615611c0157611c01611bd1565b500290565b8082018082111561104757611047611bd1565b600060208284031215611c2b57600080fd5b5051919050565b8181038181111561104757611047611bd1565b634e487b7160e01b600052603260045260246000fd5b600082611c7857634e487b7160e01b600052601260045260246000fd5b500490565b600081611c8c57611c8c611bd1565b506000190190565b600060208284031215611ca657600080fd5b8151801515811461108457600080fd5b60005b83811015611cd1578181015183820152602001611cb9565b50506000910152565b60008251611cec818460208701611cb6565b9190910192915050565b60008151808452611d0e816020860160208601611cb6565b601f01601f19169290920160200192915050565b60006001600160a01b03808616835280851660208401525060606040830152611d4e6060830184611cf6565b95945050505050565b60008351611d69818460208801611cb6565b9190910191825250602001919050565b606081526000611d8c6060830186611cf6565b60208301949094525060400152919050565b634e487b7160e01b600052602160045260246000fd5b600060018201611dc657611dc6611bd1565b506001019056fea2646970667358221220f6430c52db41ba043adba4669b56a1a8e52b9758fe5bdf26a02a1fdd8b2a0d9664736f6c63430008100033",
  "linkReferences": {},
  "deployedLinkReferences": {}
}