{
  "_format": "hh-sol-artifact-1",
  "contractName": "EcoClaim",
  "sourceName": "contracts/EcoClaim.sol",
  "abi": [
    {
      "inputs": [
        {
          "internalType": "contract IECO",
          "name": "eco",
          "type": "address"
        },
        {
          "internalType": "contract ERC20",
          "name": "ecoX",
          "type": "address"
        },
        {
          "internalType": "contract EcoID",
          "name": "ecoID",
          "type": "address"
        },
        {
          "internalType": "address",
          "name": "trustedVerifier",
          "type": "address"
        },
        {
          "internalType": "bytes32",
          "name": "merkelRoot",
          "type": "bytes32"
        },
        {
          "internalType": "uint256",
          "name": "proofDepth",
          "type": "uint256"
        }
      ],
      "stateMutability": "nonpayable",
      "type": "constructor"
    },
    {
      "inputs": [],
      "name": "ClaimDeadlineExpired",
      "type": "error"
    },
    {
      "inputs": [],
      "name": "CliffNotMet",
      "type": "error"
    },
    {
      "inputs": [],
      "name": "EmptyVestingBalance",
      "type": "error"
    },
    {
      "inputs": [],
      "name": "InvalidFee",
      "type": "error"
    },
    {
      "inputs": [],
      "name": "InvalidPoints",
      "type": "error"
    },
    {
      "inputs": [],
      "name": "InvalidProof",
      "type": "error"
    },
    {
      "inputs": [],
      "name": "InvalidProofDepth",
      "type": "error"
    },
    {
      "inputs": [],
      "name": "InvalidReleaseCaller",
      "type": "error"
    },
    {
      "inputs": [],
      "name": "InvalidSignature",
      "type": "error"
    },
    {
      "inputs": [],
      "name": "SignatureExpired",
      "type": "error"
    },
    {
      "inputs": [],
      "name": "TokensAlreadyClaimed",
      "type": "error"
    },
    {
      "inputs": [],
      "name": "UnverifiedClaim",
      "type": "error"
    },
    {
      "anonymous": false,
      "inputs": [
        {
          "indexed": false,
          "internalType": "string",
          "name": "socialID",
          "type": "string"
        },
        {
          "indexed": true,
          "internalType": "address",
          "name": "addr",
          "type": "address"
        },
        {
          "indexed": false,
          "internalType": "uint256",
          "name": "eco",
          "type": "uint256"
        },
        {
          "indexed": false,
          "internalType": "uint256",
          "name": "ecox",
          "type": "uint256"
        }
      ],
      "name": "Claim",
      "type": "event"
    },
    {
      "anonymous": false,
      "inputs": [],
      "name": "InitializeEcoClaim",
      "type": "event"
    },
    {
      "anonymous": false,
      "inputs": [
        {
          "indexed": true,
          "internalType": "address",
          "name": "previousOwner",
          "type": "address"
        },
        {
          "indexed": true,
          "internalType": "address",
          "name": "newOwner",
          "type": "address"
        }
      ],
      "name": "OwnershipTransferred",
      "type": "event"
    },
    {
      "anonymous": false,
      "inputs": [
        {
          "indexed": true,
          "internalType": "address",
          "name": "addr",
          "type": "address"
        },
        {
          "indexed": true,
          "internalType": "address",
          "name": "gasPayer",
          "type": "address"
        },
        {
          "indexed": false,
          "internalType": "uint256",
          "name": "ecoBalance",
          "type": "uint256"
        },
        {
          "indexed": false,
          "internalType": "uint256",
          "name": "vestedEcoXBalance",
          "type": "uint256"
        },
        {
          "indexed": false,
          "internalType": "uint256",
          "name": "feeAmount",
          "type": "uint256"
        }
      ],
      "name": "ReleaseVesting",
      "type": "event"
    },
    {
      "inputs": [],
      "name": "CLAIMABLE_PERIOD",
      "outputs": [
        {
          "internalType": "uint256",
          "name": "",
          "type": "uint256"
        }
      ],
      "stateMutability": "view",
      "type": "function"
    },
    {
      "inputs": [],
      "name": "DOMAIN_SEPARATOR",
      "outputs": [
        {
          "internalType": "bytes32",
          "name": "",
          "type": "bytes32"
        }
      ],
      "stateMutability": "view",
      "type": "function"
    },
    {
      "inputs": [],
      "name": "POINTS_MULTIPLIER",
      "outputs": [
        {
          "internalType": "uint256",
          "name": "",
          "type": "uint256"
        }
      ],
      "stateMutability": "view",
      "type": "function"
    },
    {
      "inputs": [],
      "name": "POINTS_TO_ECOX_RATIO",
      "outputs": [
        {
          "internalType": "uint256",
          "name": "",
          "type": "uint256"
        }
      ],
      "stateMutability": "view",
      "type": "function"
    },
    {
      "inputs": [],
      "name": "VESTING_DIVIDER",
      "outputs": [
        {
          "internalType": "uint256",
          "name": "",
          "type": "uint256"
        }
      ],
      "stateMutability": "view",
      "type": "function"
    },
    {
      "inputs": [],
      "name": "VESTING_PERIOD",
      "outputs": [
        {
          "internalType": "uint256",
          "name": "",
          "type": "uint256"
        }
      ],
      "stateMutability": "view",
      "type": "function"
    },
    {
      "inputs": [
        {
          "internalType": "string",
          "name": "",
          "type": "string"
        }
      ],
      "name": "_claimBalances",
      "outputs": [
        {
          "internalType": "address",
          "name": "recipient",
          "type": "address"
        },
        {
          "internalType": "uint256",
          "name": "points",
          "type": "uint256"
        },
        {
          "internalType": "uint256",
          "name": "claimTime",
          "type": "uint256"
        }
      ],
      "stateMutability": "view",
      "type": "function"
    },
    {
      "inputs": [],
      "name": "_claimableEndTime",
      "outputs": [
        {
          "internalType": "uint256",
          "name": "",
          "type": "uint256"
        }
      ],
      "stateMutability": "view",
      "type": "function"
    },
    {
      "inputs": [
        {
          "internalType": "string",
          "name": "",
          "type": "string"
        }
      ],
      "name": "_claimedBalances",
      "outputs": [
        {
          "internalType": "bool",
          "name": "",
          "type": "bool"
        }
      ],
      "stateMutability": "view",
      "type": "function"
    },
    {
      "inputs": [],
      "name": "_deployTimestamp",
      "outputs": [
        {
          "internalType": "uint256",
          "name": "",
          "type": "uint256"
        }
      ],
      "stateMutability": "view",
      "type": "function"
    },
    {
      "inputs": [],
      "name": "_eco",
      "outputs": [
        {
          "internalType": "contract IECO",
          "name": "",
          "type": "address"
        }
      ],
      "stateMutability": "view",
      "type": "function"
    },
    {
      "inputs": [],
      "name": "_ecoID",
      "outputs": [
        {
          "internalType": "contract EcoID",
          "name": "",
          "type": "address"
        }
      ],
      "stateMutability": "view",
      "type": "function"
    },
    {
      "inputs": [],
      "name": "_ecoX",
      "outputs": [
        {
          "internalType": "contract ERC20",
          "name": "",
          "type": "address"
        }
      ],
      "stateMutability": "view",
      "type": "function"
    },
    {
      "inputs": [],
      "name": "_initialInflationMultiplier",
      "outputs": [
        {
          "internalType": "uint256",
          "name": "",
          "type": "uint256"
        }
      ],
      "stateMutability": "view",
      "type": "function"
    },
    {
      "inputs": [],
      "name": "_pointsMerkleRoot",
      "outputs": [
        {
          "internalType": "bytes32",
          "name": "",
          "type": "bytes32"
        }
      ],
      "stateMutability": "view",
      "type": "function"
    },
    {
      "inputs": [],
      "name": "_proofDepth",
      "outputs": [
        {
          "internalType": "uint256",
          "name": "",
          "type": "uint256"
        }
      ],
      "stateMutability": "view",
      "type": "function"
    },
    {
      "inputs": [],
      "name": "_trustedVerifier",
      "outputs": [
        {
          "internalType": "address",
          "name": "",
          "type": "address"
        }
      ],
      "stateMutability": "view",
      "type": "function"
    },
    {
      "inputs": [
        {
          "internalType": "uint256",
          "name": "",
          "type": "uint256"
        }
      ],
      "name": "_vestedMultiples",
      "outputs": [
        {
          "internalType": "uint256",
          "name": "",
          "type": "uint256"
        }
      ],
      "stateMutability": "view",
      "type": "function"
    },
    {
      "inputs": [
        {
          "internalType": "bytes32[]",
          "name": "proof",
          "type": "bytes32[]"
        },
        {
          "internalType": "string",
          "name": "socialID",
          "type": "string"
        },
        {
          "internalType": "uint256",
          "name": "points",
          "type": "uint256"
        }
      ],
      "name": "claimTokens",
      "outputs": [],
      "stateMutability": "nonpayable",
      "type": "function"
    },
    {
      "inputs": [
        {
          "internalType": "bytes32[]",
          "name": "proof",
          "type": "bytes32[]"
        },
        {
          "internalType": "string",
          "name": "socialID",
          "type": "string"
        },
        {
          "internalType": "uint256",
          "name": "points",
          "type": "uint256"
        },
        {
          "internalType": "address",
          "name": "recipient",
          "type": "address"
        },
        {
          "internalType": "uint256",
          "name": "feeAmount",
          "type": "uint256"
        },
        {
          "internalType": "uint256",
          "name": "deadline",
          "type": "uint256"
        },
        {
          "internalType": "bytes",
          "name": "recipientSig",
          "type": "bytes"
        }
      ],
      "name": "claimTokensOnBehalf",
      "outputs": [],
      "stateMutability": "nonpayable",
      "type": "function"
    },
    {
      "inputs": [
        {
          "internalType": "string",
          "name": "socialID",
          "type": "string"
        }
      ],
      "name": "nonces",
      "outputs": [
        {
          "internalType": "uint256",
          "name": "",
          "type": "uint256"
        }
      ],
      "stateMutability": "view",
      "type": "function"
    },
    {
      "inputs": [],
      "name": "owner",
      "outputs": [
        {
          "internalType": "address",
          "name": "",
          "type": "address"
        }
      ],
      "stateMutability": "view",
      "type": "function"
    },
    {
      "inputs": [
        {
          "internalType": "string",
          "name": "socialID",
          "type": "string"
        }
      ],
      "name": "releaseTokens",
      "outputs": [],
      "stateMutability": "nonpayable",
      "type": "function"
    },
    {
      "inputs": [
        {
          "internalType": "string",
          "name": "socialID",
          "type": "string"
        },
        {
          "internalType": "address",
          "name": "recipient",
          "type": "address"
        },
        {
          "internalType": "uint256",
          "name": "feeAmount",
          "type": "uint256"
        },
        {
          "internalType": "uint256",
          "name": "deadline",
          "type": "uint256"
        },
        {
          "internalType": "bytes",
          "name": "recipientSig",
          "type": "bytes"
        }
      ],
      "name": "releaseTokensOnBehalf",
      "outputs": [],
      "stateMutability": "nonpayable",
      "type": "function"
    },
    {
      "inputs": [],
      "name": "renounceOwnership",
      "outputs": [],
      "stateMutability": "nonpayable",
      "type": "function"
    },
    {
      "inputs": [
        {
          "internalType": "address",
          "name": "newOwner",
          "type": "address"
        }
      ],
      "name": "transferOwnership",
      "outputs": [],
      "stateMutability": "nonpayable",
      "type": "function"
    }
  ],
  "bytecode": "0x6102608060405234620004805760c081620028cc8038038091620000248285620004fb565b833981010312620004805780516001600160a01b03908181168103620004805760208301519082821682036200048057604084015193838516850362000480576060810151908482168203620004805760a0608082015191015191604051966200008e88620004df565b6008885260208801976745636f436c61696d60c01b895260016020604051620000b781620004df565b8281520199603160f81b8b526000549233838060a01b0319851617600055604051938b3391167f8be0079c531659141344cd1fd0a4f28419497f9722a3daafe3b4186f6b6457e0600087a35190209920908960e05261010099828b524660a05260208201927f8b73c3c69bb8fe3d512ecc4cf759cc79239f7b179b0ffacaa9a75d522b39400f91828552604084015260608301524660808301523060a083015260a0825260018060401b03928260c08101108460c085011117620004c95760c08301604052825190206080523060c052610120526103c081019160c08201831090831117620004c95760c091604052600582820152600560e082015260058a82015260056101208201526005610140820152600f610160820152600f610180820152600f6101a0820152600f6101c0820152600f6101e0820152600f610200820152600f610220820152600f610240820152600f610260820152600f610280820152600f6102a0820152600f6102c08201526019806102e08301528061030083015280610320830152806103408301528061036083015261038082015260236103a08201520160005b60188110620004b0575050426101e0526301e13380420142116200049a576020956301e1338042016102005285610180526101a0526101c05261022052610140526101605260246040518094819363fd11b4d360e01b8352436004840152165afa9081156200048e5760009162000451575b50610240526040517fb8ed2afdffb5b047fb7bd6eb7477cf38018b19f1906209c146b31f63ed2eaba9600082a16123ac918262000520833960805182611ed8015260a05182611fa4015260c05182611ea9015260e05182611f2701525181611f4d01526101205181611f0401526101405181818161104c015281816116ee01526119ea0152610160518181816106cd01528181610edf01526115e801526101805181818161023b015281816108cb01528181610a0501528181610b4001528181610bb00152818161116b015281816117e60152611b1e01526101a0518181816102e001528181610961015281816111330152818161152301526117b601526101c05181818161069101528181610f90015261167e01526101e05181611c3b015261020051818181610eb6015281816115bf0152611be1015261022051818181610f5f015281816116540152611ada015261024051818181610325015281816109ab01528181610ae0015281816111d8015281816118470152611c990152f35b90506020813d60201162000485575b816200046f60209383620004fb565b8101031262000480575138620002d2565b600080fd5b3d915062000460565b6040513d6000823e3d90fd5b634e487b7160e01b600052601160045260246000fd5b600190602060ff84511693019281600401550162000260565b634e487b7160e01b600052604160045260246000fd5b604081019081106001600160401b03821117620004c957604052565b601f909101601f19168101906001600160401b03821190821017620004c95760405256fe608080604052600436101561001357600080fd5b60003560e01c9081630197d97214611cbc57508063043997f214611c815780633644e51514611c5e57806347ba89cc14611c2357806352bff4c014611c0457806369649d9314611bc95780636b6adc4f14611bad578063715018a614611b425780637236aa3214611afe5780637e3565f514611aba57806382c5c6dc14611a6c5780638da5cb5b14611a455780638f2203f614611a295780639e568c4914611a0d578063a0b99867146119d2578063a45ac56b14611547578063a66318f414611503578063b24fce88146114b1578063b2aec85814610d71578063b39f225b1461071c578063b8a8545e146106f0578063ba997021146106b5578063dbf7e00114610671578063f2fde38b14610586578063fb7426f6146101ad5763fe8566751461013d57600080fd5b346101a85761014b36611d73565b60405181519160005b8381106101955760608360208187810160028152030190206001600160a01b0381541690600260018201549101549060405192835260208301526040820152f35b8060208092840101518185015201610154565b600080fd5b346101a8576020806003193601126101a85760043567ffffffffffffffff81116101a8576101e082913690600401611e19565b9190826040519384928337810160028152030190206001600160a01b0333818354160361055c576001820180549261021784611fca565b908115610532576002019081549162278d00830180841161051c5742106104f257847f000000000000000000000000000000000000000000000000000000000000000016936040519363fd11b4d360e01b85524360048601526024898682818a5afa9586156103fa576000966104c3575b50600098601880805b610423575b50505050509060008092555560405193868563a9059cbb60e01b92838252816000816102dc8c3360048401602090939291936001600160a01b0360408201951681520152565b03927f0000000000000000000000000000000000000000000000000000000000000000165af19081156103fa5761036f958892610406575b5061031f8385612010565b9461034b7f0000000000000000000000000000000000000000000000000000000000000000809761205c565b60405192835233600484015260248301529095869190829060009082906044820190565b03925af19182156103fa576103929461038d936103cd575b50612010565b61205c565b916040519283528201526000604082015233907f564bcd5296c80f19443e574bc8f48ef8822058d603f797b6378b907b2140353460603392a3005b6103ec90883d8a116103f3575b6103e48183611d0a565b810190612023565b5087610387565b503d6103da565b6040513d6000823e3d90fd5b61041c90833d85116103f3576103e48183611d0a565b5088610314565b61043561042f82611fe0565b86612089565b421161046057801561044b576000190180610291565b83634e487b7160e01b60005260116004526000fd5b93509093995060001983018381116104ae57101561049a5750600a61048e6000949360038694015490612010565b049791928a8080610296565b634e487b7160e01b60005260326004526000fd5b82634e487b7160e01b60005260116004526000fd5b9095508981813d83116104eb575b6104db8183611d0a565b810103126101a85751948a610288565b503d6104d1565b60046040517f2850f23b000000000000000000000000000000000000000000000000000000008152fd5b634e487b7160e01b600052601160045260246000fd5b60046040517f78851794000000000000000000000000000000000000000000000000000000008152fd5b60046040517fc13ae97c000000000000000000000000000000000000000000000000000000008152fd5b346101a85760203660031901126101a8576004356001600160a01b038082168092036101a8576105b4611e47565b8115610607576000918254918173ffffffffffffffffffffffffffffffffffffffff19841617845560405192167f8be0079c531659141344cd1fd0a4f28419497f9722a3daafe3b4186f6b6457e08484a3f35b608460405162461bcd60e51b815260206004820152602660248201527f4f776e61626c653a206e6577206f776e657220697320746865207a65726f206160448201527f64647265737300000000000000000000000000000000000000000000000000006064820152fd5b346101a85760003660031901126101a85760206040516001600160a01b037f0000000000000000000000000000000000000000000000000000000000000000168152f35b346101a85760003660031901126101a85760206040517f00000000000000000000000000000000000000000000000000000000000000008152f35b346101a85760203660031901126101a85760043560188110156101a85760209060040154604051908152f35b346101a85760a03660031901126101a85767ffffffffffffffff6004358181116101a85761074e903690600401611e19565b916001600160a01b0360243516602435036101a8576084359081116101a85761077b903690600401611e19565b906064354211610d47576108329161082461082a9261081c61079d8888612354565b6107a8368a8a611d2c565b60208151910120906040519060208201927fe34059c0ab77b442f7a1dc6f099920837ee8df72894742a7b84c41e438b4d8aa845260408301526001600160a01b03602435166060830152604435608083015260643560a083015260c082015260c0815261081481611cd8565b5190206122f1565b923691611d2c565b90612204565b919091612096565b6001600160a01b038060243516911603610d1d57602090826040519384928337810160028152030190206001600160a01b03602435166001600160a01b038254160361055c5760018101549061088782611fca565b9081156105325760028101549062278d00820180831161051c5742106104f2576040519163fd11b4d360e01b83524360048401526020836024816001600160a01b037f0000000000000000000000000000000000000000000000000000000000000000165afa9283156103fa57600093610ce9575b506000946018805b610c74575b505050600281600060018194015501556040519063a9059cbb60e01b91828152602081806109538860243560048401602090939291936001600160a01b0360408201951681520152565b038160006001600160a01b037f0000000000000000000000000000000000000000000000000000000000000000165af180156103fa57610c55575b50604435610ab75760206109f7926109d06109a98685612010565b7f00000000000000000000000000000000000000000000000000000000000000009061205c565b604051918252602480356001600160a01b0316600484015282015292839081906044820190565b038160006001600160a01b037f0000000000000000000000000000000000000000000000000000000000000000165af180156103fa57610a4f936109a993610a4992610a98575b505b6044359061207c565b90612010565b906040519182526020820152604435604082015233907f564bcd5296c80f19443e574bc8f48ef8822058d603f797b6378b907b2140353460606001600160a01b036024351692a3005b610ab09060203d6020116103f3576103e48183611d0a565b5086610a3e565b8260443511610c2b57610b32610ad8610ad26044358661207c565b83612010565b926020610b067f0000000000000000000000000000000000000000000000000000000000000000809661205c565b6040518094819285835260243560048401602090939291936001600160a01b0360408201951681520152565b038160006001600160a01b037f0000000000000000000000000000000000000000000000000000000000000000165af180156103fa57610ba294602093610b8592610c0e575b5061038d60443586612010565b604051918252336004830152602482015292839081906044820190565b038160006001600160a01b037f0000000000000000000000000000000000000000000000000000000000000000165af180156103fa57610a4f936109a993610a4992610bef575b50610a40565b610c079060203d6020116103f3576103e48183611d0a565b5086610be9565b610c2490853d87116103f3576103e48183611d0a565b5088610b78565b60046040517f58d620b3000000000000000000000000000000000000000000000000000000008152fd5b610c6d9060203d6020116103f3576103e48183611d0a565b508461098e565b610c86610c8082611fe0565b84612089565b4211610c9c57801561051c576000190180610904565b9150919450600019810181811161051c5760181115610cd357600a610cca6000936003600294015490612010565b04949186610909565b634e487b7160e01b600052603260045260246000fd5b9092506020813d602011610d15575b81610d0560209383611d0a565b810103126101a8575191856108fc565b3d9150610cf8565b60046040517f8baa579f000000000000000000000000000000000000000000000000000000008152fd5b60046040517f0819bdcd000000000000000000000000000000000000000000000000000000008152fd5b346101a85760e03660031901126101a85767ffffffffffffffff6004358181116101a857610da3903690600401611db2565b906024358181116101a857610dbc903690600401611e19565b9290916001600160a01b0360643516606435036101a85760a4359060c4359081116101a857610def903690600401611e19565b824211610d475761082461082a9261081c610e8395610e0e8a8a612354565b90610e1a368c8c611d2c565b60208151910120916040519160208301937f0eeee0a948a8f4fc92fb4b5e76ebbbdc8b0b87caf4aee538beb574e0cf41127f855260408401526001600160a01b03606435166060840152608435608084015260a083015260c082015260c0815261081481611cd8565b6001600160a01b038060643516911603610d1d5760ff6040518484823760208186810160018152030190205416611487577f0000000000000000000000000000000000000000000000000000000000000000421161145d5780517f000000000000000000000000000000000000000000000000000000000000000003611433576044351561140957610f16604435611fca565b60843511610c2b57604051632b7e065160e11b81526001600160a01b036064351660048201526060602482015260208180610f5560648201888861203b565b6001600160a01b037f000000000000000000000000000000000000000000000000000000000000000016604483015203816001600160a01b037f0000000000000000000000000000000000000000000000000000000000000000165afa9081156103fa576000916113ea575b50156113c057604051602081019084848337610ff26040828781016044356020820152036020810184520182611d0a565b519020916000925b82518410156110485760208460051b84010151908181106000146110375760005260205260406000205b92600019811461051c5760010192610ffa565b906000526020526040600020611024565b84907f00000000000000000000000000000000000000000000000000000000000000000361139657604051818382376020818381016001815203019020600160ff1982541617905561109b604435611fca565b9060443560011c6040518285823760208184810160028152030190206001600160a01b036064351673ffffffffffffffffffffffffffffffffffffffff1982541617815560443560018201556002429101558260843511610c2b5760405163a9059cbb60e01b8082526001600160a01b0360643516600483015260248201839052906020818060448101038160006001600160a01b037f0000000000000000000000000000000000000000000000000000000000000000165af180156103fa57611377575b506001600160a01b037f0000000000000000000000000000000000000000000000000000000000000000166040519163fd11b4d360e01b8352436004840152602083602481855afa9283156103fa57600093611343575b506084351561132f5761121e906111d060843585612010565b9260206111fe7f0000000000000000000000000000000000000000000000000000000000000000809661205c565b604051848152336004820152602481019190915293849081906044820190565b03816000855af180156103fa576112809460209461125192611312575b5061038d61124b6084358c61207c565b88612010565b6040519283526001600160a01b0360643516600484015260248301529092839190829060009082906044820190565b03925af180156103fa577f88b8286268c2e65474c8b1182d7ed53744c14615eb940a3d830dc68187a87913956112d5936112c2936109a9936112f35750612010565b946040519360608552606085019161203b565b9360208301526040820152806001600160a01b0360643516930390a2005b61130b9060203d6020116103f3576103e48183611d0a565b5089610387565b61132890863d88116103f3576103e48183611d0a565b508b61123b565b602090611280926112516109a98987612010565b9092506020813d60201161136f575b8161135f60209383611d0a565b810103126101a8575191876111b7565b3d9150611352565b61138f9060203d6020116103f3576103e48183611d0a565b5085611160565b60046040517f09bde339000000000000000000000000000000000000000000000000000000008152fd5b60046040517feef1a554000000000000000000000000000000000000000000000000000000008152fd5b611403915060203d6020116103f3576103e48183611d0a565b84610fc1565b60046040517f86efec48000000000000000000000000000000000000000000000000000000008152fd5b60046040517f200afff5000000000000000000000000000000000000000000000000000000008152fd5b60046040517fc4560cae000000000000000000000000000000000000000000000000000000008152fd5b60046040517fa4f81929000000000000000000000000000000000000000000000000000000008152fd5b346101a85760203660031901126101a85760043567ffffffffffffffff81116101a85760206114e581923690600401611e19565b91908260405193849283378101600381520301902054604051908152f35b346101a85760003660031901126101a85760206040516001600160a01b037f0000000000000000000000000000000000000000000000000000000000000000168152f35b346101a85760603660031901126101a85767ffffffffffffffff6004358181116101a857611579903690600401611db2565b9060249081359081116101a857611594903690600401611e19565b906044359060405194838287378386019460ff876001978881526020998a91030190205416611487577f0000000000000000000000000000000000000000000000000000000000000000421161145d5781517f0000000000000000000000000000000000000000000000000000000000000000036114335783156114095761161b84611fca565b5060405191632b7e065160e11b835233600484015260608284015261164460648401878661203b565b928881806001600160a01b0396877f00000000000000000000000000000000000000000000000000000000000000001660448301520381877f0000000000000000000000000000000000000000000000000000000000000000165afa9081156103fa576000916119b5575b50156113c0578660405189810190888783376116dd6040828d8b8d830191820152038d810184520182611d0a565b519020916000915b611962575b50507f00000000000000000000000000000000000000000000000000000000000000000361139657604051858482378781878101898152030190208660ff1982541617905561173884611fca565b9584811c946040518786823789818981016002815203019020913373ffffffffffffffffffffffffffffffffffffffff198454161783558201556002429101556040519163a9059cbb60e01b928381528881806117af893360048401602090939291936001600160a01b0360408201951681520152565b03816000867f0000000000000000000000000000000000000000000000000000000000000000165af180156103fa57611945575b507f00000000000000000000000000000000000000000000000000000000000000001687604051809363fd11b4d360e01b825243600483015281845afa9182156103fa578890600093611914575b5082936118418961189195612010565b9261186d7f0000000000000000000000000000000000000000000000000000000000000000809561205c565b60405192835233600484015260248301529093849190829060009082906044820190565b03925af180156103fa577f88b8286268c2e65474c8b1182d7ed53744c14615eb940a3d830dc68187a87913976118e6946118d39461038d936118f75750612010565b916040519460608652606086019161203b565b9483015260408201528033930390a2005b61190d908c8d3d106103f3576103e48183611d0a565b508b610387565b809350813d831161193e575b61192a8183611d0a565b810103126101a85787611891925192611831565b503d611920565b61195b90893d8b116103f3576103e48183611d0a565b50886117e3565b909181518310156119af57898360051b830101519081811060001461199f57600052895260406000205b91600019811461044b57880190886116e5565b906000528952604060002061198c565b916116ea565b6119cc9150893d8b116103f3576103e48183611d0a565b896116af565b346101a85760003660031901126101a85760206040517f00000000000000000000000000000000000000000000000000000000000000008152f35b346101a85760003660031901126101a8576020604051600a8152f35b346101a85760003660031901126101a857602060405160058152f35b346101a85760003660031901126101a85760206001600160a01b0360005416604051908152f35b346101a8576020611a7c36611d73565b60405181519160005b838110611aa9575050828160ff938101600181520301902054166040519015158152f35b818101850151838201528401611a85565b346101a85760003660031901126101a85760206040516001600160a01b037f0000000000000000000000000000000000000000000000000000000000000000168152f35b346101a85760003660031901126101a85760206040516001600160a01b037f0000000000000000000000000000000000000000000000000000000000000000168152f35b346101a85760003660031901126101a857611b5b611e47565b6000805473ffffffffffffffffffffffffffffffffffffffff1981168255816001600160a01b0360405192167f8be0079c531659141344cd1fd0a4f28419497f9722a3daafe3b4186f6b6457e08284a3f35b346101a85760003660031901126101a857602060405160028152f35b346101a85760003660031901126101a85760206040517f00000000000000000000000000000000000000000000000000000000000000008152f35b346101a85760003660031901126101a85760206040516301e133808152f35b346101a85760003660031901126101a85760206040517f00000000000000000000000000000000000000000000000000000000000000008152f35b346101a85760003660031901126101a8576020611c79611e9f565b604051908152f35b346101a85760003660031901126101a85760206040517f00000000000000000000000000000000000000000000000000000000000000008152f35b346101a85760003660031901126101a8578062278d0060209252f35b60e0810190811067ffffffffffffffff821117611cf457604052565b634e487b7160e01b600052604160045260246000fd5b90601f8019910116810190811067ffffffffffffffff821117611cf457604052565b92919267ffffffffffffffff8211611cf45760405191611d56601f8201601f191660200184611d0a565b8294818452818301116101a8578281602093846000960137010152565b60206003198201126101a8576004359067ffffffffffffffff82116101a857806023830112156101a857816024611daf93600401359101611d2c565b90565b9080601f830112156101a85781359067ffffffffffffffff8211611cf4578160051b60405193602093611de785840187611d0a565b855283808601928201019283116101a8578301905b828210611e0a575050505090565b81358152908301908301611dfc565b9181601f840112156101a85782359167ffffffffffffffff83116101a857602083818601950101116101a857565b6001600160a01b03600054163303611e5b57565b606460405162461bcd60e51b815260206004820152602060248201527f4f776e61626c653a2063616c6c6572206973206e6f7420746865206f776e65726044820152fd5b6001600160a01b037f000000000000000000000000000000000000000000000000000000000000000016301480611fa1575b15611efa577f000000000000000000000000000000000000000000000000000000000000000090565b60405160208101907f000000000000000000000000000000000000000000000000000000000000000082527f000000000000000000000000000000000000000000000000000000000000000060408201527f000000000000000000000000000000000000000000000000000000000000000060608201524660808201523060a082015260a0815260c0810181811067ffffffffffffffff821117611cf45760405251902090565b507f00000000000000000000000000000000000000000000000000000000000000004614611ed1565b80600019046005118115151661051c5760050290565b7d0679024d03d1605b6d407fd5ed710b672f0dadb9dcc11178a135e14e2716811160011661051c5762278d000290565b806000190482118115151661051c570290565b908160209103126101a8575180151581036101a85790565b908060209392818452848401376000828201840152601f01601f1916010190565b8115612066570490565b634e487b7160e01b600052601260045260246000fd5b9190820391821161051c57565b9190820180921161051c57565b60058110156121ee57806120a75750565b600181036120f357606460405162461bcd60e51b815260206004820152601860248201527f45434453413a20696e76616c6964207369676e617475726500000000000000006044820152fd5b6002810361213f57606460405162461bcd60e51b815260206004820152601f60248201527f45434453413a20696e76616c6964207369676e6174757265206c656e677468006044820152fd5b6003810361219657608460405162461bcd60e51b815260206004820152602260248201527f45434453413a20696e76616c6964207369676e6174757265202773272076616c604482015261756560f01b6064820152fd5b60041461219f57565b608460405162461bcd60e51b815260206004820152602260248201527f45434453413a20696e76616c6964207369676e6174757265202776272076616c604482015261756560f01b6064820152fd5b634e487b7160e01b600052602160045260246000fd5b9060418151146000146122325761222e916020820151906060604084015193015160001a9061223c565b9091565b5050600090600290565b9291907f7fffffffffffffffffffffffffffffff5d576e7357a4501ddfe92f46681b20a083116122e55760ff16601b811415806122da575b6122ce579160809493916020936040519384528484015260408301526060820152600093849182805260015afa156122c15781516001600160a01b038116156122bb579190565b50600190565b50604051903d90823e3d90fd5b50505050600090600490565b50601c811415612274565b50505050600090600390565b6122f9611e9f565b906040519060208201927f1901000000000000000000000000000000000000000000000000000000000000845260228301526042820152604281526080810181811067ffffffffffffffff821117611cf45760405251902090565b602090826040519384928337810160038152030190209081549160018301905556fea2646970667358221220493b2594c40cb11ce54bd55b1159c93cc428ce5bd714902c7b0854e3052b338d64736f6c63430008100033",
  "linkReferences": {},
  "deployedLinkReferences": {}
}