{
  "_format": "hh-sol-artifact-1",
  "contractName": "EcoClaim",
  "sourceName": "contracts/EcoClaim.sol",
  "abi": [
    {
      "inputs": [
        {
          "internalType": "contract IECO",
          "name": "eco",
          "type": "address"
        },
        {
          "internalType": "contract ERC20",
          "name": "ecoX",
          "type": "address"
        },
        {
          "internalType": "contract EcoNFT",
          "name": "nft",
          "type": "address"
        },
        {
          "internalType": "address",
          "name": "trustedVerifier",
          "type": "address"
        },
        {
          "internalType": "bytes32",
          "name": "merkelRoot",
          "type": "bytes32"
        },
        {
          "internalType": "uint256",
          "name": "proofDepth",
          "type": "uint256"
        }
      ],
      "stateMutability": "nonpayable",
      "type": "constructor"
    },
    {
      "inputs": [],
      "name": "ClaimDeadlineExpired",
      "type": "error"
    },
    {
      "inputs": [],
      "name": "CliffNotMet",
      "type": "error"
    },
    {
      "inputs": [],
      "name": "EmptyVestingBalance",
      "type": "error"
    },
    {
      "inputs": [],
      "name": "InvalidFee",
      "type": "error"
    },
    {
      "inputs": [],
      "name": "InvalidPoints",
      "type": "error"
    },
    {
      "inputs": [],
      "name": "InvalidProof",
      "type": "error"
    },
    {
      "inputs": [],
      "name": "InvalidProofDepth",
      "type": "error"
    },
    {
      "inputs": [],
      "name": "InvalidReleaseCaller",
      "type": "error"
    },
    {
      "inputs": [],
      "name": "InvalidSignature",
      "type": "error"
    },
    {
      "inputs": [],
      "name": "SignatureExpired",
      "type": "error"
    },
    {
      "inputs": [],
      "name": "TokensAlreadyClaimed",
      "type": "error"
    },
    {
      "inputs": [],
      "name": "UnverifiedClaim",
      "type": "error"
    },
    {
      "anonymous": false,
      "inputs": [
        {
          "indexed": false,
          "internalType": "string",
          "name": "socialID",
          "type": "string"
        },
        {
          "indexed": true,
          "internalType": "address",
          "name": "addr",
          "type": "address"
        },
        {
          "indexed": false,
          "internalType": "uint256",
          "name": "eco",
          "type": "uint256"
        },
        {
          "indexed": false,
          "internalType": "uint256",
          "name": "ecox",
          "type": "uint256"
        }
      ],
      "name": "Claim",
      "type": "event"
    },
    {
      "anonymous": false,
      "inputs": [],
      "name": "InitializeEcoClaim",
      "type": "event"
    },
    {
      "anonymous": false,
      "inputs": [
        {
          "indexed": true,
          "internalType": "address",
          "name": "previousOwner",
          "type": "address"
        },
        {
          "indexed": true,
          "internalType": "address",
          "name": "newOwner",
          "type": "address"
        }
      ],
      "name": "OwnershipTransferred",
      "type": "event"
    },
    {
      "anonymous": false,
      "inputs": [
        {
          "indexed": true,
          "internalType": "address",
          "name": "addr",
          "type": "address"
        },
        {
          "indexed": true,
          "internalType": "address",
          "name": "gasPayer",
          "type": "address"
        },
        {
          "indexed": false,
          "internalType": "uint256",
          "name": "ecoBalance",
          "type": "uint256"
        },
        {
          "indexed": false,
          "internalType": "uint256",
          "name": "vestedEcoXBalance",
          "type": "uint256"
        },
        {
          "indexed": false,
          "internalType": "uint256",
          "name": "feeAmount",
          "type": "uint256"
        }
      ],
      "name": "ReleaseVesting",
      "type": "event"
    },
    {
      "inputs": [],
      "name": "CLAIMABLE_PERIOD",
      "outputs": [
        {
          "internalType": "uint256",
          "name": "",
          "type": "uint256"
        }
      ],
      "stateMutability": "view",
      "type": "function"
    },
    {
      "inputs": [],
      "name": "DOMAIN_SEPARATOR",
      "outputs": [
        {
          "internalType": "bytes32",
          "name": "",
          "type": "bytes32"
        }
      ],
      "stateMutability": "view",
      "type": "function"
    },
    {
      "inputs": [],
      "name": "POINTS_MULTIPLIER",
      "outputs": [
        {
          "internalType": "uint256",
          "name": "",
          "type": "uint256"
        }
      ],
      "stateMutability": "view",
      "type": "function"
    },
    {
      "inputs": [],
      "name": "POINTS_TO_ECOX_RATIO",
      "outputs": [
        {
          "internalType": "uint256",
          "name": "",
          "type": "uint256"
        }
      ],
      "stateMutability": "view",
      "type": "function"
    },
    {
      "inputs": [],
      "name": "VESTING_DIVIDER",
      "outputs": [
        {
          "internalType": "uint256",
          "name": "",
          "type": "uint256"
        }
      ],
      "stateMutability": "view",
      "type": "function"
    },
    {
      "inputs": [],
      "name": "VESTING_PERIOD",
      "outputs": [
        {
          "internalType": "uint256",
          "name": "",
          "type": "uint256"
        }
      ],
      "stateMutability": "view",
      "type": "function"
    },
    {
      "inputs": [
        {
          "internalType": "string",
          "name": "",
          "type": "string"
        }
      ],
      "name": "_claimBalances",
      "outputs": [
        {
          "internalType": "address",
          "name": "recipient",
          "type": "address"
        },
        {
          "internalType": "uint256",
          "name": "points",
          "type": "uint256"
        },
        {
          "internalType": "uint256",
          "name": "claimTime",
          "type": "uint256"
        }
      ],
      "stateMutability": "view",
      "type": "function"
    },
    {
      "inputs": [],
      "name": "_claimableEndTime",
      "outputs": [
        {
          "internalType": "uint256",
          "name": "",
          "type": "uint256"
        }
      ],
      "stateMutability": "view",
      "type": "function"
    },
    {
      "inputs": [
        {
          "internalType": "string",
          "name": "",
          "type": "string"
        }
      ],
      "name": "_claimedBalances",
      "outputs": [
        {
          "internalType": "bool",
          "name": "",
          "type": "bool"
        }
      ],
      "stateMutability": "view",
      "type": "function"
    },
    {
      "inputs": [],
      "name": "_deployTimestamp",
      "outputs": [
        {
          "internalType": "uint256",
          "name": "",
          "type": "uint256"
        }
      ],
      "stateMutability": "view",
      "type": "function"
    },
    {
      "inputs": [],
      "name": "_eco",
      "outputs": [
        {
          "internalType": "contract IECO",
          "name": "",
          "type": "address"
        }
      ],
      "stateMutability": "view",
      "type": "function"
    },
    {
      "inputs": [],
      "name": "_ecoNft",
      "outputs": [
        {
          "internalType": "contract EcoNFT",
          "name": "",
          "type": "address"
        }
      ],
      "stateMutability": "view",
      "type": "function"
    },
    {
      "inputs": [],
      "name": "_ecoX",
      "outputs": [
        {
          "internalType": "contract ERC20",
          "name": "",
          "type": "address"
        }
      ],
      "stateMutability": "view",
      "type": "function"
    },
    {
      "inputs": [],
      "name": "_initialInflationMultiplier",
      "outputs": [
        {
          "internalType": "uint256",
          "name": "",
          "type": "uint256"
        }
      ],
      "stateMutability": "view",
      "type": "function"
    },
    {
      "inputs": [],
      "name": "_pointsMerkleRoot",
      "outputs": [
        {
          "internalType": "bytes32",
          "name": "",
          "type": "bytes32"
        }
      ],
      "stateMutability": "view",
      "type": "function"
    },
    {
      "inputs": [],
      "name": "_proofDepth",
      "outputs": [
        {
          "internalType": "uint256",
          "name": "",
          "type": "uint256"
        }
      ],
      "stateMutability": "view",
      "type": "function"
    },
    {
      "inputs": [],
      "name": "_trustedVerifier",
      "outputs": [
        {
          "internalType": "address",
          "name": "",
          "type": "address"
        }
      ],
      "stateMutability": "view",
      "type": "function"
    },
    {
      "inputs": [
        {
          "internalType": "uint256",
          "name": "",
          "type": "uint256"
        }
      ],
      "name": "_vestedMultiples",
      "outputs": [
        {
          "internalType": "uint256",
          "name": "",
          "type": "uint256"
        }
      ],
      "stateMutability": "view",
      "type": "function"
    },
    {
      "inputs": [
        {
          "internalType": "bytes32[]",
          "name": "proof",
          "type": "bytes32[]"
        },
        {
          "internalType": "string",
          "name": "socialID",
          "type": "string"
        },
        {
          "internalType": "uint256",
          "name": "points",
          "type": "uint256"
        }
      ],
      "name": "claimTokens",
      "outputs": [],
      "stateMutability": "nonpayable",
      "type": "function"
    },
    {
      "inputs": [
        {
          "internalType": "bytes32[]",
          "name": "proof",
          "type": "bytes32[]"
        },
        {
          "internalType": "string",
          "name": "socialID",
          "type": "string"
        },
        {
          "internalType": "uint256",
          "name": "points",
          "type": "uint256"
        },
        {
          "internalType": "address",
          "name": "recipient",
          "type": "address"
        },
        {
          "internalType": "uint256",
          "name": "feeAmount",
          "type": "uint256"
        },
        {
          "internalType": "uint256",
          "name": "deadline",
          "type": "uint256"
        },
        {
          "internalType": "bytes",
          "name": "recipientSig",
          "type": "bytes"
        }
      ],
      "name": "claimTokensOnBehalf",
      "outputs": [],
      "stateMutability": "nonpayable",
      "type": "function"
    },
    {
      "inputs": [
        {
          "internalType": "string",
          "name": "socialID",
          "type": "string"
        }
      ],
      "name": "nonces",
      "outputs": [
        {
          "internalType": "uint256",
          "name": "",
          "type": "uint256"
        }
      ],
      "stateMutability": "view",
      "type": "function"
    },
    {
      "inputs": [],
      "name": "owner",
      "outputs": [
        {
          "internalType": "address",
          "name": "",
          "type": "address"
        }
      ],
      "stateMutability": "view",
      "type": "function"
    },
    {
      "inputs": [
        {
          "internalType": "string",
          "name": "socialID",
          "type": "string"
        }
      ],
      "name": "releaseTokens",
      "outputs": [],
      "stateMutability": "nonpayable",
      "type": "function"
    },
    {
      "inputs": [
        {
          "internalType": "string",
          "name": "socialID",
          "type": "string"
        },
        {
          "internalType": "address",
          "name": "recipient",
          "type": "address"
        },
        {
          "internalType": "uint256",
          "name": "feeAmount",
          "type": "uint256"
        },
        {
          "internalType": "uint256",
          "name": "deadline",
          "type": "uint256"
        },
        {
          "internalType": "bytes",
          "name": "recipientSig",
          "type": "bytes"
        }
      ],
      "name": "releaseTokensOnBehalf",
      "outputs": [],
      "stateMutability": "nonpayable",
      "type": "function"
    },
    {
      "inputs": [],
      "name": "renounceOwnership",
      "outputs": [],
      "stateMutability": "nonpayable",
      "type": "function"
    },
    {
      "inputs": [
        {
          "internalType": "address",
          "name": "newOwner",
          "type": "address"
        }
      ],
      "name": "transferOwnership",
      "outputs": [],
      "stateMutability": "nonpayable",
      "type": "function"
    }
  ],
  "bytecode": "0x6102608060405234620003ee5760c0816200281f803803809162000024828562000450565b833981010312620003ee578051906001600160a01b03908183168303620003ee576020810151908282168203620003ee576040810151928084168403620003ee5760608201518181168103620003ee5760a06080840151930151956040516200008d8162000434565b6008815260208101906745636f436c61696d60c01b825260016020604051620000b68162000434565b8281520192603160f81b84526000549233838060a01b031985161760005560405193883391167f8be0079c531659141344cd1fd0a4f28419497f9722a3daafe3b4186f6b6457e0600087a351902092208260e05280610100524660a05260208201907f8b73c3c69bb8fe3d512ecc4cf759cc79239f7b179b0ffacaa9a75d522b39400f93848352604084015260608301524660808301523060a083015260a0825260c082019260018060401b0391838510838611176200041e5784604052835190206080523060c05261012052610140820190838210908211176200041e576023916101209160405260058452600f60e0820152601961010082015201529460005b6004811015620001db57600190602060ff895116980197816004015501620001b8565b50879550866101e0914283526301e13380420193844211620004085760209061020095865261018098818a526101a09384526101c094855261022097885261014052610160998a5260246040518099819363fd11b4d360e01b8352436004840152165afa958615620003fc57600096620003bd575b50610240958652604051967fb8ed2afdffb5b047fb7bd6eb7477cf38018b19f1906209c146b31f63ed2eaba9600089a16123aa9889620004758a3960805189611ed6015260a05189611fa2015260c05189611ea7015260e05189611f2501526101005189611f4b01526101205189611f02015261014051898181611047015281816116e901526119fa0152518881816106c501528181610eda01526115e3015251878181610235015281816108c5015281816109fc01528181610b3701528181610ba701528181611166015281816117e10152611b2e0152518681816102d8015281816109580152818161112e0152818161151e01526117b101525185818161068901528181610f8b015261167901525184611c35015251838181610eb1015281816115ba0152611bf1015251828181610f5a0152818161164f0152611aea01525181818161031d015281816109a201528181610ad7015281816111d3015281816118420152611c930152f35b9095506020813d602011620003f3575b81620003dc6020938362000450565b81010312620003ee5751948862000250565b600080fd5b3d9150620003cd565b6040513d6000823e3d90fd5b634e487b7160e01b600052601160045260246000fd5b634e487b7160e01b600052604160045260246000fd5b604081019081106001600160401b038211176200041e57604052565b601f909101601f19168101906001600160401b038211908210176200041e5760405256fe60806040526004361015610013575b600080fd5b60003560e01c80630197d97214611c14578063043997f214611c7b5780633644e51514611c5857806347ba89cc14611c1d57806352bff4c014611c1457806369649d9314611bd95780636b6adc4f14611bbd578063715018a614611b525780637236aa3214611b0e5780637e3565f514611aca57806382c5c6dc14611a7c5780638da5cb5b14611a555780638f2203f614611a395780639e568c4914611a1d578063a0b99867146119e2578063a45ac56b14611542578063a66318f4146114fe578063b24fce88146114ac578063b2aec85814610d6c578063b39f225b14610714578063b8a8545e146106e8578063ba997021146106ad578063e58e5fe514610669578063f2fde38b1461057e578063fb7426f6146101a65763fe8566751461013b57600080fd5b3461000e5761014936611d71565b60405181519160005b8381106101935760608360208187810160028152030190206001600160a01b0381541690600260018201549101549060405192835260208301526040820152f35b8060208092840101518185015201610152565b3461000e5760208060031936011261000e5760043567ffffffffffffffff811161000e576101d982913690600401611e17565b9190826040519384928337810160028152030190206001600160a01b03338183541603610554576001820180549261021084611fc8565b90811561052a57600201908154916301e1338083018084116105145742106104ea57847f000000000000000000000000000000000000000000000000000000000000000016936040519363fd11b4d360e01b85524360048601526024898682818a5afa9586156103f2576000966104bb575b506000986004805b61041b575b505050509060008092555560405193868563a9059cbb60e01b92838252816000816102d48c3360048401602090939291936001600160a01b0360408201951681520152565b03927f0000000000000000000000000000000000000000000000000000000000000000165af19081156103f2576103679588926103fe575b50610317838561200e565b946103437f0000000000000000000000000000000000000000000000000000000000000000809761205a565b60405192835233600484015260248301529095869190829060009082906044820190565b03925af19182156103f25761038a94610385936103c5575b5061200e565b61205a565b916040519283528201526000604082015233907f564bcd5296c80f19443e574bc8f48ef8822058d603f797b6378b907b2140353460603392a3005b6103e490883d8a116103eb575b6103dc8183611d08565b810190612021565b508761037f565b503d6103d2565b6040513d6000823e3d90fd5b61041490833d85116103eb576103dc8183611d08565b508861030c565b61042d61042782611fde565b85612087565b421161045857801561044357600019018061028a565b82634e487b7160e01b60005260116004526000fd5b925092985060001982018281116104a657600411156104925750600a610487600094936003869401549061200e565b049791928a8061028f565b634e487b7160e01b60005260326004526000fd5b50634e487b7160e01b60005260116004526000fd5b9095508981813d83116104e3575b6104d38183611d08565b8101031261000e5751948a610282565b503d6104c9565b60046040517f2850f23b000000000000000000000000000000000000000000000000000000008152fd5b634e487b7160e01b600052601160045260246000fd5b60046040517f78851794000000000000000000000000000000000000000000000000000000008152fd5b60046040517fc13ae97c000000000000000000000000000000000000000000000000000000008152fd5b3461000e57602036600319011261000e576004356001600160a01b0380821680920361000e576105ac611e45565b81156105ff576000918254918173ffffffffffffffffffffffffffffffffffffffff19841617845560405192167f8be0079c531659141344cd1fd0a4f28419497f9722a3daafe3b4186f6b6457e08484a3f35b608460405162461bcd60e51b815260206004820152602660248201527f4f776e61626c653a206e6577206f776e657220697320746865207a65726f206160448201527f64647265737300000000000000000000000000000000000000000000000000006064820152fd5b3461000e57600036600319011261000e5760206040516001600160a01b037f0000000000000000000000000000000000000000000000000000000000000000168152f35b3461000e57600036600319011261000e5760206040517f00000000000000000000000000000000000000000000000000000000000000008152f35b3461000e57602036600319011261000e57600435600481101561000e5760209060040154604051908152f35b3461000e5760a036600319011261000e5767ffffffffffffffff60043581811161000e57610746903690600401611e17565b916001600160a01b03602435166024350361000e576064359060843590811161000e57610777903690600401611e17565b824211610d425761081b61082192610813610829956107968989612352565b906107a2368b8b611d2a565b60208151910120916040519160208301937fe34059c0ab77b442f7a1dc6f099920837ee8df72894742a7b84c41e438b4d8aa855260408401526001600160a01b03602435166060840152604435608084015260a083015260c082015260c0815261080b81611cd6565b5190206122ef565b923691611d2a565b90612202565b919091612094565b6001600160a01b038060243516911603610d1857602090826040519384928337810160028152030190206001600160a01b03602435166001600160a01b038254160361055457600181019081549161088083611fc8565b91821561052a576002810154916301e1338083018084116105145742106104ea576040519263fd11b4d360e01b84524360048501526020846024816001600160a01b037f0000000000000000000000000000000000000000000000000000000000000000165afa9384156103f257600094610ce4575b506000956004805b610c6b575b505050600091826002925501556040519063a9059cbb60e01b918281526020818061094a8860243560048401602090939291936001600160a01b0360408201951681520152565b038160006001600160a01b037f0000000000000000000000000000000000000000000000000000000000000000165af180156103f257610c4c575b50604435610aae5760206109ee926109c76109a0868561200e565b7f00000000000000000000000000000000000000000000000000000000000000009061205a565b604051918252602480356001600160a01b0316600484015282015292839081906044820190565b038160006001600160a01b037f0000000000000000000000000000000000000000000000000000000000000000165af180156103f257610a46936109a093610a4092610a8f575b505b6044359061207a565b9061200e565b906040519182526020820152604435604082015233907f564bcd5296c80f19443e574bc8f48ef8822058d603f797b6378b907b2140353460606001600160a01b036024351692a3005b610aa79060203d6020116103eb576103dc8183611d08565b5086610a35565b8260443511610c2257610b29610acf610ac96044358661207a565b8361200e565b926020610afd7f0000000000000000000000000000000000000000000000000000000000000000809661205a565b6040518094819285835260243560048401602090939291936001600160a01b0360408201951681520152565b038160006001600160a01b037f0000000000000000000000000000000000000000000000000000000000000000165af180156103f257610b9994602093610b7c92610c05575b506103856044358661200e565b604051918252336004830152602482015292839081906044820190565b038160006001600160a01b037f0000000000000000000000000000000000000000000000000000000000000000165af180156103f257610a46936109a093610a4092610be6575b50610a37565b610bfe9060203d6020116103eb576103dc8183611d08565b5086610be0565b610c1b90853d87116103eb576103dc8183611d08565b5088610b6f565b60046040517f58d620b3000000000000000000000000000000000000000000000000000000008152fd5b610c649060203d6020116103eb576103dc8183611d08565b5084610985565b610c7d610c7782611fde565b84612087565b4211610c935780156105145760001901806108fe565b93915091955060001983018381116105145760041115610cce576000600a610cc36002946003849701549061200e565b049692829450610903565b634e487b7160e01b600052603260045260246000fd5b9093506020813d602011610d10575b81610d0060209383611d08565b8101031261000e575192866108f6565b3d9150610cf3565b60046040517f8baa579f000000000000000000000000000000000000000000000000000000008152fd5b60046040517f0819bdcd000000000000000000000000000000000000000000000000000000008152fd5b3461000e5760e036600319011261000e5767ffffffffffffffff60043581811161000e57610d9e903690600401611db0565b9060243581811161000e57610db7903690600401611e17565b9290916001600160a01b03606435166064350361000e5760a4359060c43590811161000e57610dea903690600401611e17565b824211610d425761081b61082192610813610e7e95610e098a8a612352565b90610e15368c8c611d2a565b60208151910120916040519160208301937f0eeee0a948a8f4fc92fb4b5e76ebbbdc8b0b87caf4aee538beb574e0cf41127f855260408401526001600160a01b03606435166060840152608435608084015260a083015260c082015260c0815261080b81611cd6565b6001600160a01b038060643516911603610d185760ff6040518484823760208186810160018152030190205416611482577f000000000000000000000000000000000000000000000000000000000000000042116114585780517f00000000000000000000000000000000000000000000000000000000000000000361142e576044351561140457610f11604435611fc8565b60843511610c2257604051632b7e065160e11b81526001600160a01b036064351660048201526060602482015260208180610f50606482018888612039565b6001600160a01b037f000000000000000000000000000000000000000000000000000000000000000016604483015203816001600160a01b037f0000000000000000000000000000000000000000000000000000000000000000165afa9081156103f2576000916113e5575b50156113bb57604051602081019084848337610fed6040828781016044356020820152036020810184520182611d08565b519020916000925b82518410156110435760208460051b84010151908181106000146110325760005260205260406000205b9260001981146105145760010192610ff5565b90600052602052604060002061101f565b84907f00000000000000000000000000000000000000000000000000000000000000000361139157604051818382376020818381016001815203019020600160ff19825416179055611096604435611fc8565b9060443560011c6040518285823760208184810160028152030190206001600160a01b036064351673ffffffffffffffffffffffffffffffffffffffff1982541617815560443560018201556002429101558260843511610c225760405163a9059cbb60e01b8082526001600160a01b0360643516600483015260248201839052906020818060448101038160006001600160a01b037f0000000000000000000000000000000000000000000000000000000000000000165af180156103f257611372575b506001600160a01b037f0000000000000000000000000000000000000000000000000000000000000000166040519163fd11b4d360e01b8352436004840152602083602481855afa9283156103f25760009361133e575b506084351561132a57611219906111cb6084358561200e565b9260206111f97f0000000000000000000000000000000000000000000000000000000000000000809661205a565b604051848152336004820152602481019190915293849081906044820190565b03816000855af180156103f25761127b9460209461124c9261130d575b506103856112466084358c61207a565b8861200e565b6040519283526001600160a01b0360643516600484015260248301529092839190829060009082906044820190565b03925af180156103f2577f88b8286268c2e65474c8b1182d7ed53744c14615eb940a3d830dc68187a87913956112d0936112bd936109a0936112ee575061200e565b9460405193606085526060850191612039565b9360208301526040820152806001600160a01b0360643516930390a2005b6113069060203d6020116103eb576103dc8183611d08565b508961037f565b61132390863d88116103eb576103dc8183611d08565b508b611236565b60209061127b9261124c6109a0898761200e565b9092506020813d60201161136a575b8161135a60209383611d08565b8101031261000e575191876111b2565b3d915061134d565b61138a9060203d6020116103eb576103dc8183611d08565b508561115b565b60046040517f09bde339000000000000000000000000000000000000000000000000000000008152fd5b60046040517feef1a554000000000000000000000000000000000000000000000000000000008152fd5b6113fe915060203d6020116103eb576103dc8183611d08565b84610fbc565b60046040517f86efec48000000000000000000000000000000000000000000000000000000008152fd5b60046040517f200afff5000000000000000000000000000000000000000000000000000000008152fd5b60046040517fc4560cae000000000000000000000000000000000000000000000000000000008152fd5b60046040517fa4f81929000000000000000000000000000000000000000000000000000000008152fd5b3461000e57602036600319011261000e5760043567ffffffffffffffff811161000e5760206114e081923690600401611e17565b91908260405193849283378101600381520301902054604051908152f35b3461000e57600036600319011261000e5760206040516001600160a01b037f0000000000000000000000000000000000000000000000000000000000000000168152f35b3461000e57606036600319011261000e5767ffffffffffffffff60043581811161000e57611574903690600401611db0565b90602490813590811161000e5761158f903690600401611e17565b906044359060405194838287378386019460ff876001978881526020998a91030190205416611482577f000000000000000000000000000000000000000000000000000000000000000042116114585781517f00000000000000000000000000000000000000000000000000000000000000000361142e5783156114045761161684611fc8565b5060405191632b7e065160e11b835233600484015260608284015261163f606484018786612039565b928881806001600160a01b0396877f00000000000000000000000000000000000000000000000000000000000000001660448301520381877f0000000000000000000000000000000000000000000000000000000000000000165afa9081156103f2576000916119c5575b50156113bb578660405189810190888783376116d86040828d8b8d830191820152038d810184520182611d08565b519020916000915b61195d575b50507f00000000000000000000000000000000000000000000000000000000000000000361139157604051858482378781878101898152030190208660ff1982541617905561173384611fc8565b9584811c946040518786823789818981016002815203019020913373ffffffffffffffffffffffffffffffffffffffff198454161783558201556002429101556040519163a9059cbb60e01b928381528881806117aa893360048401602090939291936001600160a01b0360408201951681520152565b03816000867f0000000000000000000000000000000000000000000000000000000000000000165af180156103f257611940575b507f00000000000000000000000000000000000000000000000000000000000000001687604051809363fd11b4d360e01b825243600483015281845afa9182156103f257889060009361190f575b50829361183c8961188c9561200e565b926118687f0000000000000000000000000000000000000000000000000000000000000000809561205a565b60405192835233600484015260248301529093849190829060009082906044820190565b03925af180156103f2577f88b8286268c2e65474c8b1182d7ed53744c14615eb940a3d830dc68187a87913976118e1946118ce94610385936118f2575061200e565b9160405194606086526060860191612039565b9483015260408201528033930390a2005b611908908c8d3d106103eb576103dc8183611d08565b508b61037f565b809350813d8311611939575b6119258183611d08565b8101031261000e578761188c92519261182c565b503d61191b565b61195690893d8b116103eb576103dc8183611d08565b50886117de565b909181518310156119bf57898360051b83010151908181106000146119af57600052895260406000205b91600019811461199a57880190886116e0565b83634e487b7160e01b60005260116004526000fd5b9060005289526040600020611987565b916116e5565b6119dc9150893d8b116103eb576103dc8183611d08565b896116aa565b3461000e57600036600319011261000e5760206040517f00000000000000000000000000000000000000000000000000000000000000008152f35b3461000e57600036600319011261000e576020604051600a8152f35b3461000e57600036600319011261000e57602060405160058152f35b3461000e57600036600319011261000e5760206001600160a01b0360005416604051908152f35b3461000e576020611a8c36611d71565b60405181519160005b838110611ab9575050828160ff938101600181520301902054166040519015158152f35b818101850151838201528401611a95565b3461000e57600036600319011261000e5760206040516001600160a01b037f0000000000000000000000000000000000000000000000000000000000000000168152f35b3461000e57600036600319011261000e5760206040516001600160a01b037f0000000000000000000000000000000000000000000000000000000000000000168152f35b3461000e57600036600319011261000e57611b6b611e45565b6000805473ffffffffffffffffffffffffffffffffffffffff1981168255816001600160a01b0360405192167f8be0079c531659141344cd1fd0a4f28419497f9722a3daafe3b4186f6b6457e08284a3f35b3461000e57600036600319011261000e57602060405160028152f35b3461000e57600036600319011261000e5760206040517f00000000000000000000000000000000000000000000000000000000000000008152f35b5061000e611cb6565b3461000e57600036600319011261000e5760206040517f00000000000000000000000000000000000000000000000000000000000000008152f35b3461000e57600036600319011261000e576020611c73611e9d565b604051908152f35b3461000e57600036600319011261000e5760206040517f00000000000000000000000000000000000000000000000000000000000000008152f35b503461000e57600036600319011261000e5760206040516301e133808152f35b60e0810190811067ffffffffffffffff821117611cf257604052565b634e487b7160e01b600052604160045260246000fd5b90601f8019910116810190811067ffffffffffffffff821117611cf257604052565b92919267ffffffffffffffff8211611cf25760405191611d54601f8201601f191660200184611d08565b82948184528183011161000e578281602093846000960137010152565b602060031982011261000e576004359067ffffffffffffffff821161000e578060238301121561000e57816024611dad93600401359101611d2a565b90565b9080601f8301121561000e5781359067ffffffffffffffff8211611cf2578160051b60405193602093611de585840187611d08565b8552838086019282010192831161000e578301905b828210611e08575050505090565b81358152908301908301611dfa565b9181601f8401121561000e5782359167ffffffffffffffff831161000e576020838186019501011161000e57565b6001600160a01b03600054163303611e5957565b606460405162461bcd60e51b815260206004820152602060248201527f4f776e61626c653a2063616c6c6572206973206e6f7420746865206f776e65726044820152fd5b6001600160a01b037f000000000000000000000000000000000000000000000000000000000000000016301480611f9f575b15611ef8577f000000000000000000000000000000000000000000000000000000000000000090565b60405160208101907f000000000000000000000000000000000000000000000000000000000000000082527f000000000000000000000000000000000000000000000000000000000000000060408201527f000000000000000000000000000000000000000000000000000000000000000060608201524660808201523060a082015260a0815260c0810181811067ffffffffffffffff821117611cf25760405251902090565b507f00000000000000000000000000000000000000000000000000000000000000004614611ecf565b8060001904600511811515166105145760050290565b7c883148f5cb1270b85273b667ae1cfdf5d70ac5a1ecccd54fe15c297df38111600116610514576301e133800290565b8060001904821181151516610514570290565b9081602091031261000e5751801515810361000e5790565b908060209392818452848401376000828201840152601f01601f1916010190565b8115612064570490565b634e487b7160e01b600052601260045260246000fd5b9190820391821161051457565b9190820180921161051457565b60058110156121ec57806120a55750565b600181036120f157606460405162461bcd60e51b815260206004820152601860248201527f45434453413a20696e76616c6964207369676e617475726500000000000000006044820152fd5b6002810361213d57606460405162461bcd60e51b815260206004820152601f60248201527f45434453413a20696e76616c6964207369676e6174757265206c656e677468006044820152fd5b6003810361219457608460405162461bcd60e51b815260206004820152602260248201527f45434453413a20696e76616c6964207369676e6174757265202773272076616c604482015261756560f01b6064820152fd5b60041461219d57565b608460405162461bcd60e51b815260206004820152602260248201527f45434453413a20696e76616c6964207369676e6174757265202776272076616c604482015261756560f01b6064820152fd5b634e487b7160e01b600052602160045260246000fd5b9060418151146000146122305761222c916020820151906060604084015193015160001a9061223a565b9091565b5050600090600290565b9291907f7fffffffffffffffffffffffffffffff5d576e7357a4501ddfe92f46681b20a083116122e35760ff16601b811415806122d8575b6122cc579160809493916020936040519384528484015260408301526060820152600093849182805260015afa156122bf5781516001600160a01b038116156122b9579190565b50600190565b50604051903d90823e3d90fd5b50505050600090600490565b50601c811415612272565b50505050600090600390565b6122f7611e9d565b906040519060208201927f1901000000000000000000000000000000000000000000000000000000000000845260228301526042820152604281526080810181811067ffffffffffffffff821117611cf25760405251902090565b602090826040519384928337810160038152030190209081549160018301905556fea26469706673582212207935c9df5ea9ab1da042cf38d9553bc1cd064b803752245db122ac472e6057e564736f6c63430008100033",
  "linkReferences": {},
  "deployedLinkReferences": {}
}