{
  "_format": "hh-sol-artifact-1",
  "contractName": "EcoNFT",
  "sourceName": "contracts/EcoNFT.sol",
  "abi": [
    {
      "inputs": [
        {
          "internalType": "contract ERC20",
          "name": "token",
          "type": "address"
        }
      ],
      "stateMutability": "nonpayable",
      "type": "constructor"
    },
    {
      "anonymous": false,
      "inputs": [
        {
          "indexed": true,
          "internalType": "address",
          "name": "owner",
          "type": "address"
        },
        {
          "indexed": true,
          "internalType": "address",
          "name": "approved",
          "type": "address"
        },
        {
          "indexed": true,
          "internalType": "uint256",
          "name": "tokenId",
          "type": "uint256"
        }
      ],
      "name": "Approval",
      "type": "event"
    },
    {
      "anonymous": false,
      "inputs": [
        {
          "indexed": true,
          "internalType": "address",
          "name": "owner",
          "type": "address"
        },
        {
          "indexed": true,
          "internalType": "address",
          "name": "operator",
          "type": "address"
        },
        {
          "indexed": false,
          "internalType": "bool",
          "name": "approved",
          "type": "bool"
        }
      ],
      "name": "ApprovalForAll",
      "type": "event"
    },
    {
      "anonymous": false,
      "inputs": [],
      "name": "InitializeEcoNFT",
      "type": "event"
    },
    {
      "anonymous": false,
      "inputs": [
        {
          "indexed": true,
          "internalType": "address",
          "name": "recipient",
          "type": "address"
        },
        {
          "indexed": false,
          "internalType": "string",
          "name": "claim",
          "type": "string"
        },
        {
          "indexed": false,
          "internalType": "uint256",
          "name": "tokenID",
          "type": "uint256"
        }
      ],
      "name": "Mint",
      "type": "event"
    },
    {
      "anonymous": false,
      "inputs": [
        {
          "indexed": false,
          "internalType": "string",
          "name": "claim",
          "type": "string"
        },
        {
          "indexed": false,
          "internalType": "uint256",
          "name": "feeAmount",
          "type": "uint256"
        },
        {
          "indexed": false,
          "internalType": "bool",
          "name": "revocable",
          "type": "bool"
        },
        {
          "indexed": true,
          "internalType": "address",
          "name": "recipient",
          "type": "address"
        },
        {
          "indexed": true,
          "internalType": "address",
          "name": "verifier",
          "type": "address"
        }
      ],
      "name": "RegisterClaim",
      "type": "event"
    },
    {
      "anonymous": false,
      "inputs": [
        {
          "indexed": true,
          "internalType": "address",
          "name": "from",
          "type": "address"
        },
        {
          "indexed": true,
          "internalType": "address",
          "name": "to",
          "type": "address"
        },
        {
          "indexed": true,
          "internalType": "uint256",
          "name": "tokenId",
          "type": "uint256"
        }
      ],
      "name": "Transfer",
      "type": "event"
    },
    {
      "anonymous": false,
      "inputs": [
        {
          "indexed": false,
          "internalType": "string",
          "name": "claim",
          "type": "string"
        },
        {
          "indexed": true,
          "internalType": "address",
          "name": "recipient",
          "type": "address"
        },
        {
          "indexed": true,
          "internalType": "address",
          "name": "verifier",
          "type": "address"
        }
      ],
      "name": "UnregisterClaim",
      "type": "event"
    },
    {
      "inputs": [],
      "name": "META_LIMIT",
      "outputs": [
        {
          "internalType": "uint256",
          "name": "",
          "type": "uint256"
        }
      ],
      "stateMutability": "view",
      "type": "function"
    },
    {
      "inputs": [],
      "name": "NFT_EXTERNAL_URL",
      "outputs": [
        {
          "internalType": "string",
          "name": "",
          "type": "string"
        }
      ],
      "stateMutability": "view",
      "type": "function"
    },
    {
      "inputs": [],
      "name": "NFT_IMAGE_URL",
      "outputs": [
        {
          "internalType": "string",
          "name": "",
          "type": "string"
        }
      ],
      "stateMutability": "view",
      "type": "function"
    },
    {
      "inputs": [],
      "name": "SUB_NAME_LENGTH",
      "outputs": [
        {
          "internalType": "uint256",
          "name": "",
          "type": "uint256"
        }
      ],
      "stateMutability": "view",
      "type": "function"
    },
    {
      "inputs": [],
      "name": "_token",
      "outputs": [
        {
          "internalType": "contract ERC20",
          "name": "",
          "type": "address"
        }
      ],
      "stateMutability": "view",
      "type": "function"
    },
    {
      "inputs": [
        {
          "internalType": "uint256",
          "name": "",
          "type": "uint256"
        }
      ],
      "name": "_tokenClaimIDs",
      "outputs": [
        {
          "internalType": "address",
          "name": "recipient",
          "type": "address"
        },
        {
          "internalType": "string",
          "name": "claim",
          "type": "string"
        }
      ],
      "stateMutability": "view",
      "type": "function"
    },
    {
      "inputs": [],
      "name": "_tokenIDIndex",
      "outputs": [
        {
          "internalType": "uint256",
          "name": "",
          "type": "uint256"
        }
      ],
      "stateMutability": "view",
      "type": "function"
    },
    {
      "inputs": [
        {
          "internalType": "address",
          "name": "",
          "type": "address"
        },
        {
          "internalType": "string",
          "name": "",
          "type": "string"
        }
      ],
      "name": "_verifiedClaims",
      "outputs": [
        {
          "internalType": "string",
          "name": "claim",
          "type": "string"
        },
        {
          "internalType": "uint256",
          "name": "tokenID",
          "type": "uint256"
        }
      ],
      "stateMutability": "view",
      "type": "function"
    },
    {
      "inputs": [
        {
          "internalType": "address",
          "name": "to",
          "type": "address"
        },
        {
          "internalType": "uint256",
          "name": "tokenId",
          "type": "uint256"
        }
      ],
      "name": "approve",
      "outputs": [],
      "stateMutability": "nonpayable",
      "type": "function"
    },
    {
      "inputs": [
        {
          "internalType": "address",
          "name": "owner",
          "type": "address"
        }
      ],
      "name": "balanceOf",
      "outputs": [
        {
          "internalType": "uint256",
          "name": "",
          "type": "uint256"
        }
      ],
      "stateMutability": "view",
      "type": "function"
    },
    {
      "inputs": [
        {
          "internalType": "uint256",
          "name": "tokenId",
          "type": "uint256"
        }
      ],
      "name": "getApproved",
      "outputs": [
        {
          "internalType": "address",
          "name": "",
          "type": "address"
        }
      ],
      "stateMutability": "view",
      "type": "function"
    },
    {
      "inputs": [
        {
          "internalType": "address",
          "name": "owner",
          "type": "address"
        },
        {
          "internalType": "address",
          "name": "operator",
          "type": "address"
        }
      ],
      "name": "isApprovedForAll",
      "outputs": [
        {
          "internalType": "bool",
          "name": "",
          "type": "bool"
        }
      ],
      "stateMutability": "view",
      "type": "function"
    },
    {
      "inputs": [
        {
          "internalType": "address",
          "name": "recipient",
          "type": "address"
        },
        {
          "internalType": "address",
          "name": "verifier",
          "type": "address"
        },
        {
          "internalType": "string",
          "name": "claim",
          "type": "string"
        }
      ],
      "name": "isClaimVerified",
      "outputs": [
        {
          "internalType": "bool",
          "name": "",
          "type": "bool"
        }
      ],
      "stateMutability": "view",
      "type": "function"
    },
    {
      "inputs": [
        {
          "internalType": "address",
          "name": "recipient",
          "type": "address"
        },
        {
          "internalType": "string",
          "name": "claim",
          "type": "string"
        }
      ],
      "name": "mintNFT",
      "outputs": [
        {
          "internalType": "uint256",
          "name": "tokenID",
          "type": "uint256"
        }
      ],
      "stateMutability": "nonpayable",
      "type": "function"
    },
    {
      "inputs": [],
      "name": "name",
      "outputs": [
        {
          "internalType": "string",
          "name": "",
          "type": "string"
        }
      ],
      "stateMutability": "view",
      "type": "function"
    },
    {
      "inputs": [
        {
          "internalType": "uint256",
          "name": "tokenId",
          "type": "uint256"
        }
      ],
      "name": "ownerOf",
      "outputs": [
        {
          "internalType": "address",
          "name": "",
          "type": "address"
        }
      ],
      "stateMutability": "view",
      "type": "function"
    },
    {
      "inputs": [
        {
          "internalType": "string",
          "name": "claim",
          "type": "string"
        },
        {
          "internalType": "uint256",
          "name": "feeAmount",
          "type": "uint256"
        },
        {
          "internalType": "bool",
          "name": "revocable",
          "type": "bool"
        },
        {
          "internalType": "address",
          "name": "recipient",
          "type": "address"
        },
        {
          "internalType": "address",
          "name": "verifier",
          "type": "address"
        },
        {
          "internalType": "bytes",
          "name": "approveSig",
          "type": "bytes"
        },
        {
          "internalType": "bytes",
          "name": "verifySig",
          "type": "bytes"
        }
      ],
      "name": "register",
      "outputs": [],
      "stateMutability": "nonpayable",
      "type": "function"
    },
    {
      "inputs": [
        {
          "internalType": "address",
          "name": "from",
          "type": "address"
        },
        {
          "internalType": "address",
          "name": "to",
          "type": "address"
        },
        {
          "internalType": "uint256",
          "name": "tokenId",
          "type": "uint256"
        }
      ],
      "name": "safeTransferFrom",
      "outputs": [],
      "stateMutability": "nonpayable",
      "type": "function"
    },
    {
      "inputs": [
        {
          "internalType": "address",
          "name": "from",
          "type": "address"
        },
        {
          "internalType": "address",
          "name": "to",
          "type": "address"
        },
        {
          "internalType": "uint256",
          "name": "tokenId",
          "type": "uint256"
        },
        {
          "internalType": "bytes",
          "name": "data",
          "type": "bytes"
        }
      ],
      "name": "safeTransferFrom",
      "outputs": [],
      "stateMutability": "nonpayable",
      "type": "function"
    },
    {
      "inputs": [
        {
          "internalType": "address",
          "name": "operator",
          "type": "address"
        },
        {
          "internalType": "bool",
          "name": "approved",
          "type": "bool"
        }
      ],
      "name": "setApprovalForAll",
      "outputs": [],
      "stateMutability": "nonpayable",
      "type": "function"
    },
    {
      "inputs": [
        {
          "internalType": "bytes4",
          "name": "interfaceId",
          "type": "bytes4"
        }
      ],
      "name": "supportsInterface",
      "outputs": [
        {
          "internalType": "bool",
          "name": "",
          "type": "bool"
        }
      ],
      "stateMutability": "view",
      "type": "function"
    },
    {
      "inputs": [],
      "name": "symbol",
      "outputs": [
        {
          "internalType": "string",
          "name": "",
          "type": "string"
        }
      ],
      "stateMutability": "view",
      "type": "function"
    },
    {
      "inputs": [
        {
          "internalType": "uint256",
          "name": "tokenID",
          "type": "uint256"
        }
      ],
      "name": "tokenURI",
      "outputs": [
        {
          "internalType": "string",
          "name": "",
          "type": "string"
        }
      ],
      "stateMutability": "view",
      "type": "function"
    },
    {
      "inputs": [
        {
          "internalType": "uint256",
          "name": "tokenID",
          "type": "uint256"
        },
        {
          "internalType": "uint256",
          "name": "cursor",
          "type": "uint256"
        },
        {
          "internalType": "uint256",
          "name": "limit",
          "type": "uint256"
        }
      ],
      "name": "tokenURICursor",
      "outputs": [
        {
          "internalType": "string",
          "name": "meta",
          "type": "string"
        }
      ],
      "stateMutability": "view",
      "type": "function"
    },
    {
      "inputs": [
        {
          "internalType": "address",
          "name": "from",
          "type": "address"
        },
        {
          "internalType": "address",
          "name": "to",
          "type": "address"
        },
        {
          "internalType": "uint256",
          "name": "tokenId",
          "type": "uint256"
        }
      ],
      "name": "transferFrom",
      "outputs": [],
      "stateMutability": "nonpayable",
      "type": "function"
    },
    {
      "inputs": [
        {
          "internalType": "string",
          "name": "claim",
          "type": "string"
        },
        {
          "internalType": "address",
          "name": "recipient",
          "type": "address"
        },
        {
          "internalType": "address",
          "name": "verifier",
          "type": "address"
        },
        {
          "internalType": "bytes",
          "name": "verifySig",
          "type": "bytes"
        }
      ],
      "name": "unregister",
      "outputs": [],
      "stateMutability": "nonpayable",
      "type": "function"
    }
  ],
  "bytecode": "0x60a060405260016006553480156200001657600080fd5b5060405162003d1f38038062003d1f8339810160408190526200003991620000c7565b60408051808201825260078082526612195b1a53919560ca1b60208084018290528451808601909552918452908301529060006200007883826200019e565b5060016200008782826200019e565b5050506001600160a01b0381166080526040517f11ff710c79a94be63a866b88e7b33165a85174f193311b5e33f1191bd37e4ca090600090a1506200026a565b600060208284031215620000da57600080fd5b81516001600160a01b0381168114620000f257600080fd5b9392505050565b634e487b7160e01b600052604160045260246000fd5b600181811c908216806200012457607f821691505b6020821081036200014557634e487b7160e01b600052602260045260246000fd5b50919050565b601f8211156200019957600081815260208120601f850160051c81016020861015620001745750805b601f850160051c820191505b81811015620001955782815560010162000180565b5050505b505050565b81516001600160401b03811115620001ba57620001ba620000f9565b620001d281620001cb84546200010f565b846200014b565b602080601f8311600181146200020a5760008415620001f15750858301515b600019600386901b1c1916600185901b17855562000195565b600085815260208120601f198616915b828110156200023b578886015182559484019460019091019084016200021a565b50858210156200025a5787850151600019600388901b60f8161c191681555b5050505050600190811b01905550565b608051613a926200028d600039600081816103fc0152610ddb0152613a926000f3fe608060405234801561001057600080fd5b50600436106101ae5760003560e01c806395d89b41116100ee578063bf2d75eb11610097578063e985e9c511610071578063e985e9c5146103a8578063eacabe14146103e4578063ecd0c0c3146103f7578063fa557e0b1461041e57600080fd5b8063bf2d75eb14610361578063c389e6b514610374578063c87b56dd1461039557600080fd5b8063a70d9c2a116100c8578063a70d9c2a1461032a578063a9cf1e1e14610332578063b88d4fde1461035357600080fd5b806395d89b41146103075780639c933bf11461030f578063a22cb4651461031757600080fd5b806323b872dd1161015b5780636271473b116101355780636271473b146102845780636352211e146102c057806370a08231146102d35780637df590ac146102f457600080fd5b806323b872dd1461024b578063337ddb3d1461025e57806342842e0e1461027157600080fd5b8063095ea7b31161018c578063095ea7b31461021b5780630f551895146102305780631c3038611461024357600080fd5b806301ffc9a7146101b357806306fdde03146101db578063081812fc146101f0575b600080fd5b6101c66101c13660046129ed565b610427565b60405190151581526020015b60405180910390f35b6101e36104c4565b6040516101d29190612a5a565b6102036101fe366004612a6d565b610556565b6040516001600160a01b0390911681526020016101d2565b61022e610229366004612aa2565b61057d565b005b6101e361023e366004612acc565b6106d1565b6101e3610a88565b61022e610259366004612af8565b610aa4565b61022e61026c366004612b84565b610b12565b61022e61027f366004612af8565b610ef3565b6101e36040518060400160405280601481526020017f68747470733a2f2f6578616d706c652e636f6d2f00000000000000000000000081525081565b6102036102ce366004612a6d565b610f0e565b6102e66102e1366004612c61565b610f73565b6040519081526020016101d2565b6101c6610302366004612c7c565b61100d565b6101e361106e565b6102e6600681565b61022e610325366004612cdd565b61107d565b6102e6603281565b610345610340366004612a6d565b61108c565b6040516101d2929190612d14565b61022e610259366004612dc2565b61022e61036f366004612e3e565b61113b565b610387610382366004612ed2565b6113b1565b6040516101d2929190612f34565b6101e36103a3366004612a6d565b611471565b6101c66103b6366004612f56565b6001600160a01b03918216600090815260056020908152604080832093909416825291909152205460ff1690565b6102e66103f2366004612ed2565b611480565b6102037f000000000000000000000000000000000000000000000000000000000000000081565b6102e660065481565b60006001600160e01b031982167f80ac58cd00000000000000000000000000000000000000000000000000000000148061048a57506001600160e01b031982167f5b5e139f00000000000000000000000000000000000000000000000000000000145b806104be57507f01ffc9a7000000000000000000000000000000000000000000000000000000006001600160e01b03198316145b92915050565b6060600080546104d390612f89565b80601f01602080910402602001604051908101604052809291908181526020018280546104ff90612f89565b801561054c5780601f106105215761010080835404028352916020019161054c565b820191906000526020600020905b81548152906001019060200180831161052f57829003601f168201915b5050505050905090565b600061056182611635565b506000908152600460205260409020546001600160a01b031690565b600061058882610f0e565b9050806001600160a01b0316836001600160a01b0316036106165760405162461bcd60e51b815260206004820152602160248201527f4552433732313a20617070726f76616c20746f2063757272656e74206f776e6560448201527f720000000000000000000000000000000000000000000000000000000000000060648201526084015b60405180910390fd5b336001600160a01b038216148061065057506001600160a01b038116600090815260056020908152604080832033845290915290205460ff165b6106c25760405162461bcd60e51b815260206004820152603e60248201527f4552433732313a20617070726f76652063616c6c6572206973206e6f7420746f60448201527f6b656e206f776e6572206e6f7220617070726f76656420666f7220616c6c0000606482015260840161060d565b6106cc838361169c565b505050565b6000838152600260205260409020546060906001600160a01b03166107385760405162461bcd60e51b815260206004820152601260248201527f6e6f6e2d6578697374656e7420746f6b656e0000000000000000000000000000604482015260640161060d565b600084815260086020908152604080832080546001600160a01b0316845260079092528083209051919291610771906001850190613036565b90815260200160405180910390209050600081600001805461079290612f89565b80601f01602080910402602001604051908101604052809291908181526020018280546107be90612f89565b801561080b5780601f106107e05761010080835404028352916020019161080b565b820191906000526020600020905b8154815290600101906020018083116107ee57829003601f168201915b505050505090506000600661081e835190565b116108295781610860565b61084082600061083b60066001613058565b611717565b604051602001610850919061306b565b6040516020818303038152906040525b600284015490915015156000816108ac576040518060400160405280600581526020017f6e756c6c5d000000000000000000000000000000000000000000000000000000815250610912565b6108f26108e4866002016000815481106108c8576108c86130ac565b6000918252602090912001546001600160a01b031660146117fe565b600061083b60066001613058565b60405160200161090291906130c2565b6040516020818303038152906040525b905060008382604051602001610929929190613103565b60408051601f1981840301815291905290506109468682856119df565b975060008361098a576040518060400160405280600281526020017f5d7d0000000000000000000000000000000000000000000000000000000000008152506109c1565b6040518060400160405280600481526020017f227d5d7d000000000000000000000000000000000000000000000000000000008152505b9050886109d2886002018d8d611b79565b826040516020016109e593929190613184565b60408051601f198184030181528282018252601d83527f646174613a6170706c69636174696f6e2f6a736f6e3b6261736536342c0000006020848101919091529151909b50600091610a5191610a3d918e91016131c7565b604051602081830303815290604052611cf7565b90508181604051602001610a669291906131e3565b6040516020818303038152906040529a50505050505050505050509392505050565b604051806080016040528060438152602001613a1a6043913981565b60405162461bcd60e51b815260206004820152602e60248201527f4552433732313a2063616c6c6572206973206e6f7420746f6b656e206f776e6560448201527f72206e6f7220617070726f766564000000000000000000000000000000000000606482015260840161060d565b89898080601f0160208091040260200160405190810160405280939291908181526020018383808284376000920182905250845190039250610b999150505760405162461bcd60e51b815260206004820152601360248201527f696e76616c696420656d70747920636c61696d00000000000000000000000000604482015260640161060d565b610ba98b8b8b8b8b8b8b8b611e95565b610bf55760405162461bcd60e51b815260206004820152601b60248201527f696e76616c696420726563697069656e74207369676e61747572650000000000604482015260640161060d565b610c058b8b8b8b8b8b8989611f0c565b610c515760405162461bcd60e51b815260206004820152601a60248201527f696e76616c6964207665726966696572207369676e6174757265000000000000604482015260640161060d565b6001600160a01b0387166000908152600760205260408082209051610c79908e908e90613212565b90815260408051602092819003830190206001600160a01b038a1660009081526003820190935291205490915060ff1615610cf65760405162461bcd60e51b815260206004820152601260248201527f6475706c69636174652076617269666965720000000000000000000000000000604482015260640161060d565b80610d028c8e83613270565b506040805180820182526001600160a01b03808a168083528c15156020808501918252600287018054600181810183556000928352838320975197909101805494511515600160a01b0274ffffffffffffffffffffffffffffffffffffffffff199095169790961696909617929092179093559081526003850190915291909120805460ff191690911790558915610e94576040517f23b872dd0000000000000000000000000000000000000000000000000000000081526001600160a01b0389811660048301528881166024830152604482018c90527f000000000000000000000000000000000000000000000000000000000000000016906323b872dd906064016020604051808303816000875af1158015610e24573d6000803e3d6000fd5b505050506040513d601f19601f82011682018060405250810190610e489190613331565b610e945760405162461bcd60e51b815260206004820152601260248201527f666565207061796d656e74206661696c65640000000000000000000000000000604482015260640161060d565b866001600160a01b0316886001600160a01b03167fa86933f16b8c4813c2c4d5eec0ce857a43493a4c101d75a72875bb0c7adb37a58e8e8e8e604051610edd9493929190613377565b60405180910390a3505050505050505050505050565b6106cc83838360405180602001604052806000815250610aa4565b6000818152600260205260408120546001600160a01b0316806104be5760405162461bcd60e51b815260206004820152601860248201527f4552433732313a20696e76616c696420746f6b656e2049440000000000000000604482015260640161060d565b60006001600160a01b038216610ff15760405162461bcd60e51b815260206004820152602960248201527f4552433732313a2061646472657373207a65726f206973206e6f74206120766160448201527f6c6964206f776e65720000000000000000000000000000000000000000000000606482015260840161060d565b506001600160a01b031660009081526003602052604090205490565b6001600160a01b03841660009081526007602052604080822090516110359085908590613212565b90815260408051602092819003830190206001600160a01b0387166000908152600390910190925290205460ff1690505b949350505050565b6060600180546104d390612f89565b611088338383611f6a565b5050565b600860205260009081526040902080546001820180546001600160a01b0390921692916110b890612f89565b80601f01602080910402602001604051908101604052809291908181526020018280546110e490612f89565b80156111315780601f1061110657610100808354040283529160200191611131565b820191906000526020600020905b81548152906001019060200180831161111457829003601f168201915b5050505050905082565b85858080601f01602080910402602001604051908101604052809392919081815260200183838082843760009201829052508451900392506111c29150505760405162461bcd60e51b815260206004820152601360248201527f696e76616c696420656d70747920636c61696d00000000000000000000000000604482015260640161060d565b6001600160a01b03851660009081526007602052604080822090516111ea908a908a90613212565b90815260408051602092819003830190206001600160a01b03881660009081526003820190935291205490915060ff166112665760405162461bcd60e51b815260206004820152601260248201527f636c61696d206e6f742076657269666965640000000000000000000000000000604482015260640161060d565b60006112758683600201612038565b8054909150600160a01b900460ff166112d05760405162461bcd60e51b815260206004820152601160248201527f636c61696d20756e7265766f6361626c65000000000000000000000000000000604482015260640161060d565b6112de8989898989896120fa565b61132a5760405162461bcd60e51b815260206004820152601a60248201527f696e76616c6964207665726966696572207369676e6174757265000000000000604482015260640161060d565b6001600160a01b03861660009081526003830160205260409020805460ff19169055611359866002840161216d565b856001600160a01b0316876001600160a01b03167fe7485580c64d6de0e6843d2d684ac5f367466fbd1c45452b2380ccb0ef23af8a8b8b60405161139e9291906133a3565b60405180910390a3505050505050505050565b600760209081526000928352604090922081518083018401805192815290840192909301919091209152805481906113e890612f89565b80601f016020809104026020016040519081016040528092919081815260200182805461141490612f89565b80156114615780601f1061143657610100808354040283529160200191611461565b820191906000526020600020905b81548152906001019060200180831161144457829003601f168201915b5050505050908060010154905082565b60606104be82600060326106d1565b6001600160a01b03821660009081526007602052604080822090518291906114a99085906131c7565b908152604051908190036020019020600281015490915061150c5760405162461bcd60e51b815260206004820152601660248201527f6e667420636c61696d206e6f6e2d6578697374616e7400000000000000000000604482015260640161060d565b60018101541561155e5760405162461bcd60e51b815260206004820152601e60248201527f746f6b656e20616c7265616479206d696e74656420666f7220636c61696d0000604482015260640161060d565b6006805490600061156e836133b7565b9091555060018281018290556040805180820182526001600160a01b0388811682526020808301898152600087815260089092529390208251815473ffffffffffffffffffffffffffffffffffffffff1916921691909117815591519395509290918201906115dd90826133d0565b509050506115eb84836122ad565b836001600160a01b03167fec4de1eef14af3ae5d77facf1ed7a9d3d50f6285573ee0ec155fc11217fc34428484604051611626929190612f34565b60405180910390a25092915050565b6000818152600260205260409020546001600160a01b03166116995760405162461bcd60e51b815260206004820152601860248201527f4552433732313a20696e76616c696420746f6b656e2049440000000000000000604482015260640161060d565b50565b6000818152600460205260409020805473ffffffffffffffffffffffffffffffffffffffff19166001600160a01b03841690811790915581906116de82610f0e565b6001600160a01b03167f8c5be1e5ebec7d5bd14f71427d1e84f3dd0314c0f7b2291e5b200ac8c7c3b92560405160405180910390a45050565b60608360006117268585613490565b67ffffffffffffffff81111561173e5761173e612d36565b6040519080825280601f01601f191660200182016040528015611768576020820181803683370190505b509050845b848110156117f257828181518110611787576117876130ac565b01602001517fff0000000000000000000000000000000000000000000000000000000000000016826117b98884613490565b815181106117c9576117c96130ac565b60200101906001600160f81b031916908160001a905350806117ea816133b7565b91505061176d565b509150505b9392505050565b6060600061180d8360026134a3565b611818906002613058565b67ffffffffffffffff81111561183057611830612d36565b6040519080825280601f01601f19166020018201604052801561185a576020820181803683370190505b5090507f300000000000000000000000000000000000000000000000000000000000000081600081518110611891576118916130ac565b60200101906001600160f81b031916908160001a9053507f7800000000000000000000000000000000000000000000000000000000000000816001815181106118dc576118dc6130ac565b60200101906001600160f81b031916908160001a90535060006119008460026134a3565b61190b906001613058565b90505b6001811115611990577f303132333435363738396162636465660000000000000000000000000000000085600f166010811061194c5761194c6130ac565b1a60f81b828281518110611962576119626130ac565b60200101906001600160f81b031916908160001a90535060049490941c93611989816134c2565b905061190e565b5083156117f75760405162461bcd60e51b815260206004820181905260248201527f537472696e67733a20686578206c656e67746820696e73756666696369656e74604482015260640161060d565b60606040518060400160405280600181526020017f7b00000000000000000000000000000000000000000000000000000000000000815250905080604051602001611a2a91906134d9565b60408051601f198184030181528282018252601483527f68747470733a2f2f6578616d706c652e636f6d2f0000000000000000000000006020848101919091529151909350611a7d928492909101613540565b60408051601f19818403018152608083019091526043808352909250829190613a1a6020830139604051602001611ab59291906135b1565b60405160208183030381529060405290508083604051602001611ad9929190613622565b6040516020818303038152906040529050600082611b2c576040518060400160405280600281526020017f227d000000000000000000000000000000000000000000000000000000000000815250611b49565b60405180604001604052806003815260200162089f4b60ea1b8152505b9050818582604051602001611b6093929190613689565b6040516020818303038152906040529150509392505050565b8254606090156117f7576000611b8f8385613058565b8554909150600082821115611ba45782611ba6565b815b90506000611bb5600183613490565b9050865b82811015611ceb576000611bd88a83815481106108c8576108c86130ac565b905060008a8381548110611bee57611bee6130ac565b600091825260209091200154600160a01b900460ff16611c43576040518060400160405280600581526020017f66616c7365000000000000000000000000000000000000000000000000000000815250611c7a565b6040518060400160405280600481526020017f74727565000000000000000000000000000000000000000000000000000000008152505b905083831015611caf57878282604051602001611c9993929190613707565b6040516020818303038152906040529750611cd6565b878282604051602001611cc4939291906137d5565b60405160208183030381529060405297505b50508080611ce3906133b7565b915050611bb9565b50505050509392505050565b60608151600003611d1657505060408051602081019091526000815290565b60006040518060600160405280604081526020016139da6040913990506000600384516002611d459190613058565b611d4f9190613893565b611d5a9060046134a3565b90506000611d69826020613058565b67ffffffffffffffff811115611d8157611d81612d36565b6040519080825280601f01601f191660200182016040528015611dab576020820181803683370190505b509050818152600183018586518101602084015b81831015611e195760039283018051603f601282901c811687015160f890811b8552600c83901c8216880151811b6001860152600683901c8216880151811b60028601529116860151901b93820193909352600401611dbf565b600389510660018114611e335760028114611e5f57611e87565b7f3d3d000000000000000000000000000000000000000000000000000000000000600119830152611e87565b7f3d000000000000000000000000000000000000000000000000000000000000006000198301525b509398975050505050505050565b600080611ea68a8a8a8a8a8a6122c7565b9050856001600160a01b0316611ef485858080601f01602080910402602001604051908101604052809392919081815260200183838082843760009201919091525086939250506123529050565b6001600160a01b0316149a9950505050505050505050565b600080611f1c8a8a8a8a8a612376565b9050846001600160a01b0316611ef485858080601f01602080910402602001604051908101604052809392919081815260200183838082843760009201919091525086939250506123529050565b816001600160a01b0316836001600160a01b031603611fcb5760405162461bcd60e51b815260206004820152601960248201527f4552433732313a20617070726f766520746f2063616c6c657200000000000000604482015260640161060d565b6001600160a01b03838116600081815260056020908152604080832094871680845294825291829020805460ff191686151590811790915591519182527f17307eab39ab6107e8899845ad3d59bd9653f200f220920489ca2b5937696c31910160405180910390a3505050565b6000805b82548110156120b157836001600160a01b0316838281548110612061576120616130ac565b6000918252602090912001546001600160a01b03160361209f5782818154811061208d5761208d6130ac565b906000526020600020019150506104be565b806120a9816133b7565b91505061203c565b5060405162461bcd60e51b815260206004820152601060248201527f696e76616c696420766572696669657200000000000000000000000000000000604482015260640161060d565b600080612109888888886124f2565b9050846001600160a01b031661215785858080601f01602080910402602001604051908101604052809392919081815260200183838082843760009201919091525086939250506123529050565b6001600160a01b03161498975050505050505050565b60005b81548110156106cc57826001600160a01b0316828281548110612195576121956130ac565b6000918252602090912001546001600160a01b03160361229b57815482906121bf90600190613490565b815481106121cf576121cf6130ac565b906000526020600020018282815481106121eb576121eb6130ac565b600091825260209091208254910180546001600160a01b0390921673ffffffffffffffffffffffffffffffffffffffff19831681178255925474ffffffffffffffffffffffffffffffffffffffffff19909216909217600160a01b9182900460ff1615159091021790558154829080612266576122666138b5565b6000828152602090208101600019908101805474ffffffffffffffffffffffffffffffffffffffffff19169055019055505050565b806122a5816133b7565b915050612170565b611088828260405180602001604052806000815250612517565b60006123478787878787876040516020016122e7969594939291906138cb565b60408051601f1981840301815282825280516020918201207f19457468657265756d205369676e6564204d6573736167653a0a33320000000084830152603c8085019190915282518085039091018152605c909301909152815191012090565b979650505050505050565b600080600061236185856125a0565b9150915061236e816125e5565b509392505050565b600061239486868686866040516020016122e795949392919061390e565b9695505050505050565b60006001600160a01b0384163b156124ea57604051630a85bd0160e11b81526001600160a01b0385169063150b7a02906123e2903390899088908890600401613944565b6020604051808303816000875af192505050801561241d575060408051601f3d908101601f1916820190925261241a91810190613976565b60015b6124d0573d80801561244b576040519150601f19603f3d011682016040523d82523d6000602084013e612450565b606091505b5080516000036124c85760405162461bcd60e51b815260206004820152603260248201527f4552433732313a207472616e7366657220746f206e6f6e20455243373231526560448201527f63656976657220696d706c656d656e7465720000000000000000000000000000606482015260840161060d565b805181602001fd5b6001600160e01b031916630a85bd0160e11b149050611066565b506001611066565b600061250e858585856040516020016122e79493929190613993565b95945050505050565b612521838361279b565b61252e600084848461239e565b6106cc5760405162461bcd60e51b815260206004820152603260248201527f4552433732313a207472616e7366657220746f206e6f6e20455243373231526560448201527f63656976657220696d706c656d656e7465720000000000000000000000000000606482015260840161060d565b60008082516041036125d65760208301516040840151606085015160001a6125ca878285856128ea565b945094505050506125de565b506000905060025b9250929050565b60008160048111156125f9576125f96139c3565b036126015750565b6001816004811115612615576126156139c3565b036126625760405162461bcd60e51b815260206004820152601860248201527f45434453413a20696e76616c6964207369676e61747572650000000000000000604482015260640161060d565b6002816004811115612676576126766139c3565b036126c35760405162461bcd60e51b815260206004820152601f60248201527f45434453413a20696e76616c6964207369676e6174757265206c656e67746800604482015260640161060d565b60038160048111156126d7576126d76139c3565b0361272f5760405162461bcd60e51b815260206004820152602260248201527f45434453413a20696e76616c6964207369676e6174757265202773272076616c604482015261756560f01b606482015260840161060d565b6004816004811115612743576127436139c3565b036116995760405162461bcd60e51b815260206004820152602260248201527f45434453413a20696e76616c6964207369676e6174757265202776272076616c604482015261756560f01b606482015260840161060d565b6001600160a01b0382166127f15760405162461bcd60e51b815260206004820181905260248201527f4552433732313a206d696e7420746f20746865207a65726f2061646472657373604482015260640161060d565b6000818152600260205260409020546001600160a01b0316156128565760405162461bcd60e51b815260206004820152601c60248201527f4552433732313a20746f6b656e20616c7265616479206d696e74656400000000604482015260640161060d565b6001600160a01b038216600090815260036020526040812080546001929061287f908490613058565b9091555050600081815260026020526040808220805473ffffffffffffffffffffffffffffffffffffffff19166001600160a01b03861690811790915590518392907fddf252ad1be2c89b69c2b068fc378daa952ba7f163c4a11628f55a4df523b3ef908290a45050565b6000807f7fffffffffffffffffffffffffffffff5d576e7357a4501ddfe92f46681b20a083111561292157506000905060036129ce565b8460ff16601b1415801561293957508460ff16601c14155b1561294a57506000905060046129ce565b6040805160008082526020820180845289905260ff881692820192909252606081018690526080810185905260019060a0016020604051602081039080840390855afa15801561299e573d6000803e3d6000fd5b5050604051601f1901519150506001600160a01b0381166129c7576000600192509250506129ce565b9150600090505b94509492505050565b6001600160e01b03198116811461169957600080fd5b6000602082840312156129ff57600080fd5b81356117f7816129d7565b60005b83811015612a25578181015183820152602001612a0d565b50506000910152565b60008151808452612a46816020860160208601612a0a565b601f01601f19169290920160200192915050565b6020815260006117f76020830184612a2e565b600060208284031215612a7f57600080fd5b5035919050565b80356001600160a01b0381168114612a9d57600080fd5b919050565b60008060408385031215612ab557600080fd5b612abe83612a86565b946020939093013593505050565b600080600060608486031215612ae157600080fd5b505081359360208301359350604090920135919050565b600080600060608486031215612b0d57600080fd5b612b1684612a86565b9250612b2460208501612a86565b9150604084013590509250925092565b60008083601f840112612b4657600080fd5b50813567ffffffffffffffff811115612b5e57600080fd5b6020830191508360208285010111156125de57600080fd5b801515811461169957600080fd5b60008060008060008060008060008060e08b8d031215612ba357600080fd5b8a3567ffffffffffffffff80821115612bbb57600080fd5b612bc78e838f01612b34565b909c509a5060208d0135995060408d01359150612be382612b76565b819850612bf260608e01612a86565b9750612c0060808e01612a86565b965060a08d0135915080821115612c1657600080fd5b612c228e838f01612b34565b909650945060c08d0135915080821115612c3b57600080fd5b50612c488d828e01612b34565b915080935050809150509295989b9194979a5092959850565b600060208284031215612c7357600080fd5b6117f782612a86565b60008060008060608587031215612c9257600080fd5b612c9b85612a86565b9350612ca960208601612a86565b9250604085013567ffffffffffffffff811115612cc557600080fd5b612cd187828801612b34565b95989497509550505050565b60008060408385031215612cf057600080fd5b612cf983612a86565b91506020830135612d0981612b76565b809150509250929050565b6001600160a01b03831681526040602082015260006110666040830184612a2e565b634e487b7160e01b600052604160045260246000fd5b600067ffffffffffffffff80841115612d6757612d67612d36565b604051601f8501601f19908116603f01168101908282118183101715612d8f57612d8f612d36565b81604052809350858152868686011115612da857600080fd5b858560208301376000602087830101525050509392505050565b60008060008060808587031215612dd857600080fd5b612de185612a86565b9350612def60208601612a86565b925060408501359150606085013567ffffffffffffffff811115612e1257600080fd5b8501601f81018713612e2357600080fd5b612e3287823560208401612d4c565b91505092959194509250565b60008060008060008060808789031215612e5757600080fd5b863567ffffffffffffffff80821115612e6f57600080fd5b612e7b8a838b01612b34565b9098509650869150612e8f60208a01612a86565b9550612e9d60408a01612a86565b94506060890135915080821115612eb357600080fd5b50612ec089828a01612b34565b979a9699509497509295939492505050565b60008060408385031215612ee557600080fd5b612eee83612a86565b9150602083013567ffffffffffffffff811115612f0a57600080fd5b8301601f81018513612f1b57600080fd5b612f2a85823560208401612d4c565b9150509250929050565b604081526000612f476040830185612a2e565b90508260208301529392505050565b60008060408385031215612f6957600080fd5b612f7283612a86565b9150612f8060208401612a86565b90509250929050565b600181811c90821680612f9d57607f821691505b602082108103612fbd57634e487b7160e01b600052602260045260246000fd5b50919050565b60008154612fd081612f89565b60018281168015612fe85760018114612ffd5761302c565b60ff198416875282151583028701945061302c565b8560005260208060002060005b858110156130235781548a82015290840190820161300a565b50505082870194505b5050505092915050565b60006117f78284612fc3565b634e487b7160e01b600052601160045260246000fd5b808201808211156104be576104be613042565b6000825161307d818460208701612a0a565b7f2e2e2e0000000000000000000000000000000000000000000000000000000000920191825250600301919050565b634e487b7160e01b600052603260045260246000fd5b600082516130d4818460208701612a0a565b7f2e2e2e5d00000000000000000000000000000000000000000000000000000000920191825250600401919050565b7f45636f20467261676d656e74205b646174613a0000000000000000000000000081526000835161313b816013850160208801612a0a565b7f2c207665726966696572733a0000000000000000000000000000000000000000601391840191820152835161317881601f840160208801612a0a565b01601f01949350505050565b60008451613196818460208901612a0a565b8451908301906131aa818360208901612a0a565b84519101906131bd818360208801612a0a565b0195945050505050565b600082516131d9818460208701612a0a565b9190910192915050565b600083516131f5818460208801612a0a565b835190830190613209818360208801612a0a565b01949350505050565b8183823760009101908152919050565b601f8211156106cc57600081815260208120601f850160051c810160208610156132495750805b601f850160051c820191505b8181101561326857828155600101613255565b505050505050565b67ffffffffffffffff83111561328857613288612d36565b61329c836132968354612f89565b83613222565b6000601f8411600181146132d057600085156132b85750838201355b600019600387901b1c1916600186901b17835561332a565b600083815260209020601f19861690835b8281101561330157868501358255602094850194600190920191016132e1565b508682101561331e5760001960f88860031b161c19848701351681555b505060018560011b0183555b5050505050565b60006020828403121561334357600080fd5b81516117f781612b76565b81835281816020850137506000828201602090810191909152601f909101601f19169091010190565b60608152600061338b60608301868861334e565b60208301949094525090151560409091015292915050565b60208152600061106660208301848661334e565b6000600182016133c9576133c9613042565b5060010190565b815167ffffffffffffffff8111156133ea576133ea612d36565b6133fe816133f88454612f89565b84613222565b602080601f831160018114613433576000841561341b5750858301515b600019600386901b1c1916600185901b178555613268565b600085815260208120601f198616915b8281101561346257888601518255948401946001909101908401613443565b50858210156134805787850151600019600388901b60f8161c191681555b5050505050600190811b01905550565b818103818111156104be576104be613042565b60008160001904831182151516156134bd576134bd613042565b500290565b6000816134d1576134d1613042565b506000190190565b600082516134eb818460208701612a0a565b7f226465736372697074696f6e223a0000000000000000000000000000000000009201918252507f2248656c694e4654222c00000000000000000000000000000000000000000000600e820152601801919050565b60008351613552818460208801612a0a565b7f2265787465726e616c5f75726c223a0000000000000000000000000000000000908301908152601160f91b600f8201528351613596816010840160208801612a0a565b61088b60f21b60109290910191820152601201949350505050565b600083516135c3818460208801612a0a565b7f22696d616765223a000000000000000000000000000000000000000000000000908301908152601160f91b60088201528351613607816009840160208801612a0a565b61088b60f21b60099290910191820152600b01949350505050565b60008351613634818460208801612a0a565b7f226e616d65223a22000000000000000000000000000000000000000000000000908301908152835161366e816008840160208801612a0a565b61088b60f21b60089290910191820152600a01949350505050565b6000845161369b818460208901612a0a565b7f2261747472696275746573223a5b7b2274726169745f74797065223a224461749083019081527f61222c2276616c7565223a22000000000000000000000000000000000000000060208201526136f5602c820186612fc3565b905083516131bd818360208801612a0a565b60008451613719818460208901612a0a565b80830190507f7b2274726169745f74797065223a225665726966696572222c2276616c75652281527f3a220000000000000000000000000000000000000000000000000000000000006020820152845161377a816022840160208901612a0a565b7f222c227265766f6361626c65223a2200000000000000000000000000000000006022929091019182015283516137b8816031840160208801612a0a565b62089f4b60ea1b6031929091019182015260340195945050505050565b600084516137e7818460208901612a0a565b80830190507f7b2274726169745f74797065223a225665726966696572222c2276616c75652281527f3a2022000000000000000000000000000000000000000000000000000000000060208201528451613848816023840160208901612a0a565b7f222c227265766f6361626c65223a220000000000000000000000000000000000602392909101918201528351613886816032840160208801612a0a565b0160320195945050505050565b6000826138b057634e487b7160e01b600052601260045260246000fd5b500490565b634e487b7160e01b600052603160045260246000fd5b8587823790940192835290151560f81b6020830152606090811b6bffffffffffffffffffffffff19908116602184015292901b9091166035820152604901919050565b84868237909301918252151560f81b602082015260609190911b6bffffffffffffffffffffffff19166021820152603501919050565b60006001600160a01b038087168352808616602084015250836040830152608060608301526123946080830184612a2e565b60006020828403121561398857600080fd5b81516117f7816129d7565b838582376bffffffffffffffffffffffff19606093841b811694909101938452911b166014820152602801919050565b634e487b7160e01b600052602160045260246000fdfe4142434445464748494a4b4c4d4e4f505152535455565758595a6162636465666768696a6b6c6d6e6f707172737475767778797a303132333435363738392b2f68747470733a2f2f697066732e696f2f697066732f516d5a7876577a5254344b71334647456a764d654261616437717672536337394d715067676b3541743571785036a26469706673582212209195b8b632c1a3f6d2dc0c757508474661cba6647362370719529cef0fc5423b64736f6c63430008100033",
  "linkReferences": {},
  "deployedLinkReferences": {}
}