{
  "_format": "hh-sol-artifact-1",
  "contractName": "EcoNFT",
  "sourceName": "contracts/EcoNFT.sol",
  "abi": [
    {
      "inputs": [
        {
          "internalType": "contract ERC20",
          "name": "token",
          "type": "address"
        }
      ],
      "stateMutability": "nonpayable",
      "type": "constructor"
    },
    {
      "inputs": [],
      "name": "DeadlineExpired",
      "type": "error"
    },
    {
      "inputs": [
        {
          "internalType": "address",
          "name": "verifier",
          "type": "address"
        }
      ],
      "name": "DuplicateVerifier",
      "type": "error"
    },
    {
      "inputs": [],
      "name": "EmptyClaim",
      "type": "error"
    },
    {
      "inputs": [],
      "name": "FeePaymentFailed",
      "type": "error"
    },
    {
      "inputs": [],
      "name": "InvalidRegistrationApproveSignature",
      "type": "error"
    },
    {
      "inputs": [],
      "name": "InvalidRegistrationVerifierSignature",
      "type": "error"
    },
    {
      "inputs": [],
      "name": "InvalidVerifierSignature",
      "type": "error"
    },
    {
      "inputs": [
        {
          "internalType": "uint256",
          "name": "tokenID",
          "type": "uint256"
        }
      ],
      "name": "NftAlreadyMinted",
      "type": "error"
    },
    {
      "inputs": [],
      "name": "NonExistantToken",
      "type": "error"
    },
    {
      "inputs": [],
      "name": "UnrevocableClaim",
      "type": "error"
    },
    {
      "inputs": [],
      "name": "UnverifiedClaim",
      "type": "error"
    },
    {
      "anonymous": false,
      "inputs": [
        {
          "indexed": true,
          "internalType": "address",
          "name": "owner",
          "type": "address"
        },
        {
          "indexed": true,
          "internalType": "address",
          "name": "approved",
          "type": "address"
        },
        {
          "indexed": true,
          "internalType": "uint256",
          "name": "tokenId",
          "type": "uint256"
        }
      ],
      "name": "Approval",
      "type": "event"
    },
    {
      "anonymous": false,
      "inputs": [
        {
          "indexed": true,
          "internalType": "address",
          "name": "owner",
          "type": "address"
        },
        {
          "indexed": true,
          "internalType": "address",
          "name": "operator",
          "type": "address"
        },
        {
          "indexed": false,
          "internalType": "bool",
          "name": "approved",
          "type": "bool"
        }
      ],
      "name": "ApprovalForAll",
      "type": "event"
    },
    {
      "anonymous": false,
      "inputs": [],
      "name": "InitializeEcoNFT",
      "type": "event"
    },
    {
      "anonymous": false,
      "inputs": [
        {
          "indexed": true,
          "internalType": "address",
          "name": "recipient",
          "type": "address"
        },
        {
          "indexed": false,
          "internalType": "string",
          "name": "claim",
          "type": "string"
        },
        {
          "indexed": false,
          "internalType": "uint256",
          "name": "tokenID",
          "type": "uint256"
        }
      ],
      "name": "Mint",
      "type": "event"
    },
    {
      "anonymous": false,
      "inputs": [
        {
          "indexed": false,
          "internalType": "string",
          "name": "claim",
          "type": "string"
        },
        {
          "indexed": false,
          "internalType": "uint256",
          "name": "feeAmount",
          "type": "uint256"
        },
        {
          "indexed": false,
          "internalType": "bool",
          "name": "revocable",
          "type": "bool"
        },
        {
          "indexed": true,
          "internalType": "address",
          "name": "recipient",
          "type": "address"
        },
        {
          "indexed": true,
          "internalType": "address",
          "name": "verifier",
          "type": "address"
        }
      ],
      "name": "RegisterClaim",
      "type": "event"
    },
    {
      "anonymous": false,
      "inputs": [
        {
          "indexed": true,
          "internalType": "address",
          "name": "from",
          "type": "address"
        },
        {
          "indexed": true,
          "internalType": "address",
          "name": "to",
          "type": "address"
        },
        {
          "indexed": true,
          "internalType": "uint256",
          "name": "tokenId",
          "type": "uint256"
        }
      ],
      "name": "Transfer",
      "type": "event"
    },
    {
      "anonymous": false,
      "inputs": [
        {
          "indexed": false,
          "internalType": "string",
          "name": "claim",
          "type": "string"
        },
        {
          "indexed": true,
          "internalType": "address",
          "name": "recipient",
          "type": "address"
        },
        {
          "indexed": true,
          "internalType": "address",
          "name": "verifier",
          "type": "address"
        }
      ],
      "name": "UnregisterClaim",
      "type": "event"
    },
    {
      "inputs": [],
      "name": "DOMAIN_SEPARATOR",
      "outputs": [
        {
          "internalType": "bytes32",
          "name": "",
          "type": "bytes32"
        }
      ],
      "stateMutability": "view",
      "type": "function"
    },
    {
      "inputs": [],
      "name": "META_LIMIT",
      "outputs": [
        {
          "internalType": "uint256",
          "name": "",
          "type": "uint256"
        }
      ],
      "stateMutability": "view",
      "type": "function"
    },
    {
      "inputs": [],
      "name": "NFT_DESCRIPTION",
      "outputs": [
        {
          "internalType": "string",
          "name": "",
          "type": "string"
        }
      ],
      "stateMutability": "view",
      "type": "function"
    },
    {
      "inputs": [],
      "name": "NFT_EXTERNAL_URL",
      "outputs": [
        {
          "internalType": "string",
          "name": "",
          "type": "string"
        }
      ],
      "stateMutability": "view",
      "type": "function"
    },
    {
      "inputs": [],
      "name": "NFT_IMAGE_URL",
      "outputs": [
        {
          "internalType": "string",
          "name": "",
          "type": "string"
        }
      ],
      "stateMutability": "view",
      "type": "function"
    },
    {
      "inputs": [],
      "name": "SUB_NAME_LENGTH",
      "outputs": [
        {
          "internalType": "uint256",
          "name": "",
          "type": "uint256"
        }
      ],
      "stateMutability": "view",
      "type": "function"
    },
    {
      "inputs": [],
      "name": "_token",
      "outputs": [
        {
          "internalType": "contract ERC20",
          "name": "",
          "type": "address"
        }
      ],
      "stateMutability": "view",
      "type": "function"
    },
    {
      "inputs": [
        {
          "internalType": "uint256",
          "name": "",
          "type": "uint256"
        }
      ],
      "name": "_tokenClaimIDs",
      "outputs": [
        {
          "internalType": "address",
          "name": "recipient",
          "type": "address"
        },
        {
          "internalType": "string",
          "name": "claim",
          "type": "string"
        }
      ],
      "stateMutability": "view",
      "type": "function"
    },
    {
      "inputs": [],
      "name": "_tokenIDIndex",
      "outputs": [
        {
          "internalType": "uint256",
          "name": "",
          "type": "uint256"
        }
      ],
      "stateMutability": "view",
      "type": "function"
    },
    {
      "inputs": [
        {
          "internalType": "address",
          "name": "",
          "type": "address"
        },
        {
          "internalType": "string",
          "name": "",
          "type": "string"
        }
      ],
      "name": "_verifiedClaims",
      "outputs": [
        {
          "internalType": "string",
          "name": "claim",
          "type": "string"
        },
        {
          "internalType": "uint256",
          "name": "tokenID",
          "type": "uint256"
        }
      ],
      "stateMutability": "view",
      "type": "function"
    },
    {
      "inputs": [
        {
          "internalType": "address",
          "name": "to",
          "type": "address"
        },
        {
          "internalType": "uint256",
          "name": "tokenId",
          "type": "uint256"
        }
      ],
      "name": "approve",
      "outputs": [],
      "stateMutability": "nonpayable",
      "type": "function"
    },
    {
      "inputs": [
        {
          "internalType": "address",
          "name": "owner",
          "type": "address"
        }
      ],
      "name": "balanceOf",
      "outputs": [
        {
          "internalType": "uint256",
          "name": "",
          "type": "uint256"
        }
      ],
      "stateMutability": "view",
      "type": "function"
    },
    {
      "inputs": [
        {
          "internalType": "uint256",
          "name": "tokenId",
          "type": "uint256"
        }
      ],
      "name": "getApproved",
      "outputs": [
        {
          "internalType": "address",
          "name": "",
          "type": "address"
        }
      ],
      "stateMutability": "view",
      "type": "function"
    },
    {
      "inputs": [
        {
          "internalType": "address",
          "name": "owner",
          "type": "address"
        },
        {
          "internalType": "address",
          "name": "operator",
          "type": "address"
        }
      ],
      "name": "isApprovedForAll",
      "outputs": [
        {
          "internalType": "bool",
          "name": "",
          "type": "bool"
        }
      ],
      "stateMutability": "view",
      "type": "function"
    },
    {
      "inputs": [
        {
          "internalType": "address",
          "name": "recipient",
          "type": "address"
        },
        {
          "internalType": "string",
          "name": "claim",
          "type": "string"
        },
        {
          "internalType": "address",
          "name": "verifier",
          "type": "address"
        }
      ],
      "name": "isClaimVerified",
      "outputs": [
        {
          "internalType": "bool",
          "name": "",
          "type": "bool"
        }
      ],
      "stateMutability": "view",
      "type": "function"
    },
    {
      "inputs": [
        {
          "internalType": "address",
          "name": "recipient",
          "type": "address"
        },
        {
          "internalType": "string",
          "name": "claim",
          "type": "string"
        }
      ],
      "name": "mintNFT",
      "outputs": [
        {
          "internalType": "uint256",
          "name": "tokenID",
          "type": "uint256"
        }
      ],
      "stateMutability": "nonpayable",
      "type": "function"
    },
    {
      "inputs": [],
      "name": "name",
      "outputs": [
        {
          "internalType": "string",
          "name": "",
          "type": "string"
        }
      ],
      "stateMutability": "view",
      "type": "function"
    },
    {
      "inputs": [
        {
          "internalType": "string",
          "name": "claim",
          "type": "string"
        }
      ],
      "name": "nonces",
      "outputs": [
        {
          "internalType": "uint256",
          "name": "",
          "type": "uint256"
        }
      ],
      "stateMutability": "view",
      "type": "function"
    },
    {
      "inputs": [
        {
          "internalType": "uint256",
          "name": "tokenId",
          "type": "uint256"
        }
      ],
      "name": "ownerOf",
      "outputs": [
        {
          "internalType": "address",
          "name": "",
          "type": "address"
        }
      ],
      "stateMutability": "view",
      "type": "function"
    },
    {
      "inputs": [
        {
          "internalType": "string",
          "name": "claim",
          "type": "string"
        },
        {
          "internalType": "uint256",
          "name": "feeAmount",
          "type": "uint256"
        },
        {
          "internalType": "bool",
          "name": "revocable",
          "type": "bool"
        },
        {
          "internalType": "address",
          "name": "recipient",
          "type": "address"
        },
        {
          "internalType": "address",
          "name": "verifier",
          "type": "address"
        },
        {
          "internalType": "uint256",
          "name": "deadline",
          "type": "uint256"
        },
        {
          "internalType": "bytes",
          "name": "approveSig",
          "type": "bytes"
        },
        {
          "internalType": "bytes",
          "name": "verifySig",
          "type": "bytes"
        }
      ],
      "name": "register",
      "outputs": [],
      "stateMutability": "nonpayable",
      "type": "function"
    },
    {
      "inputs": [
        {
          "internalType": "address",
          "name": "from",
          "type": "address"
        },
        {
          "internalType": "address",
          "name": "to",
          "type": "address"
        },
        {
          "internalType": "uint256",
          "name": "tokenId",
          "type": "uint256"
        }
      ],
      "name": "safeTransferFrom",
      "outputs": [],
      "stateMutability": "nonpayable",
      "type": "function"
    },
    {
      "inputs": [
        {
          "internalType": "address",
          "name": "from",
          "type": "address"
        },
        {
          "internalType": "address",
          "name": "to",
          "type": "address"
        },
        {
          "internalType": "uint256",
          "name": "tokenId",
          "type": "uint256"
        },
        {
          "internalType": "bytes",
          "name": "data",
          "type": "bytes"
        }
      ],
      "name": "safeTransferFrom",
      "outputs": [],
      "stateMutability": "nonpayable",
      "type": "function"
    },
    {
      "inputs": [
        {
          "internalType": "address",
          "name": "operator",
          "type": "address"
        },
        {
          "internalType": "bool",
          "name": "approved",
          "type": "bool"
        }
      ],
      "name": "setApprovalForAll",
      "outputs": [],
      "stateMutability": "nonpayable",
      "type": "function"
    },
    {
      "inputs": [
        {
          "internalType": "bytes4",
          "name": "interfaceId",
          "type": "bytes4"
        }
      ],
      "name": "supportsInterface",
      "outputs": [
        {
          "internalType": "bool",
          "name": "",
          "type": "bool"
        }
      ],
      "stateMutability": "view",
      "type": "function"
    },
    {
      "inputs": [],
      "name": "symbol",
      "outputs": [
        {
          "internalType": "string",
          "name": "",
          "type": "string"
        }
      ],
      "stateMutability": "view",
      "type": "function"
    },
    {
      "inputs": [
        {
          "internalType": "uint256",
          "name": "tokenID",
          "type": "uint256"
        }
      ],
      "name": "tokenURI",
      "outputs": [
        {
          "internalType": "string",
          "name": "",
          "type": "string"
        }
      ],
      "stateMutability": "view",
      "type": "function"
    },
    {
      "inputs": [
        {
          "internalType": "uint256",
          "name": "tokenID",
          "type": "uint256"
        },
        {
          "internalType": "uint256",
          "name": "cursor",
          "type": "uint256"
        },
        {
          "internalType": "uint256",
          "name": "limit",
          "type": "uint256"
        }
      ],
      "name": "tokenURICursor",
      "outputs": [
        {
          "internalType": "string",
          "name": "meta",
          "type": "string"
        }
      ],
      "stateMutability": "view",
      "type": "function"
    },
    {
      "inputs": [
        {
          "internalType": "address",
          "name": "from",
          "type": "address"
        },
        {
          "internalType": "address",
          "name": "to",
          "type": "address"
        },
        {
          "internalType": "uint256",
          "name": "tokenId",
          "type": "uint256"
        }
      ],
      "name": "transferFrom",
      "outputs": [],
      "stateMutability": "nonpayable",
      "type": "function"
    },
    {
      "inputs": [
        {
          "internalType": "string",
          "name": "claim",
          "type": "string"
        },
        {
          "internalType": "address",
          "name": "recipient",
          "type": "address"
        },
        {
          "internalType": "address",
          "name": "verifier",
          "type": "address"
        },
        {
          "internalType": "uint256",
          "name": "deadline",
          "type": "uint256"
        },
        {
          "internalType": "bytes",
          "name": "verifySig",
          "type": "bytes"
        }
      ],
      "name": "unregister",
      "outputs": [],
      "stateMutability": "nonpayable",
      "type": "function"
    }
  ],
  "bytecode": "0x610160346200048157601f196200430138819003601f81810184168501946001600160401b0394939092838710868811176200046b5780849260409889528339602093849181010312620004815751926001600160a01b038416840362000481578551926200006e8462000486565b6006845280840192651158dbd3919560d21b93848152885195620000928762000486565b60019485885284880193603160f81b85528b5197620000b18962000486565b6006895280878a01528c5190620000c88262000486565b600682528782015288518c81116200046b576000998a548a81811c9116801562000460575b8a8210146200044c57908185849311620003f9575b50899085831160011462000398578c926200038c575b5050600019600383901b1c191690891b1789555b8051928c8411620003785788548981811c911680156200036d575b898210146200035957908184869594931162000302575b5088928411600114620002a15750899262000295575b5050600019600383901b1c191690861b1785555b51902094519020908460e052610100978289524660a0528051918201927f8b73c3c69bb8fe3d512ecc4cf759cc79239f7b179b0ffacaa9a75d522b39400f968785528284015260608301524660808301523060a083015260a0825260c08201978289109089111762000281578790525190206080523060c0526101209283526006556101409283527f11ff710c79a94be63a866b88e7b33165a85174f193311b5e33f1191bd37e4ca09084a1613e5e9384620004a38539608051846128d0015260a0518461298b015260c051846128a1015260e0518461291f01525183612945015251826128fc015251818181611bda01526122330152f35b634e487b7160e01b85526041600452602485fd5b01519050388062000174565b898b52888b208a9590939291168b5b8a828210620002eb5750508411620002d1575b505050811b01855562000188565b015160001960f88460031b161c19169055388080620002c3565b8385015186558c97909501949384019301620002b0565b9091929350898b52888b208480870160051c8201928b88106200034f575b9187968d92969594930160051c01915b828110620003405750506200015e565b8d81558796508c910162000330565b9250819262000320565b634e487b7160e01b8b52602260045260248bfd5b90607f169062000147565b634e487b7160e01b8a52604160045260248afd5b01519050388062000118565b908c91878d95168380528c8420935b8d828210620003e25750508411620003c8575b505050811b0189556200012c565b015160001960f88460031b161c19169055388080620003ba565b8385015186558f97909501949384019301620003a7565b9091508b8052898c208580850160051c8201928c861062000442575b918d91869594930160051c01915b8281106200043357505062000102565b8e81558594508d910162000423565b9250819262000415565b634e487b7160e01b8c52602260045260248cfd5b90607f1690620000ed565b634e487b7160e01b600052604160045260246000fd5b600080fd5b604081019081106001600160401b038211176200046b5760405256fe60806040526004361015610013575b600080fd5b60003560e01c806301ffc9a71461025757806306fdde031461024e578063081812fc14610245578063095ea7b31461023c5780630f551895146102335780631c3038611461022a57806323b872dd146102215780633644e5151461021857806342842e0e1461020f5780634b2ff1441461020657806356fc0ca2146101fd5780636271473b146101f45780636352211e146101eb57806370a08231146101e257806395d89b41146101d95780639c933bf1146101d0578063a22cb465146101c7578063a70d9c2a146101be578063a86c9b2b146101b5578063a9cf1e1e146101ac578063b0fcd0c4146101a3578063b24fce881461019a578063b88d4fde14610191578063c389e6b514610188578063c87b56dd1461017f578063e985e9c514610176578063eacabe141461016d578063ecd0c0c3146101645763fa557e0b1461015c57600080fd5b61000e611bfe565b5061000e611bb9565b5061000e611a81565b5061000e611a2a565b5061000e611997565b5061000e61194a565b5061000e61182e565b5061000e6117e9565b5061000e611584565b5061000e61152e565b5061000e611433565b5061000e610f02565b5061000e610e10565b5061000e610df3565b5061000e610d4d565b5061000e610c98565b5061000e610c68565b5061000e610c4b565b5061000e610b81565b5061000e610aec565b5061000e610a7f565b5061000e610a5b565b5061000e610a42565b5061000e6109dc565b5061000e610679565b5061000e610569565b5061000e61049d565b5061000e6103b9565b5061000e61028a565b7fffffffff0000000000000000000000000000000000000000000000000000000081160361000e57565b503461000e57602036600319011261000e5760207fffffffff000000000000000000000000000000000000000000000000000000006004356102cb81610260565b167f80ac58cd000000000000000000000000000000000000000000000000000000008114908115610333575b8115610309575b506040519015158152f35b7f01ffc9a700000000000000000000000000000000000000000000000000000000915014386102fe565b7f5b5e139f00000000000000000000000000000000000000000000000000000000811491506102f7565b60005b8381106103705750506000910152565b8181015183820152602001610360565b906020916103998151809281855285808601910161035d565b601f01601f1916010190565b9060206103b6928181520190610380565b90565b503461000e5760008060031936011261049a57604051908080546103dc81611450565b808552916001918083169081156104705750600114610416575b61041285610406818703826108c9565b604051918291826103a5565b0390f35b80809450527f290decd9548b62a8d60345a988386fc84ba6bc95484008f6362f93160ef3e5635b828410610458575050508101602001610406826104126103f6565b8054602085870181019190915290930192810161043d565b8695506104129693506020925061040694915060ff191682840152151560051b82010192936103f6565b80fd5b503461000e57602036600319011261000e576004356104da6104d58260005260026020526001600160a01b0360406000205416151590565b611c1d565b600052600460205260206001600160a01b0360406000205416604051908152f35b600435906001600160a01b038216820361000e57565b606435906001600160a01b038216820361000e57565b608435906001600160a01b038216820361000e57565b604435906001600160a01b038216820361000e57565b602435906001600160a01b038216820361000e57565b503461000e57604036600319011261000e576105836104fb565b60243561058f81611c68565b916001600160a01b03808416809183161461060f576105c1936105bc9133149081156105c3575b50611c8a565b611e3d565b005b6106099150610602906105ea33916001600160a01b03166000526005602052604060002090565b906001600160a01b0316600052602052604060002090565b5460ff1690565b386105b6565b608460405162461bcd60e51b815260206004820152602160248201527f4552433732313a20617070726f76616c20746f2063757272656e74206f776e6560448201527f72000000000000000000000000000000000000000000000000000000000000006064820152fd5b503461000e57606036600319011261000e576004356106b56106b18260005260026020526001600160a01b0360406000205416151590565b1590565b6107ee576107c661040661079d61077e6107156106df610412966000526008602052604060002090565b600161070e6106f583546001600160a01b031690565b6001600160a01b03166000526007602052604060002090565b9101612a34565b6107526107586107248361148a565b600a8151116000146107e95761073c61074191613d9e565b612a51565b600284019384541515938492612aa5565b906130b5565b90156107d857610778610769612b32565b925b60443590602435906134a9565b90612b6b565b6107cc6107b661078c612bbf565b9260405194859160208301906118cb565b03936107b1601f19958681018352826108c9565b612d21565b60405195869360208501906118cb565b906118cb565b039081018352826108c9565b6107786107e3612af9565b9261076b565b610741565b60046040517f31efff51000000000000000000000000000000000000000000000000000000008152fd5b50634e487b7160e01b600052604160045260246000fd5b6040810190811067ffffffffffffffff82111761084b57604052565b610853610818565b604052565b6080810190811067ffffffffffffffff82111761084b57604052565b6020810190811067ffffffffffffffff82111761084b57604052565b610440810190811067ffffffffffffffff82111761084b57604052565b60c0810190811067ffffffffffffffff82111761084b57604052565b90601f8019910116810190811067ffffffffffffffff82111761084b57604052565b604051906108f88261082f565b565b60209067ffffffffffffffff8111610918575b601f01601f19160190565b610920610818565b61090d565b604051906020820182811067ffffffffffffffff82111761094a575b60405260008252565b610952610818565b610941565b6040519061096482610858565b604382527f53384a00000000000000000000000000000000000000000000000000000000006060837f68747470733a2f2f697066732e696f2f697066732f516d575a46766238384b4460208201527f6f73374259796635326274785075454569665a4e37693543413259664333617a60408201520152565b503461000e57600036600319011261000e576104126109f9610957565b604051918291602083526020830190610380565b606090600319011261000e576001600160a01b0390600435828116810361000e5791602435908116810361000e579060443590565b3461000e57610a5036610a0d565b5050506108f8611cfb565b503461000e57600036600319011261000e576020610a77612897565b604051908152f35b3461000e57610a8d36610a0d565b5050506000604051610a9e81610874565b526108f8611cfb565b9181601f8401121561000e5782359167ffffffffffffffff831161000e576020838186019501011161000e57565b8015150361000e57565b604435906108f882610ad5565b503461000e5761010036600319011261000e5767ffffffffffffffff60043581811161000e57610b20903690600401610aa7565b90610b29610adf565b91610b32610511565b610b3a610527565b9160c43586811161000e57610b53903690600401610aa7565b93909260e43597881161000e57610b716105c1983690600401610aa7565b97909660a4359460243591612091565b503461000e57606036600319011261000e57610b9b6104fb565b6024359067ffffffffffffffff821161000e57610c0660ff916003610bed610bc96020963690600401610aa7565b6001600160a01b03610bd961053d565b951660005260078852604060002091612078565b01906001600160a01b0316600052602052604060002090565b54166040519015158152f35b60405190610c1f8261082f565b601682527f68747470733a2f2f65636f2e6f72672f65636f2d6964000000000000000000006020830152565b503461000e57600036600319011261000e576104126109f9610c12565b503461000e57602036600319011261000e576020610c87600435611c68565b6001600160a01b0360405191168152f35b503461000e57602036600319011261000e576001600160a01b03610cba6104fb565b168015610ce3576000526003602052610412604060002054604051918291829190602083019252565b608460405162461bcd60e51b815260206004820152602960248201527f4552433732313a2061646472657373207a65726f206973206e6f74206120766160448201527f6c6964206f776e657200000000000000000000000000000000000000000000006064820152fd5b503461000e5760008060031936011261049a5760405190806001805491610d7383611450565b808652928281169081156104705750600114610d995761041285610406818703826108c9565b92508083527fb10e2d527612073b26eecdfd717e6a320cf44b4afac2b0732d9fcbe2b7fa0cf65b828410610ddb575050508101602001610406826104126103f6565b80546020858701810191909152909301928101610dc0565b503461000e57600036600319011261000e576020604051600a8152f35b503461000e57604036600319011261000e57610e2a6104fb565b602435610e3681610ad5565b6001600160a01b03821691823314610ebe5781610e76610e87923360005260056020526040600020906001600160a01b0316600052602052604060002090565b9060ff801983541691151516179055565b604051901515815233907f17307eab39ab6107e8899845ad3d59bd9653f200f220920489ca2b5937696c319080602081015b0390a3005b606460405162461bcd60e51b815260206004820152601960248201527f4552433732313a20617070726f766520746f2063616c6c6572000000000000006044820152fd5b503461000e57600036600319011261000e57602060405160328152f35b60405190610f2c82610890565b61041582527f6e7469747920616e642072657075746174696f6e2e0000000000000000000000610420837f45636f20494473206172652066756c6c7920646563656e7472616c697a65642060208201527f616e64207065726d697373696f6e6c657373206964656e74697479207072696d60408201527f6974697665732064657369676e656420746f2062652073696d706c652c20766560608201527f72736174696c6520616e6420696d6d757461626c652e2054686579206172652060808201527f696e74656e64656420746f207365727665206173206120626173696320666f7560a08201527f6e646174696f6e20746f20626f6f74737472617020696e6372656173696e676c60c08201527f792d636f6d706c657820616e6420637573746f6d2072657075746174696f6e2060e08201527f616e6420676f7665726e616e63652073797374656d732e5c6e45636f204944736101008201527f20617265204552432d373231204e465473207468617420686f6c6420617262696101208201527f7472617279206461746120617474657374656420746f206279206120766572696101408201527f666965722c20616c6f6e67207769746820746865206964656e74697479206f666101608201527f207468652076657269666965722e20436f6e73756d657273206f6620746865206101808201527f6461746120696e207468652073797374656d2063616e2063686f6f73652077686101a08201527f6963682076657269666965727320746f206c697374656e20746f20616e6420776101c08201527f686174206461746120746f206c6f6f6b20666f722e20456e64207573657273206101e08201527f72657175657374206174746573746174696f6e732066726f6d207665726966696102008201527f6572732c20616e64206f6e6365206772616e7465642c206172652061626c65206102208201527f746f206d696e742061206e65772045636f2049442077697468207468617420646102408201527f6174612e5c6e5468652073797374656d20616c6c6f777320666f7220626f74686102608201527f207265766f6361626c6520616e64206e6f6e2d7265766f6361626c65206174746102808201527f6573746174696f6e73206279207665726966696572732e20497420616c736f206102a08201527f616c6c6f77732076657269666965727320746865206f7074696f6e20746f20636102c08201527f686172676520612066656520696e202445434f20666f7220746865206d696e746102e08201527f696e67206f66207468652045636f2049442e5c6e4964656e7469747920616e646103008201527f2072657075746174696f6e20617265206275696c7420757020627920636f6d626103208201527f696e696e67206d616e7920696e646976696475616c206461746120706f696e746103408201527f732c2077697468206f7074696f6e616c69747920666f72206f746865727320746103608201527f6f2073656c6563746976656c792070617920617474656e74696f6e20746f20636103808201527f65727461696e206f6e65732e2045636f2049447320616c6c6f7720666f7220746103a08201527f686520616363756d756c6174696f6e206f662073756368206461746120706f696103c08201527f6e74732c20616e6420696e20646f696e6720736f2c2070726f766964652061206103e08201527f7061746820746f206d6f726520726f62757374206f6e2d636861696e206964656104008201520152565b503461000e57600036600319011261000e576104126109f9610f1f565b90600182811c92168015611480575b602083101461146a57565b634e487b7160e01b600052602260045260246000fd5b91607f169161145f565b906040519182600082549261149e84611450565b90818452600194858116908160001461150b57506001146114c8575b50506108f8925003836108c9565b9093915060005260209081600020936000915b8183106114f35750506108f8935082010138806114ba565b855488840185015294850194879450918301916114db565b9150506108f894506020925060ff191682840152151560051b82010138806114ba565b503461000e57602036600319011261000e576004356000526008602052604060002061156760016001600160a01b03835416920161148a565b906104126040519283928352604060208401526040830190610380565b503461000e5760a036600319011261000e5767ffffffffffffffff6004803582811161000e576115b79036908301610aa7565b90916115c1610553565b936115ca61053d565b916064359160843590811161000e576115e69036908301610aa7565b6115f4929192368789611797565b51156117875742841061177757611628611621896001600160a01b03166000526007602052604060002090565b8789612078565b9260038401936116516106b16106028988906001600160a01b0316600052602052604060002090565b61176757600201946116736106b1611669888a613bbf565b5460a01c60ff1690565b61173e57916106b1918961169d94898d8c611697611692368388611797565b613e13565b94613ad6565b611716575082916116f36116e97fe7485580c64d6de0e6843d2d684ac5f367466fbd1c45452b2380ccb0ef23af8a96956116f994906001600160a01b0316600052602052604060002090565b805460ff19169055565b82613c8e565b610eb96040519283926001600160a01b03809116971695836125ef565b6040517f0574e985000000000000000000000000000000000000000000000000000000008152fd5b836040517fca209704000000000000000000000000000000000000000000000000000000008152fd5b83604051633bbc695560e21b8152fd5b50604051631ab7da6b60e01b8152fd5b5060405163da80cc7360e01b8152fd5b9291926117a3826108fa565b916117b160405193846108c9565b82948184528183011161000e578281602093846000960137010152565b9080601f8301121561000e578160206103b693359101611797565b503461000e57602036600319011261000e5760043567ffffffffffffffff811161000e5761182561182060209236906004016117ce565b6118e2565b54604051908152f35b3461000e57608036600319011261000e576118476104fb565b50611850610553565b5060643567ffffffffffffffff811161000e573660238201121561000e57611882903690602481600401359101611797565b506108f8611cfb565b90604060031983011261000e576004356001600160a01b038116810361000e57916024359067ffffffffffffffff821161000e576103b6916004016117ce565b906118de6020928281519485920161035d565b0190565b60206118fb91816040519382858094519384920161035d565b8101600981520301902090565b60209061192292826040519483868095519384920161035d565b82019081520301902090565b929190611945602091604086526040860190610380565b930152565b503461000e576119796001600160a01b036119643661188b565b91166000526007602052604060002090611908565b60016119848261148a565b910154906104126040519283928361192e565b503461000e57602036600319011261000e576004356119cf6106b18260005260026020526001600160a01b0360406000205416151590565b6107ee576107c661040661079d61077e6119f96106df610412966000526008602052604060002090565b610752611a086107248361148a565b9015611a1f57610778611a19612b32565b926133d4565b610778611a19612af9565b503461000e57604036600319011261000e57602060ff610c06611a4b6104fb565b6001600160a01b03611a5b610553565b9116600052600584526040600020906001600160a01b0316600052602052604060002090565b503461000e57611a903661188b565b611ab6611ab0836001600160a01b03166000526007602052604060002090565b82611908565b600281015415611ba85760010190815480611b7557507fec4de1eef14af3ae5d77facf1ed7a9d3d50f6285573ee0ec155fc11217fc34426001600160a01b03610412946006548095611b0f611b0a83612600565b600655565b55611b46611b1b6108eb565b6001600160a01b0383168152856020820152611b41876000526008602052604060002090565b612618565b611b508582612725565b611b628560405193849316958361192e565b0390a26040519081529081906020820190565b6040517f198647a00000000000000000000000000000000000000000000000000000000081526004810191909152602490fd5b6004604051633bbc695560e21b8152fd5b503461000e57600036600319011261000e5760206040516001600160a01b037f0000000000000000000000000000000000000000000000000000000000000000168152f35b503461000e57600036600319011261000e576020600654604051908152f35b15611c2457565b606460405162461bcd60e51b815260206004820152601860248201527f4552433732313a20696e76616c696420746f6b656e20494400000000000000006044820152fd5b60005260026020526001600160a01b03604060002054166103b6811515611c1d565b15611c9157565b608460405162461bcd60e51b815260206004820152603e60248201527f4552433732313a20617070726f76652063616c6c6572206973206e6f7420746f60448201527f6b656e206f776e6572206e6f7220617070726f76656420666f7220616c6c00006064820152fd5b50608460405162461bcd60e51b815260206004820152602e60248201527f4552433732313a2063616c6c6572206973206e6f7420746f6b656e206f776e6560448201527f72206e6f7220617070726f7665640000000000000000000000000000000000006064820152fd5b15611d6d57565b60405162461bcd60e51b815260206004820152603260248201527f4552433732313a207472616e7366657220746f206e6f6e20455243373231526560448201527f63656976657220696d706c656d656e74657200000000000000000000000000006064820152608490fd5b50634e487b7160e01b600052601160045260246000fd5b600019810191908211611dfe57565b6108f8611dd8565b9060018201809211611dfe57565b9060028201809211611dfe57565b9060208201809211611dfe57565b91908201809211611dfe57565b816000526004602052611e77816040600020906001600160a01b031673ffffffffffffffffffffffffffffffffffffffff19825416179055565b6001600160a01b0380611e8984611c68565b169116907f8c5be1e5ebec7d5bd14f71427d1e84f3dd0314c0f7b2291e5b200ac8c7c3b9256000604051a4565b9081602091031261000e57516103b681610260565b6103b693926001600160a01b036080931682526000602083015260408201528160608201520190610380565b506040513d6000823e3d90fd5b3d15611f2f573d90611f15826108fa565b91611f2360405193846108c9565b82523d6000602084013e565b606090565b909190803b1561207057611f876020916001600160a01b039360006040519586809581947f150b7a02000000000000000000000000000000000000000000000000000000009a8b84523360048501611ecb565b0393165af160009181612040575b5061201a57611fa2611f04565b805190816120155760405162461bcd60e51b815260206004820152603260248201527f4552433732313a207472616e7366657220746f206e6f6e20455243373231526560448201527f63656976657220696d706c656d656e74657200000000000000000000000000006064820152608490fd5b602001fd5b7fffffffff00000000000000000000000000000000000000000000000000000000161490565b61206291925060203d8111612069575b61205a81836108c9565b810190611eb6565b9038611f95565b503d612050565b505050600190565b6020919283604051948593843782019081520301902090565b989096939991949592976120a636898c611797565b511561236e5742841061235d576106b16120da9189968c878f8c908f8d6120d26116928f369089611797565b9d8e966136a6565b612333576120f1936106b193878c8b898c8f613a19565b6123095761211c612115876001600160a01b03166000526007602052604060002090565b8487612078565b60038101906121416106028584906001600160a01b0316600052602052604060002090565b6122cf578361218e926105ea8361215c898c612181976123ea565b60026121666108eb565b6001600160a01b0386168152918b15156020840152016124fd565b805460ff19166001179055565b806121d9575b7fa86933f16b8c4813c2c4d5eec0ce857a43493a4c101d75a72875bb0c7adb37a5936121d4916040519485946001600160a01b03809116991697856125c9565b0390a3565b6040517f23b872dd0000000000000000000000000000000000000000000000000000000081526001600160a01b03808816600483015283166024820152604481018290526020818060648101038160006001600160a01b037f0000000000000000000000000000000000000000000000000000000000000000165af19081156122c2575b600091612294575b506121945760046040517ff0e492a3000000000000000000000000000000000000000000000000000000008152fd5b6122b5915060203d81116122bb575b6122ad81836108c9565b810190612593565b38612265565b503d6122a3565b6122ca611ef7565b61225d565b6040517f74e26d120000000000000000000000000000000000000000000000000000000081526001600160a01b0385166004820152602490fd5b60046040517fc5248083000000000000000000000000000000000000000000000000000000008152fd5b60046040517f9c06bbce000000000000000000000000000000000000000000000000000000008152fd5b6004604051631ab7da6b60e01b8152fd5b600460405163da80cc7360e01b8152fd5b50634e487b7160e01b600052600060045260246000fd5b90601f81116123a457505050565b600091825260208220906020601f850160051c830194106123e0575b601f0160051c01915b8281106123d557505050565b8181556001016123c9565b90925082906123c0565b90929167ffffffffffffffff81116124b3575b6124118161240b8454611450565b84612396565b6000601f821160011461244b5781929394600092612440575b50508160011b916000199060031b1c1916179055565b01359050388061242a565b601f1982169461246084600052602060002090565b91805b87811061249b575083600195969710612481575b505050811b019055565b0135600019600384901b60f8161c19169055388080612477565b90926020600181928686013581550194019101612463565b6124bb610818565b6123fd565b50634e487b7160e01b600052603260045260246000fd5b80548210156124f0575b60005260206000200190600090565b6124f86124c0565b6124e1565b9060206125276108f89380549068010000000000000000821015612586575b6001820181556124d7565b929092612579575b80518354929091015160ff60a01b90151560a01b167fffffffffffffffffffffff0000000000000000000000000000000000000000009092166001600160a01b0390911617179055565b61258161237f565b61252f565b61258e610818565b61251c565b9081602091031261000e57516103b681610ad5565b908060209392818452848401376000828201840152601f01601f1916010190565b929493906125e2906040936060865260608601916125a8565b9460208401521515910152565b9160206103b69381815201916125a8565b6001906000198114612610570190565b6118de611dd8565b8151815473ffffffffffffffffffffffffffffffffffffffff19166001600160a01b03919091161781556001809101916020809101519081519167ffffffffffffffff8311612718575b612676836126708754611450565b87612396565b81601f84116001146126af57509282939183926000946126a4575b50501b916000199060031b1c1916179055565b015192503880612691565b919083601f1981166126c688600052602060002090565b946000905b888383106126fe57505050106126e557505050811b019055565b015160001960f88460031b161c19169055388080612477565b8587015188559096019594850194879350908101906126cb565b612720610818565b612662565b9060405161273281610874565b600081526001600160a01b038316918215612853576127678160005260026020526001600160a01b0360406000205416151590565b61280f57838161280a946127916108f8976001600160a01b03166000526003602052604060002090565b61279b8154611e06565b90556127dd836127b5846000526002602052604060002090565b906001600160a01b031673ffffffffffffffffffffffffffffffffffffffff19825416179055565b60007fddf252ad1be2c89b69c2b068fc378daa952ba7f163c4a11628f55a4df523b3ef81604051a4611f34565b611d66565b606460405162461bcd60e51b815260206004820152601c60248201527f4552433732313a20746f6b656e20616c7265616479206d696e746564000000006044820152fd5b606460405162461bcd60e51b815260206004820152602060248201527f4552433732313a206d696e7420746f20746865207a65726f20616464726573736044820152fd5b6001600160a01b037f000000000000000000000000000000000000000000000000000000000000000016301480612988575b156128f2577f000000000000000000000000000000000000000000000000000000000000000090565b60405160208101907f000000000000000000000000000000000000000000000000000000000000000082527f000000000000000000000000000000000000000000000000000000000000000060408201527f000000000000000000000000000000000000000000000000000000000000000060608201524660808201523060a082015260a08152612982816108ad565b51902090565b507f000000000000000000000000000000000000000000000000000000000000000046146128c9565b6000929181546129c081611450565b92600191808316908115612a1957506001146129dd575b50505050565b90919293945060005260209081600020906000915b858310612a0857505050500190388080806129d7565b8054858401529183019181016129f2565b60ff19168452505050811515909102019150388080806129d7565b602090612a4792604051938480936129b1565b9081520301902090565b906108f8602360405184612a6f82965180926020808601910161035d565b81017f2e2e2e000000000000000000000000000000000000000000000000000000000060208201520360038101855201836108c9565b906108f8602960405180947f45636f204944202d2000000000000000000000000000000000000000000000006020830152612ae9815180926020868601910161035d565b81010360098101855201836108c9565b60405190612b068261082f565b600282527f5d7d0000000000000000000000000000000000000000000000000000000000006020830152565b60405190612b3f8261082f565b600482527f227d5d7d000000000000000000000000000000000000000000000000000000006020830152565b6108f8919392936040519485918351612b8c8160209687808801910161035d565b8301612ba08251809387808501910161035d565b01612bb38251809386808501910161035d565b010380855201836108c9565b60405190612bcc8261082f565b601d82527f646174613a6170706c69636174696f6e2f6a736f6e3b6261736536342c0000006020830152565b604051906060820182811067ffffffffffffffff821117612c69575b604052604082527f6768696a6b6c6d6e6f707172737475767778797a303132333435363738392b2f6040837f4142434445464748494a4b4c4d4e4f505152535455565758595a61626364656660208201520152565b612c71610818565b612c14565b7f3fffffffffffffffffffffffffffffffffffffffffffffffffffffffffffffff8111600116612ca7575b60021b90565b612caf611dd8565b612ca1565b604051906060820182811067ffffffffffffffff821117612ce2575b604052602a8252604082602036910137565b612cea610818565b612cd0565b90612cf9826108fa565b612d0660405191826108c9565b8281528092612d17601f19916108fa565b0190602036910137565b805115612e4057612d30612bf8565b612d4c612d47612d408451611e14565b6003900490565b612c76565b91612d5e612d5984611e22565b612cef565b92835280815182019060208501935b828210612de457505050600390510680600114612db957600214612d8f575090565b7f3d0000000000000000000000000000000000000000000000000000000000000090600019015290565b507f3d3d00000000000000000000000000000000000000000000000000000000000090600119015290565b90919360049060038094019384516001603f81818460121c16880101519260f893841b8652828282600c1c1689010151841b8387015282828260061c1689010151841b60028701521686010151901b9082015201939190612d6d565b506103b6610925565b60326108f8919392936040519481612e6b87935180926020808701910161035d565b82017f2265787465726e616c5f75726c223a00000000000000000000000000000000006020820152601160f91b602f820152612eb182518093602060308501910161035d565b0161088b60f21b60308201520360128101855201836108c9565b602b6108f8919392936040519481612eed87935180926020808701910161035d565b82017f22696d616765223a0000000000000000000000000000000000000000000000006020820152601160f91b6028820152612f3382518093602060298501910161035d565b0161088b60f21b602982015203600b8101855201836108c9565b602a6108f8919392936040519481612f6f87935180926020808701910161035d565b82017f226e616d65223a220000000000000000000000000000000000000000000000006020820152612fab82518093602060288501910161035d565b0161088b60f21b602882015203600a8101855201836108c9565b60405190612fd28261082f565b600282527f227d0000000000000000000000000000000000000000000000000000000000006020830152565b6040519061300b8261082f565b6003825262089f4b60ea1b6020830152565b6020604c94936130a66130996108f89560405198866130458b9851809289808c01910161035d565b87017f2261747472696275746573223a5b7b2274726169745f74797065223a22446174878201527f61222c2276616c7565223a220000000000000000000000000000000000000000604082015201906129b1565b918281519485920161035d565b0103601f1981018452836108c9565b61319f6103b6939261319a61318c61311e61317e60316040516130d78161082f565b60018152602081017f7b00000000000000000000000000000000000000000000000000000000000000815261310a610f1f565b90604051958693518092602086019061035d565b82017f226465736372697074696f6e223a0000000000000000000000000000000000006020820152601160f91b602e820152613164825180936020602f8501910161035d565b0161088b60f21b602f8201520360118101845201826108c9565b613186610c12565b90612e49565b613194610957565b90612ecb565b612f4d565b91156131b3576131ad612ffe565b9161301d565b6131ad612fc5565b604051906131c88261082f565b600582527f66616c73650000000000000000000000000000000000000000000000000000006020830152565b604051906132018261082f565b600482527f74727565000000000000000000000000000000000000000000000000000000006020830152565b6052906108f8929493604051958261324f88945180926020808801910161035d565b83017f7b2274726169745f74797065223a225665726966696572222c2276616c75652260208201527f3a2022000000000000000000000000000000000000000000000000000000000060408201526132b182518093602060438501910161035d565b017f222c227265766f6361626c65223a22000000000000000000000000000000000060438201526132eb825180936020878501910161035d565b010360328101855201836108c9565b6054906108f8929493604051958261331c88945180926020808801910161035d565b83017f7b2274726169745f74797065223a225665726966696572222c2276616c75652260208201527f3a22000000000000000000000000000000000000000000000000000000000000604082015261337e82518093602060428501910161035d565b017f222c227265766f6361626c65223a22000000000000000000000000000000000060428201526133b982518093602060518501910161035d565b0162089f4b60ea1b60518201520360348101855201836108c9565b90606091805480156134a5576032811161349d575b6133f281611def565b6000925b8284106134035750505050565b9091929461347e9061344061343b61342f61342f6134218b886124d7565b50546001600160a01b031690565b6001600160a01b031690565b6135eb565b61345861344d89866124d7565b505460a01c60ff1690565b1561348f576134656131f4565b905b8589101561348657613478926132fa565b95612600565b9291906133f6565b6134789261322d565b6134976131bb565b90613467565b5060326133e9565b5050565b92919060609380549283156129d7576134c29083611e30565b6000939080821161355d575091905b6134da83611def565b91935b8385106134eb575050505050565b909192939561353d9061350a61343b61342f61342f6134218c896124d7565b61351761344d8a876124d7565b1561354f576135246131f4565b905b868a101561354657613537926132fa565b96612600565b939291906134dd565b6135379261322d565b6135576131bb565b90613526565b905091906134d1565b90602091805182101561357857010190565b6135806124c0565b010190565b8015613593575b6000190190565b61359b611dd8565b61358c565b156135a757565b606460405162461bcd60e51b815260206004820152602060248201527f537472696e67733a20686578206c656e67746820696e73756666696369656e746044820152fd5b6135f3612cb4565b90815115613699575b60306020830153815160019081101561368c575b90607860218401536029915b80831161362f57506103b69150156135a0565b90807f3031323334353637383961626364656600000000000000000000000000000000600f6136789316601081101561367f575b1a61366e8587613566565b5360041c92613585565b919061361c565b6136876124c0565b613663565b6136946124c0565b613610565b6136a16124c0565b6135fc565b9661375d9599966136c4613763996137559695949b979b3691611797565b60208151910120936040519360208501957fd592e25e89e493feb1c2e5e235b302997d8e3cabec1a37b4ff23a5967887ec26875260408601526060850152151560808401526001600160a01b0380809b169b8c60a08601521660c084015260e083015261010090818301528152610120810181811067ffffffffffffffff821117613768575b604052519020613b73565b923691611797565b90613775565b161490565b613770610818565b61374a565b6103b6916137829161392b565b9190916137aa565b6005111561379457565b634e487b7160e01b600052602160045260246000fd5b6137b38161378a565b806137bb5750565b6137c48161378a565b600181036138115760405162461bcd60e51b815260206004820152601860248201527f45434453413a20696e76616c6964207369676e617475726500000000000000006044820152606490fd5b61381a8161378a565b600281036138675760405162461bcd60e51b815260206004820152601f60248201527f45434453413a20696e76616c6964207369676e6174757265206c656e677468006044820152606490fd5b6138708161378a565b600381036138c85760405162461bcd60e51b815260206004820152602260248201527f45434453413a20696e76616c6964207369676e6174757265202773272076616c604482015261756560f01b6064820152608490fd5b806138d460049261378a565b146138db57565b60405162461bcd60e51b815260206004820152602260248201527f45434453413a20696e76616c6964207369676e6174757265202776272076616c604482015261756560f01b6064820152608490fd5b90604181511460001461395957613955916020820151906060604084015193015160001a90613963565b9091565b5050600090600290565b9291907f7fffffffffffffffffffffffffffffff5d576e7357a4501ddfe92f46681b20a08311613a0d5760ff16601b81141580613a02575b6139f6579160809493916020936040519384528484015260408301526060820152600093849182805260015afa156139e9575b81516001600160a01b038116156139e3579190565b50600190565b6139f1611ef7565b6139ce565b50505050600090600490565b50601c81141561399b565b50505050600090600390565b92613ac795969892613acf9a9598613a39613ac196613755953691611797565b60208151910120926040519260208401947f799be5bb05379995b02bf17ba94686d3dfed3dd5e54dba2f0e230a9acf48e072865260408501526060840152151560808301526001600160a01b039a8b809b1660a084015260c083015260e082015260e08152610100810181811067ffffffffffffffff82111761376857604052519020613b73565b9061392b565b9490946137aa565b1691161490565b61376395613ac193613af461375593613782989b979a953691611797565b60208151910120916040519160208301937f9eacf97babb44a432a52c1157cd6f0c3e91062648f8853a5b7e586dbfdeb3d06855260408401526001600160a01b039a8b8092166060850152169a8b608084015260a083015260c082015260c0815260e0810181811067ffffffffffffffff821117613768576040525190205b613b7b612897565b906040519060208201927f19010000000000000000000000000000000000000000000000000000000000008452602283015260428201526042815261298281610858565b9060005b8154811015613c0757613bd681836124d7565b50546001600160a01b03848116911614613bf857613bf390612600565b613bc3565b90613c0392506124d7565b5090565b606460405162461bcd60e51b815260206004820152601060248201527f696e76616c6964207665726966696572000000000000000000000000000000006044820152fd5b80548015613c785760001901906000613c6483836124d7565b613c6c575555565b613c7461237f565b5555565b634e487b7160e01b600052603160045260246000fd5b9060005b8154808210156129d757613ca682846124d7565b50906001600160a01b038092541682861614613ccc575050613cc790612600565b613c92565b6108f89450613ceb613cf3916000198101908111613d91575b856124d7565b5092846124d7565b919091613d84575b828203613d0b575b505050613c4b565b82613d4160ff92613d7c95541684906001600160a01b031673ffffffffffffffffffffffffffffffffffffffff19825416179055565b5460a01c167fffffffffffffffffffffff00ffffffffffffffffffffffffffffffffffffffff60ff60a01b835492151560a01b169116179055565b388080613d03565b613d8c61237f565b613cfb565b613d99611dd8565b613ce5565b60405190613dab8261082f565b600a9081835260203681850137600090815b838110613dcb575050505090565b807fff00000000000000000000000000000000000000000000000000000000000000613dfa613e0e9385613566565b5116841a613e088288613566565b53612600565b613dbd565b613e1c906118e2565b9081549160018301905556fea26469706673582212201a89f64732bcda61fd42352906d5bd618350ee960204065753e591f541cda83264736f6c63430008100033",
  "linkReferences": {},
  "deployedLinkReferences": {}
}