{
  "_format": "hh-sol-artifact-1",
  "contractName": "EcoClaim",
  "sourceName": "contracts/EcoClaim.sol",
  "abi": [
    {
      "inputs": [
        {
          "internalType": "contract IECO",
          "name": "eco",
          "type": "address"
        },
        {
          "internalType": "contract EcoID",
          "name": "ecoID",
          "type": "address"
        },
        {
          "internalType": "address",
          "name": "trustedVerifier",
          "type": "address"
        },
        {
          "internalType": "bytes32",
          "name": "merkelRoot",
          "type": "bytes32"
        },
        {
          "internalType": "uint256",
          "name": "proofDepth",
          "type": "uint256"
        }
      ],
      "stateMutability": "nonpayable",
      "type": "constructor"
    },
    {
      "inputs": [],
      "name": "ClaimPeriodEnded",
      "type": "error"
    },
    {
      "inputs": [],
      "name": "InvalidFee",
      "type": "error"
    },
    {
      "inputs": [],
      "name": "InvalidPoints",
      "type": "error"
    },
    {
      "inputs": [],
      "name": "InvalidProof",
      "type": "error"
    },
    {
      "inputs": [],
      "name": "InvalidProofDepth",
      "type": "error"
    },
    {
      "inputs": [],
      "name": "InvalidSignature",
      "type": "error"
    },
    {
      "inputs": [],
      "name": "SignatureExpired",
      "type": "error"
    },
    {
      "inputs": [],
      "name": "TokensAlreadyClaimed",
      "type": "error"
    },
    {
      "inputs": [],
      "name": "UnverifiedClaim",
      "type": "error"
    },
    {
      "anonymous": false,
      "inputs": [
        {
          "indexed": false,
          "internalType": "string",
          "name": "socialID",
          "type": "string"
        },
        {
          "indexed": true,
          "internalType": "address",
          "name": "addr",
          "type": "address"
        },
        {
          "indexed": false,
          "internalType": "uint256",
          "name": "eco",
          "type": "uint256"
        }
      ],
      "name": "Claim",
      "type": "event"
    },
    {
      "anonymous": false,
      "inputs": [],
      "name": "InitializeEcoClaim",
      "type": "event"
    },
    {
      "inputs": [],
      "name": "CLAIM_DURATION",
      "outputs": [
        {
          "internalType": "uint256",
          "name": "",
          "type": "uint256"
        }
      ],
      "stateMutability": "view",
      "type": "function"
    },
    {
      "inputs": [],
      "name": "DOMAIN_SEPARATOR",
      "outputs": [
        {
          "internalType": "bytes32",
          "name": "",
          "type": "bytes32"
        }
      ],
      "stateMutability": "view",
      "type": "function"
    },
    {
      "inputs": [],
      "name": "POINTS_MULTIPLIER",
      "outputs": [
        {
          "internalType": "uint256",
          "name": "",
          "type": "uint256"
        }
      ],
      "stateMutability": "view",
      "type": "function"
    },
    {
      "inputs": [],
      "name": "_claimPeriodEnd",
      "outputs": [
        {
          "internalType": "uint256",
          "name": "",
          "type": "uint256"
        }
      ],
      "stateMutability": "view",
      "type": "function"
    },
    {
      "inputs": [
        {
          "internalType": "string",
          "name": "",
          "type": "string"
        }
      ],
      "name": "_claimedBalances",
      "outputs": [
        {
          "internalType": "bool",
          "name": "",
          "type": "bool"
        }
      ],
      "stateMutability": "view",
      "type": "function"
    },
    {
      "inputs": [],
      "name": "_eco",
      "outputs": [
        {
          "internalType": "contract IECO",
          "name": "",
          "type": "address"
        }
      ],
      "stateMutability": "view",
      "type": "function"
    },
    {
      "inputs": [],
      "name": "_ecoID",
      "outputs": [
        {
          "internalType": "contract EcoID",
          "name": "",
          "type": "address"
        }
      ],
      "stateMutability": "view",
      "type": "function"
    },
    {
      "inputs": [],
      "name": "_initialInflationMultiplier",
      "outputs": [
        {
          "internalType": "uint256",
          "name": "",
          "type": "uint256"
        }
      ],
      "stateMutability": "view",
      "type": "function"
    },
    {
      "inputs": [],
      "name": "_pointsMerkleRoot",
      "outputs": [
        {
          "internalType": "bytes32",
          "name": "",
          "type": "bytes32"
        }
      ],
      "stateMutability": "view",
      "type": "function"
    },
    {
      "inputs": [],
      "name": "_proofDepth",
      "outputs": [
        {
          "internalType": "uint256",
          "name": "",
          "type": "uint256"
        }
      ],
      "stateMutability": "view",
      "type": "function"
    },
    {
      "inputs": [],
      "name": "_trustedVerifier",
      "outputs": [
        {
          "internalType": "address",
          "name": "",
          "type": "address"
        }
      ],
      "stateMutability": "view",
      "type": "function"
    },
    {
      "inputs": [
        {
          "internalType": "bytes32[]",
          "name": "proof",
          "type": "bytes32[]"
        },
        {
          "internalType": "string",
          "name": "socialID",
          "type": "string"
        },
        {
          "internalType": "uint256",
          "name": "points",
          "type": "uint256"
        }
      ],
      "name": "claimTokens",
      "outputs": [],
      "stateMutability": "nonpayable",
      "type": "function"
    },
    {
      "inputs": [
        {
          "internalType": "bytes32[]",
          "name": "proof",
          "type": "bytes32[]"
        },
        {
          "internalType": "string",
          "name": "socialID",
          "type": "string"
        },
        {
          "internalType": "uint256",
          "name": "points",
          "type": "uint256"
        },
        {
          "internalType": "address",
          "name": "recipient",
          "type": "address"
        },
        {
          "internalType": "uint256",
          "name": "feeAmount",
          "type": "uint256"
        },
        {
          "internalType": "uint256",
          "name": "deadline",
          "type": "uint256"
        },
        {
          "internalType": "bytes",
          "name": "recipientSig",
          "type": "bytes"
        }
      ],
      "name": "claimTokensOnBehalf",
      "outputs": [],
      "stateMutability": "nonpayable",
      "type": "function"
    },
    {
      "inputs": [
        {
          "internalType": "string",
          "name": "socialID",
          "type": "string"
        }
      ],
      "name": "nonces",
      "outputs": [
        {
          "internalType": "uint256",
          "name": "",
          "type": "uint256"
        }
      ],
      "stateMutability": "view",
      "type": "function"
    }
  ],
  "bytecode": "0x610140604090808252346200027a5760a0816200154880380380916200002682856200029b565b8339810103126200027a5780516001600160a01b038082169390918490036200027a5760209182840151948186168096036200027a57828501519182168092036200027a57608060608601519501519383519462000084866200027f565b6008865260018287016745636f436c61696d60c01b8152838751620000a9816200027f565b8381520197603160f81b89525190209620938660e05261010098858a524660a052865195848701907f8b73c3c69bb8fe3d512ecc4cf759cc79239f7b179b0ffacaa9a75d522b39400f998a83528989015260608801524660808801523060a088015260a0875260c087019587871060018060401b038811176200026457859487946024948694858d528b5190206080523060c0526101209c8d5260018060a01b03199084826004541617600455816005541617600555600654161760065560009b8c5560015563fd11b4d360e01b82524360c48901525afa9283156200025a57869362000221575b505050600755624f1a0042018042116200020d5760085551917fb8ed2afdffb5b047fb7bd6eb7477cf38018b19f1906209c146b31f63ed2eaba99083a16112889283620002c0843960805183610ee8015260a05183610fb4015260c05183610eb9015260e05183610f3701525182610f5d01525181610f140152f35b634e487b7160e01b84526011600452602484fd5b90809293503d831162000252575b6200023b81856200029b565b810103126200024e575138808062000191565b8380fd5b503d6200022f565b84513d88823e3d90fd5b634e487b7160e01b600052604160045260246000fd5b600080fd5b604081019081106001600160401b038211176200026457604052565b601f909101601f19168101906001600160401b03821190821017620002645760405256fe608080604052600436101561001357600080fd5b60003560e01c908163043997f214610d96575080632575257f14610d785780633644e51514610d555780637236aa3214610d2e5780637e3565f514610d0757806382c5c6dc14610c865780638f2203f614610c6a578063a0b9986714610c4c578063a45ac56b1461093c578063b24fce88146108ea578063b2aec85814610121578063ba99702114610103578063dbf7e001146100dc5763ff844a63146100b957600080fd5b346100d75760003660031901126100d7576020604051624f1a008152f35b600080fd5b346100d75760003660031901126100d75760206001600160a01b0360055416604051908152f35b346100d75760003660031901126100d7576020600154604051908152f35b346100d75760e03660031901126100d75760043567ffffffffffffffff81116100d757610152903690600401610e1a565b60243567ffffffffffffffff81116100d757610172903690600401610e81565b90916001600160a01b0360643516606435036100d75760c43567ffffffffffffffff81116100d7576101a8903690600401610e81565b60a43542116108c0576040518486823760208186810160038152030190208054906001820190556101da368688610dd3565b6020815191012090604051917f0eeee0a948a8f4fc92fb4b5e76ebbbdc8b0b87caf4aee538beb574e0cf41127f602084015260408301526001600160a01b03606435166060830152608435608083015260a43560a083015260c082015260c081528060e081011067ffffffffffffffff60e0830111176108aa5760e08101604052602081519101209061026b610eaf565b926040519260208401947f190100000000000000000000000000000000000000000000000000000000000086526022850152604284015260428352608083019083821067ffffffffffffffff8311176108aa576102e6946102de946102d893604052519020923691610dd3565b9061116b565b919091611039565b6001600160a01b0380606435169116036108805760085442116108565760ff604051838582376020818581016002815203019020541661082c5780516001540361080257604435156107d85761033d604435610fda565b6084351161073b576001600160a01b036005541660206001600160a01b03600654166040519283808093632b7e065160e11b82526001600160a01b0360643516600483015260606024830152610397606483018a8c611018565b90604483015203915afa90811561062d576000916107b9575b501561078f576040516020810190838583376103e16040828681016044356020820152036020810184520182610db1565b5190209260005493926000935b83518510156104525760208560051b85010151908181106000146104415760005260205260406000205b93600019811461042b57600101936103ee565b634e487b7160e01b600052601160045260246000fd5b906000526020526040600020610418565b850361076557604051818382376020818381016002815203019020600160ff19825416179055610483604435610fda565b90816084351161073b576001600160a01b0360045416916040519263fd11b4d360e01b8452436004850152602084602481845afa93841561062d57600094610707575b506084351561065857506001600160a01b03600454166104f3846104ee608435600754610fed565b611232565b60405163a9059cbb60e01b80825233600483015260248201929092529091602090829060449082906000905af1801561062d57610639575b506001600160a01b03600454169060843583039083821161042b5761058b9261055c876104ee602095600754610fed565b6040519283526001600160a01b0360643516600484015260248301529092839190829060009082906044820190565b03925af193841561062d576104ee6105e5936105d2937f72f6bf1bec276ec35226dd14c6846b2a9e3932751965ef5a606e3fb3b7572dc5976105fe575b505b600754610fed565b9360405192604084526040840191611018565b926020820152806001600160a01b0360643516930390a2005b61061f9060203d602011610626575b6106178183610db1565b810190611000565b50886105c8565b503d61060d565b6040513d6000823e3d90fd5b6106519060203d602011610626576106178183610db1565b508561052b565b60206106a5600092610670876104ee87600754610fed565b60405194858094819363a9059cbb60e01b835260643560048401602090939291936001600160a01b0360408201951681520152565b03925af193841561062d576104ee6105e5936105d2937f72f6bf1bec276ec35226dd14c6846b2a9e3932751965ef5a606e3fb3b7572dc5976106e8575b506105ca565b6107009060203d602011610626576106178183610db1565b50886106e2565b9093506020813d602011610733575b8161072360209383610db1565b810103126100d7575192856104c6565b3d9150610716565b60046040517f58d620b3000000000000000000000000000000000000000000000000000000008152fd5b60046040517f09bde339000000000000000000000000000000000000000000000000000000008152fd5b60046040517feef1a554000000000000000000000000000000000000000000000000000000008152fd5b6107d2915060203d602011610626576106178183610db1565b846103b0565b60046040517f86efec48000000000000000000000000000000000000000000000000000000008152fd5b60046040517f200afff5000000000000000000000000000000000000000000000000000000008152fd5b60046040517fa4f81929000000000000000000000000000000000000000000000000000000008152fd5b60046040517fe3ea9849000000000000000000000000000000000000000000000000000000008152fd5b60046040517f8baa579f000000000000000000000000000000000000000000000000000000008152fd5b634e487b7160e01b600052604160045260246000fd5b60046040517f0819bdcd000000000000000000000000000000000000000000000000000000008152fd5b346100d75760203660031901126100d75760043567ffffffffffffffff81116100d757602061091e81923690600401610e81565b91908260405193849283378101600381520301902054604051908152f35b346100d75760603660031901126100d75767ffffffffffffffff6004358181116100d75761096e903690600401610e1a565b9060249081359081116100d757610989903690600401610e81565b9060443593600854421161085657604051948383873760ff8685810160028152602098899103019020541661082c578151906001918254036108025780156107d8576109d481610fda565b506001600160a01b039260058589888784541660608c8a60065416610a1960405197889687958695632b7e065160e11b87523360048801528601526064850191611018565b90604483015203915afa90811561062d57600091610c2f575b501561078f57836040518a81019089898337610a6060408d838d81018a838201520390810184520182610db1565b5190209260005493926000925b610bc8575b5050500361076557610aa19160405186868237888188810160028152030190209060ff19825416179055610fda565b90600454169385604051809263fd11b4d360e01b825243600483015281885afa94851561062d578691600096610b95575b5090610b14600092610aea886104ee87600754610fed565b60405163a9059cbb60e01b8152336004820152602481019190915293849283919082906044820190565b03925af194851561062d576104ee610b6c93610b59937f72f6bf1bec276ec35226dd14c6846b2a9e3932751965ef5a606e3fb3b7572dc598610b785750600754610fed565b9160405193604085526040850191611018565b938201528033930390a2005b610b8e908a3d8c11610626576106178183610db1565b50896105c8565b8281939297503d8311610bc1575b610bad8183610db1565b810103126100d75751938590610b14610ad2565b503d610ba3565b9091928251841015610c295783821b83018c01519081811015610c19576000528b5260406000205b926000198114610c04578601919086610a6d565b8a634e487b7160e01b60005260116004526000fd5b906000528b526040600020610bf0565b92610a72565b610c4691508a3d8c11610626576106178183610db1565b8a610a32565b346100d75760003660031901126100d7576020600054604051908152f35b346100d75760003660031901126100d757602060405160018152f35b346100d7576020806003193601126100d75760043567ffffffffffffffff81116100d757366023820112156100d757610cc9903690602481600401359101610dd3565b6040518282519260005b848110610cf65750508160ff938101600281520301902054166040519015158152f35b818101830151848201528201610cd3565b346100d75760003660031901126100d75760206001600160a01b0360065416604051908152f35b346100d75760003660031901126100d75760206001600160a01b0360045416604051908152f35b346100d75760003660031901126100d7576020610d70610eaf565b604051908152f35b346100d75760003660031901126100d7576020600854604051908152f35b346100d75760003660031901126100d7576020906007548152f35b90601f8019910116810190811067ffffffffffffffff8211176108aa57604052565b92919267ffffffffffffffff82116108aa5760405191610dfd601f8201601f191660200184610db1565b8294818452818301116100d7578281602093846000960137010152565b9080601f830112156100d75781359067ffffffffffffffff82116108aa578160051b60405193602093610e4f85840187610db1565b855283808601928201019283116100d7578301905b828210610e72575050505090565b81358152908301908301610e64565b9181601f840112156100d75782359167ffffffffffffffff83116100d757602083818601950101116100d757565b6001600160a01b037f000000000000000000000000000000000000000000000000000000000000000016301480610fb1575b15610f0a577f000000000000000000000000000000000000000000000000000000000000000090565b60405160208101907f000000000000000000000000000000000000000000000000000000000000000082527f000000000000000000000000000000000000000000000000000000000000000060408201527f000000000000000000000000000000000000000000000000000000000000000060608201524660808201523060a082015260a0815260c0810181811067ffffffffffffffff8211176108aa5760405251902090565b507f00000000000000000000000000000000000000000000000000000000000000004614610ee1565b80600019046001118115151661042b5790565b806000190482118115151661042b570290565b908160209103126100d7575180151581036100d75790565b908060209392818452848401376000828201840152601f01601f1916010190565b6005811015611155578061104a5750565b6001810361109657606460405162461bcd60e51b815260206004820152601860248201527f45434453413a20696e76616c6964207369676e617475726500000000000000006044820152fd5b600281036110e257606460405162461bcd60e51b815260206004820152601f60248201527f45434453413a20696e76616c6964207369676e6174757265206c656e677468006044820152fd5b6003146110eb57565b608460405162461bcd60e51b815260206004820152602260248201527f45434453413a20696e76616c6964207369676e6174757265202773272076616c60448201527f75650000000000000000000000000000000000000000000000000000000000006064820152fd5b634e487b7160e01b600052602160045260246000fd5b90604181511460001461119957611195916020820151906060604084015193015160001a906111a3565b9091565b5050600090600290565b9291907f7fffffffffffffffffffffffffffffff5d576e7357a4501ddfe92f46681b20a083116112265791608094939160ff602094604051948552168484015260408301526060820152600093849182805260015afa156112195781516001600160a01b03811615611213579190565b50600190565b50604051903d90823e3d90fd5b50505050600090600390565b811561123c570490565b634e487b7160e01b600052601260045260246000fdfea26469706673582212207e52091abcdfd1f4d891afc358cbf96ea6fd9b16720fc4d89afb51493d81248b64736f6c63430008100033",
  "linkReferences": {},
  "deployedLinkReferences": {}
}