{
  "_format": "hh-sol-artifact-1",
  "contractName": "EcoClaim",
  "sourceName": "contracts/EcoClaim.sol",
  "abi": [
    {
      "inputs": [
        {
          "internalType": "contract IECO",
          "name": "eco",
          "type": "address"
        },
        {
          "internalType": "contract ERC20",
          "name": "ecoX",
          "type": "address"
        },
        {
          "internalType": "contract EcoID",
          "name": "ecoID",
          "type": "address"
        },
        {
          "internalType": "address",
          "name": "trustedVerifier",
          "type": "address"
        },
        {
          "internalType": "bytes32",
          "name": "merkelRoot",
          "type": "bytes32"
        },
        {
          "internalType": "uint256",
          "name": "proofDepth",
          "type": "uint256"
        }
      ],
      "stateMutability": "nonpayable",
      "type": "constructor"
    },
    {
      "inputs": [],
      "name": "ClaimPeriodEnded",
      "type": "error"
    },
    {
      "inputs": [],
      "name": "InvalidFee",
      "type": "error"
    },
    {
      "inputs": [],
      "name": "InvalidPoints",
      "type": "error"
    },
    {
      "inputs": [],
      "name": "InvalidProof",
      "type": "error"
    },
    {
      "inputs": [],
      "name": "InvalidProofDepth",
      "type": "error"
    },
    {
      "inputs": [],
      "name": "InvalidSignature",
      "type": "error"
    },
    {
      "inputs": [],
      "name": "SignatureExpired",
      "type": "error"
    },
    {
      "inputs": [],
      "name": "TokensAlreadyClaimed",
      "type": "error"
    },
    {
      "inputs": [],
      "name": "UnverifiedClaim",
      "type": "error"
    },
    {
      "anonymous": false,
      "inputs": [
        {
          "indexed": false,
          "internalType": "string",
          "name": "socialID",
          "type": "string"
        },
        {
          "indexed": true,
          "internalType": "address",
          "name": "addr",
          "type": "address"
        },
        {
          "indexed": false,
          "internalType": "uint256",
          "name": "eco",
          "type": "uint256"
        },
        {
          "indexed": false,
          "internalType": "uint256",
          "name": "ecox",
          "type": "uint256"
        }
      ],
      "name": "Claim",
      "type": "event"
    },
    {
      "anonymous": false,
      "inputs": [],
      "name": "InitializeEcoClaim",
      "type": "event"
    },
    {
      "inputs": [],
      "name": "CLAIM_DURATION",
      "outputs": [
        {
          "internalType": "uint256",
          "name": "",
          "type": "uint256"
        }
      ],
      "stateMutability": "view",
      "type": "function"
    },
    {
      "inputs": [],
      "name": "DOMAIN_SEPARATOR",
      "outputs": [
        {
          "internalType": "bytes32",
          "name": "",
          "type": "bytes32"
        }
      ],
      "stateMutability": "view",
      "type": "function"
    },
    {
      "inputs": [],
      "name": "POINTS_MULTIPLIER",
      "outputs": [
        {
          "internalType": "uint256",
          "name": "",
          "type": "uint256"
        }
      ],
      "stateMutability": "view",
      "type": "function"
    },
    {
      "inputs": [],
      "name": "POINTS_TO_ECOX_RATIO",
      "outputs": [
        {
          "internalType": "uint256",
          "name": "",
          "type": "uint256"
        }
      ],
      "stateMutability": "view",
      "type": "function"
    },
    {
      "inputs": [],
      "name": "_claimPeriodEnd",
      "outputs": [
        {
          "internalType": "uint256",
          "name": "",
          "type": "uint256"
        }
      ],
      "stateMutability": "view",
      "type": "function"
    },
    {
      "inputs": [
        {
          "internalType": "string",
          "name": "",
          "type": "string"
        }
      ],
      "name": "_claimedBalances",
      "outputs": [
        {
          "internalType": "bool",
          "name": "",
          "type": "bool"
        }
      ],
      "stateMutability": "view",
      "type": "function"
    },
    {
      "inputs": [],
      "name": "_eco",
      "outputs": [
        {
          "internalType": "contract IECO",
          "name": "",
          "type": "address"
        }
      ],
      "stateMutability": "view",
      "type": "function"
    },
    {
      "inputs": [],
      "name": "_ecoID",
      "outputs": [
        {
          "internalType": "contract EcoID",
          "name": "",
          "type": "address"
        }
      ],
      "stateMutability": "view",
      "type": "function"
    },
    {
      "inputs": [],
      "name": "_ecoX",
      "outputs": [
        {
          "internalType": "contract ERC20",
          "name": "",
          "type": "address"
        }
      ],
      "stateMutability": "view",
      "type": "function"
    },
    {
      "inputs": [],
      "name": "_initialInflationMultiplier",
      "outputs": [
        {
          "internalType": "uint256",
          "name": "",
          "type": "uint256"
        }
      ],
      "stateMutability": "view",
      "type": "function"
    },
    {
      "inputs": [],
      "name": "_pointsMerkleRoot",
      "outputs": [
        {
          "internalType": "bytes32",
          "name": "",
          "type": "bytes32"
        }
      ],
      "stateMutability": "view",
      "type": "function"
    },
    {
      "inputs": [],
      "name": "_proofDepth",
      "outputs": [
        {
          "internalType": "uint256",
          "name": "",
          "type": "uint256"
        }
      ],
      "stateMutability": "view",
      "type": "function"
    },
    {
      "inputs": [],
      "name": "_trustedVerifier",
      "outputs": [
        {
          "internalType": "address",
          "name": "",
          "type": "address"
        }
      ],
      "stateMutability": "view",
      "type": "function"
    },
    {
      "inputs": [
        {
          "internalType": "bytes32[]",
          "name": "proof",
          "type": "bytes32[]"
        },
        {
          "internalType": "string",
          "name": "socialID",
          "type": "string"
        },
        {
          "internalType": "uint256",
          "name": "points",
          "type": "uint256"
        }
      ],
      "name": "claimTokens",
      "outputs": [],
      "stateMutability": "nonpayable",
      "type": "function"
    },
    {
      "inputs": [
        {
          "internalType": "bytes32[]",
          "name": "proof",
          "type": "bytes32[]"
        },
        {
          "internalType": "string",
          "name": "socialID",
          "type": "string"
        },
        {
          "internalType": "uint256",
          "name": "points",
          "type": "uint256"
        },
        {
          "internalType": "address",
          "name": "recipient",
          "type": "address"
        },
        {
          "internalType": "uint256",
          "name": "feeAmount",
          "type": "uint256"
        },
        {
          "internalType": "uint256",
          "name": "deadline",
          "type": "uint256"
        },
        {
          "internalType": "bytes",
          "name": "recipientSig",
          "type": "bytes"
        }
      ],
      "name": "claimTokensOnBehalf",
      "outputs": [],
      "stateMutability": "nonpayable",
      "type": "function"
    },
    {
      "inputs": [
        {
          "internalType": "string",
          "name": "socialID",
          "type": "string"
        }
      ],
      "name": "nonces",
      "outputs": [
        {
          "internalType": "uint256",
          "name": "",
          "type": "uint256"
        }
      ],
      "stateMutability": "view",
      "type": "function"
    }
  ],
  "bytecode": "0x61014060409080825234620002945760c0816200166a8038038091620000268285620002b5565b833981010312620002945780516001600160a01b03808216939091849003620002945760209384840151928084168094036200029457828501519581871680970362000294576060860151918216809203620002945760a0608087015196015191845195620000958762000299565b6008875260018388016745636f436c61696d60c01b8152848851620000ba8162000299565b8381520198603160f81b8a525190209720988760e05261010099808b524660a052875196858801917f8b73c3c69bb8fe3d512ecc4cf759cc79239f7b179b0ffacaa9a75d522b39400f9a8b84528a8a015260608901524660808901523060a089015260a0885260c088019688881060018060401b038911176200027e57869588956024958795868e528c5190206080523060c0526101209d8e5260018060a01b03199185836004541617600455826005541617600555816006541617600655600754161760075560009b8c5560015563fd11b4d360e01b82524360c48901525afa928315620002745786936200023b575b505050600855624f1a004201804211620002275760095551917fb8ed2afdffb5b047fb7bd6eb7477cf38018b19f1906209c146b31f63ed2eaba99083a16113909283620002da843960805183610fed015260a051836110b9015260c05183610fbe015260e0518361103c01525182611062015251816110190152f35b634e487b7160e01b84526011600452602484fd5b90809293503d83116200026c575b620002558185620002b5565b81010312620002685751388080620001ab565b8380fd5b503d62000249565b84513d88823e3d90fd5b634e487b7160e01b600052604160045260246000fd5b600080fd5b604081019081106001600160401b038211176200027e57604052565b601f909101601f19168101906001600160401b038211908210176200027e5760405256fe608080604052600436101561001357600080fd5b60003560e01c908163043997f214610e9b575080632575257f14610e7d5780633644e51514610e5a5780636b6adc4f14610e3e5780637236aa3214610e175780637e3565f514610df057806382c5c6dc14610d6f5780638f2203f614610d53578063a0b9986714610d35578063a45ac56b146109be578063a66318f414610997578063b24fce8814610945578063b2aec85814610137578063ba99702114610119578063dbf7e001146100f25763ff844a63146100cf57600080fd5b346100ed5760003660031901126100ed576020604051624f1a008152f35b600080fd5b346100ed5760003660031901126100ed5760206001600160a01b0360065416604051908152f35b346100ed5760003660031901126100ed576020600154604051908152f35b346100ed5760e03660031901126100ed5760043567ffffffffffffffff81116100ed57610168903690600401610f1f565b60243567ffffffffffffffff81116100ed57610188903690600401610f86565b90916001600160a01b0360643516606435036100ed5760c43567ffffffffffffffff81116100ed576101be903690600401610f86565b9060a435421161091b576040518486823760208186810160038152030190208054906001820190556101f1368688610ed8565b6020815191012090604051917f0eeee0a948a8f4fc92fb4b5e76ebbbdc8b0b87caf4aee538beb574e0cf41127f602084015260408301526001600160a01b03606435166060830152608435608083015260a43560a083015260c082015260c081528060e081011067ffffffffffffffff60e0830111176109055760e081016040526020815191012091610282610fb4565b92604051937f19010000000000000000000000000000000000000000000000000000000000006020860152602285015260428401526042835282608081011067ffffffffffffffff608085011117610905576102f56102fb92846080610303960160405260208151910120923691610ed8565b90611293565b919091611161565b6001600160a01b0380606435169116036108db5760095442116108b15760ff60405183858237602081858101600281520301902054166108875780516001540361085d57604435156108335761035a6044356110df565b60843511610796576001600160a01b036006541660206001600160a01b03600754166040519283808093632b7e065160e11b82526001600160a01b03606435166004830152606060248301526103b4606483018a8c611120565b90604483015203915afa90811561069f57600091610814575b50156107ea576040516020810190838583376103fe6040828681016044356020820152036020810184520182610eb6565b5190209260005493926000935b835185101561046f5760208560051b850101519081811060001461045e5760005260205260406000205b936000198114610448576001019361040b565b634e487b7160e01b600052601160045260246000fd5b906000526020526040600020610435565b85036107c057604051818382376020818381016002815203019020600160ff198254161790556104a06044356110df565b9060443560011c82608435116107965760055460405163a9059cbb60e01b8082526001600160a01b03606435811660048401526024830185905290959260209183916044918391600091165af1801561069f57610777575b506001600160a01b0360045416936040519463fd11b4d360e01b8652436004870152602086602481845afa95861561069f57600096610743575b50608435156106ca5750600060206105896001600160a01b0360045416610566896105616084356008546110f5565b611141565b604051868152336004820152602481019190915293849283919082906044820190565b03925af1801561069f576106ab575b506001600160a01b036004541690608435830390838211610448576105f8926105c9886105616020956008546110f5565b6040519283526001600160a01b0360643516600484015260248301529092839190829060009082906044820190565b03925af194851561069f576105616106529361063f937f88b8286268c2e65474c8b1182d7ed53744c14615eb940a3d830dc68187a8791398610670575b505b6008546110f5565b9460405193606085526060850191611120565b9360208301526040820152806001600160a01b0360643516930390a2005b6106919060203d602011610698575b6106898183610eb6565b810190611108565b5089610635565b503d61067f565b6040513d6000823e3d90fd5b6106c39060203d602011610698576106898183610eb6565b5086610598565b6106e1916020916105c988610561876008546110f5565b03925af194851561069f576105616106529361063f937f88b8286268c2e65474c8b1182d7ed53744c14615eb940a3d830dc68187a8791398610724575b50610637565b61073c9060203d602011610698576106898183610eb6565b508961071e565b9095506020813d60201161076f575b8161075f60209383610eb6565b810103126100ed57519487610532565b3d9150610752565b61078f9060203d602011610698576106898183610eb6565b50856104f8565b60046040517f58d620b3000000000000000000000000000000000000000000000000000000008152fd5b60046040517f09bde339000000000000000000000000000000000000000000000000000000008152fd5b60046040517feef1a554000000000000000000000000000000000000000000000000000000008152fd5b61082d915060203d602011610698576106898183610eb6565b846103cd565b60046040517f86efec48000000000000000000000000000000000000000000000000000000008152fd5b60046040517f200afff5000000000000000000000000000000000000000000000000000000008152fd5b60046040517fa4f81929000000000000000000000000000000000000000000000000000000008152fd5b60046040517fe3ea9849000000000000000000000000000000000000000000000000000000008152fd5b60046040517f8baa579f000000000000000000000000000000000000000000000000000000008152fd5b634e487b7160e01b600052604160045260246000fd5b60046040517f0819bdcd000000000000000000000000000000000000000000000000000000008152fd5b346100ed5760203660031901126100ed5760043567ffffffffffffffff81116100ed57602061097981923690600401610f86565b91908260405193849283378101600381520301902054604051908152f35b346100ed5760003660031901126100ed5760206001600160a01b0360055416604051908152f35b346100ed5760603660031901126100ed5767ffffffffffffffff6004358181116100ed576109f0903690600401610f1f565b60249182359081116100ed57610a0a903690600401610f86565b90926044359360095442116108b157604051948382873760ff868581016002815260209889910301902054166108875784519060019182540361085d57801561083357610a56816110df565b506001600160a01b039586600654168888600754166040519283808093632b7e065160e11b825233600483015260608c830152610a988d60648401908d611120565b90604483015203915afa90811561069f57600091610d18575b50156107ea576040518881019087868337610ade6040828c878c830191820152038c810184520182610eb6565b5190206000805492855b610cb0575b5050036107c05760405185848237878187810160028152030190208260ff19825416179055610b1b816110df565b911c92856005541695604051888163a9059cbb60e01b998a825281600081610b5d8c3360048401602090939291936001600160a01b0360408201951681520152565b03925af1801561069f57610c93575b50600454169587604051809363fd11b4d360e01b8252436004830152818a5afa96871561069f578892600098610c5e575b5090610bd89291610bb489610561876008546110f5565b60405192835233600484015260248301529092839190829060009082906044820190565b03925af195861561069f57610561610c3093610c1d937f88b8286268c2e65474c8b1182d7ed53744c14615eb940a3d830dc68187a8791399610c4157506008546110f5565b9160405194606086526060860191611120565b9483015260408201528033930390a2005b610c57908b3d8d11610698576106898183610eb6565b508a610635565b838193949299503d8311610c8c575b610c778183610eb6565b810103126100ed575195879190610bd8610b9d565b503d610c6d565b610ca990893d8b11610698576106898183610eb6565b5088610b6c565b90918151831015610d12578a8360051b8301015190818110600014610d02576000528a5260406000205b916000198114610ced5785019085610ae8565b87634e487b7160e01b60005260116004526000fd5b906000528a526040600020610cda565b91610aed565b610d2f9150893d8b11610698576106898183610eb6565b89610ab1565b346100ed5760003660031901126100ed576020600054604051908152f35b346100ed5760003660031901126100ed57602060405160058152f35b346100ed576020806003193601126100ed5760043567ffffffffffffffff81116100ed57366023820112156100ed57610db2903690602481600401359101610ed8565b6040518282519260005b848110610ddf5750508160ff938101600281520301902054166040519015158152f35b818101830151848201528201610dbc565b346100ed5760003660031901126100ed5760206001600160a01b0360075416604051908152f35b346100ed5760003660031901126100ed5760206001600160a01b0360045416604051908152f35b346100ed5760003660031901126100ed57602060405160028152f35b346100ed5760003660031901126100ed576020610e75610fb4565b604051908152f35b346100ed5760003660031901126100ed576020600954604051908152f35b346100ed5760003660031901126100ed576020906008548152f35b90601f8019910116810190811067ffffffffffffffff82111761090557604052565b92919267ffffffffffffffff82116109055760405191610f02601f8201601f191660200184610eb6565b8294818452818301116100ed578281602093846000960137010152565b9080601f830112156100ed5781359067ffffffffffffffff8211610905578160051b60405193602093610f5485840187610eb6565b855283808601928201019283116100ed578301905b828210610f77575050505090565b81358152908301908301610f69565b9181601f840112156100ed5782359167ffffffffffffffff83116100ed57602083818601950101116100ed57565b6001600160a01b037f0000000000000000000000000000000000000000000000000000000000000000163014806110b6575b1561100f577f000000000000000000000000000000000000000000000000000000000000000090565b60405160208101907f000000000000000000000000000000000000000000000000000000000000000082527f000000000000000000000000000000000000000000000000000000000000000060408201527f000000000000000000000000000000000000000000000000000000000000000060608201524660808201523060a082015260a0815260c0810181811067ffffffffffffffff8211176109055760405251902090565b507f00000000000000000000000000000000000000000000000000000000000000004614610fe6565b8060001904600511811515166104485760050290565b8060001904821181151516610448570290565b908160209103126100ed575180151581036100ed5790565b908060209392818452848401376000828201840152601f01601f1916010190565b811561114b570490565b634e487b7160e01b600052601260045260246000fd5b600581101561127d57806111725750565b600181036111be57606460405162461bcd60e51b815260206004820152601860248201527f45434453413a20696e76616c6964207369676e617475726500000000000000006044820152fd5b6002810361120a57606460405162461bcd60e51b815260206004820152601f60248201527f45434453413a20696e76616c6964207369676e6174757265206c656e677468006044820152fd5b60031461121357565b608460405162461bcd60e51b815260206004820152602260248201527f45434453413a20696e76616c6964207369676e6174757265202773272076616c60448201527f75650000000000000000000000000000000000000000000000000000000000006064820152fd5b634e487b7160e01b600052602160045260246000fd5b9060418151146000146112c1576112bd916020820151906060604084015193015160001a906112cb565b9091565b5050600090600290565b9291907f7fffffffffffffffffffffffffffffff5d576e7357a4501ddfe92f46681b20a0831161134e5791608094939160ff602094604051948552168484015260408301526060820152600093849182805260015afa156113415781516001600160a01b0381161561133b579190565b50600190565b50604051903d90823e3d90fd5b5050505060009060039056fea2646970667358221220bca28ddaaa1084859a9c7bd64a02a3ee91c1c2de2123829a93eee463cc34098364736f6c63430008100033",
  "linkReferences": {},
  "deployedLinkReferences": {}
}